{
	"Events.sol": {
		"Crud": {
			"abi": [
				{
					"anonymous": false,
					"inputs": [
						{
							"indexed": false,
							"internalType": "string",
							"name": "name",
							"type": "string"
						},
						{
							"indexed": false,
							"internalType": "uint256",
							"name": "rollnumber",
							"type": "uint256"
						},
						{
							"indexed": false,
							"internalType": "uint256",
							"name": "timestamp",
							"type": "uint256"
						}
					],
					"name": "StudentAdded",
					"type": "event"
				},
				{
					"inputs": [
						{
							"internalType": "string",
							"name": "_name",
							"type": "string"
						},
						{
							"internalType": "string",
							"name": "_email",
							"type": "string"
						},
						{
							"internalType": "uint256",
							"name": "_contactnumber",
							"type": "uint256"
						}
					],
					"name": "addStudent",
					"outputs": [],
					"stateMutability": "nonpayable",
					"type": "function"
				}
			],
			"devdoc": {
				"kind": "dev",
				"methods": {},
				"version": 1
			},
			"evm": {
				"assembly": "    /* \"Events.sol\":85:959  contract Crud {... */\n  mstore(0x40, 0x80)\n    /* \"Events.sol\":340:341  1 */\n  0x01\n    /* \"Events.sol\":319:341  uint256 rollnumber = 1 */\n  dup1\n  sstore\n    /* \"Events.sol\":85:959  contract Crud {... */\n  callvalue\n  dup1\n  iszero\n  tag_1\n  jumpi\n  0x00\n  dup1\n  revert\ntag_1:\n  pop\n  dataSize(sub_0)\n  dup1\n  dataOffset(sub_0)\n  0x00\n  codecopy\n  0x00\n  return\nstop\n\nsub_0: assembly {\n        /* \"Events.sol\":85:959  contract Crud {... */\n      mstore(0x40, 0x80)\n      callvalue\n      dup1\n      iszero\n      tag_1\n      jumpi\n      0x00\n      dup1\n      revert\n    tag_1:\n      pop\n      jumpi(tag_2, lt(calldatasize, 0x04))\n      shr(0xe0, calldataload(0x00))\n      dup1\n      0x9cc8f139\n      eq\n      tag_3\n      jumpi\n    tag_2:\n      0x00\n      dup1\n      revert\n        /* \"Events.sol\":463:956  function addStudent(... */\n    tag_3:\n      tag_4\n      0x04\n      dup1\n      calldatasize\n      sub\n      dup2\n      add\n      swap1\n      tag_5\n      swap2\n      swap1\n      tag_6\n      jump\t// in\n    tag_5:\n      tag_7\n      jump\t// in\n    tag_4:\n      stop\n    tag_7:\n        /* \"Events.sol\":631:636  _name */\n      dup3\n        /* \"Events.sol\":602:611  StudentDB */\n      0x00\n        /* \"Events.sol\":602:623  StudentDB[rollnumber] */\n      dup1\n        /* \"Events.sol\":612:622  rollnumber */\n      sload(0x01)\n        /* \"Events.sol\":602:623  StudentDB[rollnumber] */\n      dup2\n      mstore\n      0x20\n      add\n      swap1\n      dup2\n      mstore\n      0x20\n      add\n      0x00\n      keccak256\n        /* \"Events.sol\":602:628  StudentDB[rollnumber].name */\n      0x00\n      add\n        /* \"Events.sol\":602:636  StudentDB[rollnumber].name = _name */\n      swap1\n      dup2\n      tag_9\n      swap2\n      swap1\n      tag_10\n      jump\t// in\n    tag_9:\n      pop\n        /* \"Events.sol\":677:683  _email */\n      dup2\n        /* \"Events.sol\":647:656  StudentDB */\n      0x00\n        /* \"Events.sol\":647:668  StudentDB[rollnumber] */\n      dup1\n        /* \"Events.sol\":657:667  rollnumber */\n      sload(0x01)\n        /* \"Events.sol\":647:668  StudentDB[rollnumber] */\n      dup2\n      mstore\n      0x20\n      add\n      swap1\n      dup2\n      mstore\n      0x20\n      add\n      0x00\n      keccak256\n        /* \"Events.sol\":647:674  StudentDB[rollnumber].email */\n      0x01\n      add\n        /* \"Events.sol\":647:683  StudentDB[rollnumber].email = _email */\n      swap1\n      dup2\n      tag_11\n      swap2\n      swap1\n      tag_10\n      jump\t// in\n    tag_11:\n      pop\n        /* \"Events.sol\":729:739  rollnumber */\n      sload(0x01)\n        /* \"Events.sol\":694:703  StudentDB */\n      0x00\n        /* \"Events.sol\":694:715  StudentDB[rollnumber] */\n      dup1\n        /* \"Events.sol\":704:714  rollnumber */\n      sload(0x01)\n        /* \"Events.sol\":694:715  StudentDB[rollnumber] */\n      dup2\n      mstore\n      0x20\n      add\n      swap1\n      dup2\n      mstore\n      0x20\n      add\n      0x00\n      keccak256\n        /* \"Events.sol\":694:726  StudentDB[rollnumber].rollnumber */\n      0x02\n      add\n        /* \"Events.sol\":694:739  StudentDB[rollnumber].rollnumber = rollnumber */\n      dup2\n      swap1\n      sstore\n      pop\n        /* \"Events.sol\":788:802  _contactnumber */\n      dup1\n        /* \"Events.sol\":750:759  StudentDB */\n      0x00\n        /* \"Events.sol\":750:771  StudentDB[rollnumber] */\n      dup1\n        /* \"Events.sol\":760:770  rollnumber */\n      sload(0x01)\n        /* \"Events.sol\":750:771  StudentDB[rollnumber] */\n      dup2\n      mstore\n      0x20\n      add\n      swap1\n      dup2\n      mstore\n      0x20\n      add\n      0x00\n      keccak256\n        /* \"Events.sol\":750:785  StudentDB[rollnumber].contactnumber */\n      0x03\n      add\n        /* \"Events.sol\":750:802  StudentDB[rollnumber].contactnumber = _contactnumber */\n      dup2\n      swap1\n      sstore\n      pop\n        /* \"Events.sol\":847:862  block.timestamp */\n      timestamp\n        /* \"Events.sol\":813:822  StudentDB */\n      0x00\n        /* \"Events.sol\":813:834  StudentDB[rollnumber] */\n      dup1\n        /* \"Events.sol\":823:833  rollnumber */\n      sload(0x01)\n        /* \"Events.sol\":813:834  StudentDB[rollnumber] */\n      dup2\n      mstore\n      0x20\n      add\n      swap1\n      dup2\n      mstore\n      0x20\n      add\n      0x00\n      keccak256\n        /* \"Events.sol\":813:844  StudentDB[rollnumber].timestamp */\n      0x04\n      add\n        /* \"Events.sol\":813:862  StudentDB[rollnumber].timestamp = block.timestamp */\n      dup2\n      swap1\n      sstore\n      pop\n        /* \"Events.sol\":878:924  StudentAdded(_name,rollnumber,block.timestamp) */\n      0xb72ee84ef937eaea5b974fd7578aeb8437a4d8cd7a7062d03255206e0155b354\n        /* \"Events.sol\":891:896  _name */\n      dup4\n        /* \"Events.sol\":897:907  rollnumber */\n      sload(0x01)\n        /* \"Events.sol\":908:923  block.timestamp */\n      timestamp\n        /* \"Events.sol\":878:924  StudentAdded(_name,rollnumber,block.timestamp) */\n      mload(0x40)\n      tag_12\n      swap4\n      swap3\n      swap2\n      swap1\n      tag_13\n      jump\t// in\n    tag_12:\n      mload(0x40)\n      dup1\n      swap2\n      sub\n      swap1\n      log1\n        /* \"Events.sol\":947:948  1 */\n      0x01\n        /* \"Events.sol\":935:945  rollnumber */\n      dup1\n      0x00\n        /* \"Events.sol\":935:948  rollnumber+=1 */\n      dup3\n      dup3\n      sload\n      tag_14\n      swap2\n      swap1\n      tag_15\n      jump\t// in\n    tag_14:\n      swap3\n      pop\n      pop\n      dup2\n      swap1\n      sstore\n      pop\n        /* \"Events.sol\":463:956  function addStudent(... */\n      pop\n      pop\n      pop\n      jump\t// out\n        /* \"#utility.yul\":7:82   */\n    tag_16:\n        /* \"#utility.yul\":40:46   */\n      0x00\n        /* \"#utility.yul\":73:75   */\n      0x40\n        /* \"#utility.yul\":67:76   */\n      mload\n        /* \"#utility.yul\":57:76   */\n      swap1\n      pop\n        /* \"#utility.yul\":7:82   */\n      swap1\n      jump\t// out\n        /* \"#utility.yul\":88:205   */\n    tag_17:\n        /* \"#utility.yul\":197:198   */\n      0x00\n        /* \"#utility.yul\":194:195   */\n      dup1\n        /* \"#utility.yul\":187:199   */\n      revert\n        /* \"#utility.yul\":211:328   */\n    tag_18:\n        /* \"#utility.yul\":320:321   */\n      0x00\n        /* \"#utility.yul\":317:318   */\n      dup1\n        /* \"#utility.yul\":310:322   */\n      revert\n        /* \"#utility.yul\":334:451   */\n    tag_19:\n        /* \"#utility.yul\":443:444   */\n      0x00\n        /* \"#utility.yul\":440:441   */\n      dup1\n        /* \"#utility.yul\":433:445   */\n      revert\n        /* \"#utility.yul\":457:574   */\n    tag_20:\n        /* \"#utility.yul\":566:567   */\n      0x00\n        /* \"#utility.yul\":563:564   */\n      dup1\n        /* \"#utility.yul\":556:568   */\n      revert\n        /* \"#utility.yul\":580:682   */\n    tag_21:\n        /* \"#utility.yul\":621:627   */\n      0x00\n        /* \"#utility.yul\":672:674   */\n      0x1f\n        /* \"#utility.yul\":668:675   */\n      not\n        /* \"#utility.yul\":663:665   */\n      0x1f\n        /* \"#utility.yul\":656:661   */\n      dup4\n        /* \"#utility.yul\":652:666   */\n      add\n        /* \"#utility.yul\":648:676   */\n      and\n        /* \"#utility.yul\":638:676   */\n      swap1\n      pop\n        /* \"#utility.yul\":580:682   */\n      swap2\n      swap1\n      pop\n      jump\t// out\n        /* \"#utility.yul\":688:868   */\n    tag_22:\n        /* \"#utility.yul\":736:813   */\n      0x4e487b7100000000000000000000000000000000000000000000000000000000\n        /* \"#utility.yul\":733:734   */\n      0x00\n        /* \"#utility.yul\":726:814   */\n      mstore\n        /* \"#utility.yul\":833:837   */\n      0x41\n        /* \"#utility.yul\":830:831   */\n      0x04\n        /* \"#utility.yul\":823:838   */\n      mstore\n        /* \"#utility.yul\":857:861   */\n      0x24\n        /* \"#utility.yul\":854:855   */\n      0x00\n        /* \"#utility.yul\":847:862   */\n      revert\n        /* \"#utility.yul\":874:1155   */\n    tag_23:\n        /* \"#utility.yul\":957:984   */\n      tag_64\n        /* \"#utility.yul\":979:983   */\n      dup3\n        /* \"#utility.yul\":957:984   */\n      tag_21\n      jump\t// in\n    tag_64:\n        /* \"#utility.yul\":949:955   */\n      dup2\n        /* \"#utility.yul\":945:985   */\n      add\n        /* \"#utility.yul\":1087:1093   */\n      dup2\n        /* \"#utility.yul\":1075:1085   */\n      dup2\n        /* \"#utility.yul\":1072:1094   */\n      lt\n        /* \"#utility.yul\":1051:1069   */\n      0xffffffffffffffff\n        /* \"#utility.yul\":1039:1049   */\n      dup3\n        /* \"#utility.yul\":1036:1070   */\n      gt\n        /* \"#utility.yul\":1033:1095   */\n      or\n        /* \"#utility.yul\":1030:1118   */\n      iszero\n      tag_65\n      jumpi\n        /* \"#utility.yul\":1098:1116   */\n      tag_66\n      tag_22\n      jump\t// in\n    tag_66:\n        /* \"#utility.yul\":1030:1118   */\n    tag_65:\n        /* \"#utility.yul\":1138:1148   */\n      dup1\n        /* \"#utility.yul\":1134:1136   */\n      0x40\n        /* \"#utility.yul\":1127:1149   */\n      mstore\n        /* \"#utility.yul\":917:1155   */\n      pop\n        /* \"#utility.yul\":874:1155   */\n      pop\n      pop\n      jump\t// out\n        /* \"#utility.yul\":1161:1290   */\n    tag_24:\n        /* \"#utility.yul\":1195:1201   */\n      0x00\n        /* \"#utility.yul\":1222:1242   */\n      tag_68\n      tag_16\n      jump\t// in\n    tag_68:\n        /* \"#utility.yul\":1212:1242   */\n      swap1\n      pop\n        /* \"#utility.yul\":1251:1284   */\n      tag_69\n        /* \"#utility.yul\":1279:1283   */\n      dup3\n        /* \"#utility.yul\":1271:1277   */\n      dup3\n        /* \"#utility.yul\":1251:1284   */\n      tag_23\n      jump\t// in\n    tag_69:\n        /* \"#utility.yul\":1161:1290   */\n      swap2\n      swap1\n      pop\n      jump\t// out\n        /* \"#utility.yul\":1296:1604   */\n    tag_25:\n        /* \"#utility.yul\":1358:1362   */\n      0x00\n        /* \"#utility.yul\":1448:1466   */\n      0xffffffffffffffff\n        /* \"#utility.yul\":1440:1446   */\n      dup3\n        /* \"#utility.yul\":1437:1467   */\n      gt\n        /* \"#utility.yul\":1434:1490   */\n      iszero\n      tag_71\n      jumpi\n        /* \"#utility.yul\":1470:1488   */\n      tag_72\n      tag_22\n      jump\t// in\n    tag_72:\n        /* \"#utility.yul\":1434:1490   */\n    tag_71:\n        /* \"#utility.yul\":1508:1537   */\n      tag_73\n        /* \"#utility.yul\":1530:1536   */\n      dup3\n        /* \"#utility.yul\":1508:1537   */\n      tag_21\n      jump\t// in\n    tag_73:\n        /* \"#utility.yul\":1500:1537   */\n      swap1\n      pop\n        /* \"#utility.yul\":1592:1596   */\n      0x20\n        /* \"#utility.yul\":1586:1590   */\n      dup2\n        /* \"#utility.yul\":1582:1597   */\n      add\n        /* \"#utility.yul\":1574:1597   */\n      swap1\n      pop\n        /* \"#utility.yul\":1296:1604   */\n      swap2\n      swap1\n      pop\n      jump\t// out\n        /* \"#utility.yul\":1610:1758   */\n    tag_26:\n        /* \"#utility.yul\":1708:1714   */\n      dup3\n        /* \"#utility.yul\":1703:1706   */\n      dup2\n        /* \"#utility.yul\":1698:1701   */\n      dup4\n        /* \"#utility.yul\":1685:1715   */\n      calldatacopy\n        /* \"#utility.yul\":1749:1750   */\n      0x00\n        /* \"#utility.yul\":1740:1746   */\n      dup4\n        /* \"#utility.yul\":1735:1738   */\n      dup4\n        /* \"#utility.yul\":1731:1747   */\n      add\n        /* \"#utility.yul\":1724:1751   */\n      mstore\n        /* \"#utility.yul\":1610:1758   */\n      pop\n      pop\n      pop\n      jump\t// out\n        /* \"#utility.yul\":1764:2189   */\n    tag_27:\n        /* \"#utility.yul\":1842:1847   */\n      0x00\n        /* \"#utility.yul\":1867:1933   */\n      tag_76\n        /* \"#utility.yul\":1883:1932   */\n      tag_77\n        /* \"#utility.yul\":1925:1931   */\n      dup5\n        /* \"#utility.yul\":1883:1932   */\n      tag_25\n      jump\t// in\n    tag_77:\n        /* \"#utility.yul\":1867:1933   */\n      tag_24\n      jump\t// in\n    tag_76:\n        /* \"#utility.yul\":1858:1933   */\n      swap1\n      pop\n        /* \"#utility.yul\":1956:1962   */\n      dup3\n        /* \"#utility.yul\":1949:1954   */\n      dup2\n        /* \"#utility.yul\":1942:1963   */\n      mstore\n        /* \"#utility.yul\":1994:1998   */\n      0x20\n        /* \"#utility.yul\":1987:1992   */\n      dup2\n        /* \"#utility.yul\":1983:1999   */\n      add\n        /* \"#utility.yul\":2032:2035   */\n      dup5\n        /* \"#utility.yul\":2023:2029   */\n      dup5\n        /* \"#utility.yul\":2018:2021   */\n      dup5\n        /* \"#utility.yul\":2014:2030   */\n      add\n        /* \"#utility.yul\":2011:2036   */\n      gt\n        /* \"#utility.yul\":2008:2120   */\n      iszero\n      tag_78\n      jumpi\n        /* \"#utility.yul\":2039:2118   */\n      tag_79\n      tag_20\n      jump\t// in\n    tag_79:\n        /* \"#utility.yul\":2008:2120   */\n    tag_78:\n        /* \"#utility.yul\":2129:2183   */\n      tag_80\n        /* \"#utility.yul\":2176:2182   */\n      dup5\n        /* \"#utility.yul\":2171:2174   */\n      dup3\n        /* \"#utility.yul\":2166:2169   */\n      dup6\n        /* \"#utility.yul\":2129:2183   */\n      tag_26\n      jump\t// in\n    tag_80:\n        /* \"#utility.yul\":1848:2189   */\n      pop\n        /* \"#utility.yul\":1764:2189   */\n      swap4\n      swap3\n      pop\n      pop\n      pop\n      jump\t// out\n        /* \"#utility.yul\":2209:2549   */\n    tag_28:\n        /* \"#utility.yul\":2265:2270   */\n      0x00\n        /* \"#utility.yul\":2314:2317   */\n      dup3\n        /* \"#utility.yul\":2307:2311   */\n      0x1f\n        /* \"#utility.yul\":2299:2305   */\n      dup4\n        /* \"#utility.yul\":2295:2312   */\n      add\n        /* \"#utility.yul\":2291:2318   */\n      slt\n        /* \"#utility.yul\":2281:2403   */\n      tag_82\n      jumpi\n        /* \"#utility.yul\":2322:2401   */\n      tag_83\n      tag_19\n      jump\t// in\n    tag_83:\n        /* \"#utility.yul\":2281:2403   */\n    tag_82:\n        /* \"#utility.yul\":2439:2445   */\n      dup2\n        /* \"#utility.yul\":2426:2446   */\n      calldataload\n        /* \"#utility.yul\":2464:2543   */\n      tag_84\n        /* \"#utility.yul\":2539:2542   */\n      dup5\n        /* \"#utility.yul\":2531:2537   */\n      dup3\n        /* \"#utility.yul\":2524:2528   */\n      0x20\n        /* \"#utility.yul\":2516:2522   */\n      dup7\n        /* \"#utility.yul\":2512:2529   */\n      add\n        /* \"#utility.yul\":2464:2543   */\n      tag_27\n      jump\t// in\n    tag_84:\n        /* \"#utility.yul\":2455:2543   */\n      swap2\n      pop\n        /* \"#utility.yul\":2271:2549   */\n      pop\n        /* \"#utility.yul\":2209:2549   */\n      swap3\n      swap2\n      pop\n      pop\n      jump\t// out\n        /* \"#utility.yul\":2555:2632   */\n    tag_29:\n        /* \"#utility.yul\":2592:2599   */\n      0x00\n        /* \"#utility.yul\":2621:2626   */\n      dup2\n        /* \"#utility.yul\":2610:2626   */\n      swap1\n      pop\n        /* \"#utility.yul\":2555:2632   */\n      swap2\n      swap1\n      pop\n      jump\t// out\n        /* \"#utility.yul\":2638:2760   */\n    tag_30:\n        /* \"#utility.yul\":2711:2735   */\n      tag_87\n        /* \"#utility.yul\":2729:2734   */\n      dup2\n        /* \"#utility.yul\":2711:2735   */\n      tag_29\n      jump\t// in\n    tag_87:\n        /* \"#utility.yul\":2704:2709   */\n      dup2\n        /* \"#utility.yul\":2701:2736   */\n      eq\n        /* \"#utility.yul\":2691:2754   */\n      tag_88\n      jumpi\n        /* \"#utility.yul\":2750:2751   */\n      0x00\n        /* \"#utility.yul\":2747:2748   */\n      dup1\n        /* \"#utility.yul\":2740:2752   */\n      revert\n        /* \"#utility.yul\":2691:2754   */\n    tag_88:\n        /* \"#utility.yul\":2638:2760   */\n      pop\n      jump\t// out\n        /* \"#utility.yul\":2766:2905   */\n    tag_31:\n        /* \"#utility.yul\":2812:2817   */\n      0x00\n        /* \"#utility.yul\":2850:2856   */\n      dup2\n        /* \"#utility.yul\":2837:2857   */\n      calldataload\n        /* \"#utility.yul\":2828:2857   */\n      swap1\n      pop\n        /* \"#utility.yul\":2866:2899   */\n      tag_90\n        /* \"#utility.yul\":2893:2898   */\n      dup2\n        /* \"#utility.yul\":2866:2899   */\n      tag_30\n      jump\t// in\n    tag_90:\n        /* \"#utility.yul\":2766:2905   */\n      swap3\n      swap2\n      pop\n      pop\n      jump\t// out\n        /* \"#utility.yul\":2911:3890   */\n    tag_6:\n        /* \"#utility.yul\":3008:3014   */\n      0x00\n        /* \"#utility.yul\":3016:3022   */\n      dup1\n        /* \"#utility.yul\":3024:3030   */\n      0x00\n        /* \"#utility.yul\":3073:3075   */\n      0x60\n        /* \"#utility.yul\":3061:3070   */\n      dup5\n        /* \"#utility.yul\":3052:3059   */\n      dup7\n        /* \"#utility.yul\":3048:3071   */\n      sub\n        /* \"#utility.yul\":3044:3076   */\n      slt\n        /* \"#utility.yul\":3041:3160   */\n      iszero\n      tag_92\n      jumpi\n        /* \"#utility.yul\":3079:3158   */\n      tag_93\n      tag_17\n      jump\t// in\n    tag_93:\n        /* \"#utility.yul\":3041:3160   */\n    tag_92:\n        /* \"#utility.yul\":3227:3228   */\n      0x00\n        /* \"#utility.yul\":3216:3225   */\n      dup5\n        /* \"#utility.yul\":3212:3229   */\n      add\n        /* \"#utility.yul\":3199:3230   */\n      calldataload\n        /* \"#utility.yul\":3257:3275   */\n      0xffffffffffffffff\n        /* \"#utility.yul\":3249:3255   */\n      dup2\n        /* \"#utility.yul\":3246:3276   */\n      gt\n        /* \"#utility.yul\":3243:3360   */\n      iszero\n      tag_94\n      jumpi\n        /* \"#utility.yul\":3279:3358   */\n      tag_95\n      tag_18\n      jump\t// in\n    tag_95:\n        /* \"#utility.yul\":3243:3360   */\n    tag_94:\n        /* \"#utility.yul\":3384:3447   */\n      tag_96\n        /* \"#utility.yul\":3439:3446   */\n      dup7\n        /* \"#utility.yul\":3430:3436   */\n      dup3\n        /* \"#utility.yul\":3419:3428   */\n      dup8\n        /* \"#utility.yul\":3415:3437   */\n      add\n        /* \"#utility.yul\":3384:3447   */\n      tag_28\n      jump\t// in\n    tag_96:\n        /* \"#utility.yul\":3374:3447   */\n      swap4\n      pop\n        /* \"#utility.yul\":3170:3457   */\n      pop\n        /* \"#utility.yul\":3524:3526   */\n      0x20\n        /* \"#utility.yul\":3513:3522   */\n      dup5\n        /* \"#utility.yul\":3509:3527   */\n      add\n        /* \"#utility.yul\":3496:3528   */\n      calldataload\n        /* \"#utility.yul\":3555:3573   */\n      0xffffffffffffffff\n        /* \"#utility.yul\":3547:3553   */\n      dup2\n        /* \"#utility.yul\":3544:3574   */\n      gt\n        /* \"#utility.yul\":3541:3658   */\n      iszero\n      tag_97\n      jumpi\n        /* \"#utility.yul\":3577:3656   */\n      tag_98\n      tag_18\n      jump\t// in\n    tag_98:\n        /* \"#utility.yul\":3541:3658   */\n    tag_97:\n        /* \"#utility.yul\":3682:3745   */\n      tag_99\n        /* \"#utility.yul\":3737:3744   */\n      dup7\n        /* \"#utility.yul\":3728:3734   */\n      dup3\n        /* \"#utility.yul\":3717:3726   */\n      dup8\n        /* \"#utility.yul\":3713:3735   */\n      add\n        /* \"#utility.yul\":3682:3745   */\n      tag_28\n      jump\t// in\n    tag_99:\n        /* \"#utility.yul\":3672:3745   */\n      swap3\n      pop\n        /* \"#utility.yul\":3467:3755   */\n      pop\n        /* \"#utility.yul\":3794:3796   */\n      0x40\n        /* \"#utility.yul\":3820:3873   */\n      tag_100\n        /* \"#utility.yul\":3865:3872   */\n      dup7\n        /* \"#utility.yul\":3856:3862   */\n      dup3\n        /* \"#utility.yul\":3845:3854   */\n      dup8\n        /* \"#utility.yul\":3841:3863   */\n      add\n        /* \"#utility.yul\":3820:3873   */\n      tag_31\n      jump\t// in\n    tag_100:\n        /* \"#utility.yul\":3810:3873   */\n      swap2\n      pop\n        /* \"#utility.yul\":3765:3883   */\n      pop\n        /* \"#utility.yul\":2911:3890   */\n      swap3\n      pop\n      swap3\n      pop\n      swap3\n      jump\t// out\n        /* \"#utility.yul\":3896:3995   */\n    tag_32:\n        /* \"#utility.yul\":3948:3954   */\n      0x00\n        /* \"#utility.yul\":3982:3987   */\n      dup2\n        /* \"#utility.yul\":3976:3988   */\n      mload\n        /* \"#utility.yul\":3966:3988   */\n      swap1\n      pop\n        /* \"#utility.yul\":3896:3995   */\n      swap2\n      swap1\n      pop\n      jump\t// out\n        /* \"#utility.yul\":4001:4181   */\n    tag_33:\n        /* \"#utility.yul\":4049:4126   */\n      0x4e487b7100000000000000000000000000000000000000000000000000000000\n        /* \"#utility.yul\":4046:4047   */\n      0x00\n        /* \"#utility.yul\":4039:4127   */\n      mstore\n        /* \"#utility.yul\":4146:4150   */\n      0x22\n        /* \"#utility.yul\":4143:4144   */\n      0x04\n        /* \"#utility.yul\":4136:4151   */\n      mstore\n        /* \"#utility.yul\":4170:4174   */\n      0x24\n        /* \"#utility.yul\":4167:4168   */\n      0x00\n        /* \"#utility.yul\":4160:4175   */\n      revert\n        /* \"#utility.yul\":4187:4507   */\n    tag_34:\n        /* \"#utility.yul\":4231:4237   */\n      0x00\n        /* \"#utility.yul\":4268:4269   */\n      0x02\n        /* \"#utility.yul\":4262:4266   */\n      dup3\n        /* \"#utility.yul\":4258:4270   */\n      div\n        /* \"#utility.yul\":4248:4270   */\n      swap1\n      pop\n        /* \"#utility.yul\":4315:4316   */\n      0x01\n        /* \"#utility.yul\":4309:4313   */\n      dup3\n        /* \"#utility.yul\":4305:4317   */\n      and\n        /* \"#utility.yul\":4336:4354   */\n      dup1\n        /* \"#utility.yul\":4326:4407   */\n      tag_104\n      jumpi\n        /* \"#utility.yul\":4392:4396   */\n      0x7f\n        /* \"#utility.yul\":4384:4390   */\n      dup3\n        /* \"#utility.yul\":4380:4397   */\n      and\n        /* \"#utility.yul\":4370:4397   */\n      swap2\n      pop\n        /* \"#utility.yul\":4326:4407   */\n    tag_104:\n        /* \"#utility.yul\":4454:4456   */\n      0x20\n        /* \"#utility.yul\":4446:4452   */\n      dup3\n        /* \"#utility.yul\":4443:4457   */\n      lt\n        /* \"#utility.yul\":4423:4441   */\n      dup2\n        /* \"#utility.yul\":4420:4458   */\n      sub\n        /* \"#utility.yul\":4417:4501   */\n      tag_105\n      jumpi\n        /* \"#utility.yul\":4473:4491   */\n      tag_106\n      tag_33\n      jump\t// in\n    tag_106:\n        /* \"#utility.yul\":4417:4501   */\n    tag_105:\n        /* \"#utility.yul\":4238:4507   */\n      pop\n        /* \"#utility.yul\":4187:4507   */\n      swap2\n      swap1\n      pop\n      jump\t// out\n        /* \"#utility.yul\":4513:4654   */\n    tag_35:\n        /* \"#utility.yul\":4562:4566   */\n      0x00\n        /* \"#utility.yul\":4585:4588   */\n      dup2\n        /* \"#utility.yul\":4577:4588   */\n      swap1\n      pop\n        /* \"#utility.yul\":4608:4611   */\n      dup2\n        /* \"#utility.yul\":4605:4606   */\n      0x00\n        /* \"#utility.yul\":4598:4612   */\n      mstore\n        /* \"#utility.yul\":4642:4646   */\n      0x20\n        /* \"#utility.yul\":4639:4640   */\n      0x00\n        /* \"#utility.yul\":4629:4647   */\n      keccak256\n        /* \"#utility.yul\":4621:4647   */\n      swap1\n      pop\n        /* \"#utility.yul\":4513:4654   */\n      swap2\n      swap1\n      pop\n      jump\t// out\n        /* \"#utility.yul\":4660:4753   */\n    tag_36:\n        /* \"#utility.yul\":4697:4703   */\n      0x00\n        /* \"#utility.yul\":4744:4746   */\n      0x20\n        /* \"#utility.yul\":4739:4741   */\n      0x1f\n        /* \"#utility.yul\":4732:4737   */\n      dup4\n        /* \"#utility.yul\":4728:4742   */\n      add\n        /* \"#utility.yul\":4724:4747   */\n      div\n        /* \"#utility.yul\":4714:4747   */\n      swap1\n      pop\n        /* \"#utility.yul\":4660:4753   */\n      swap2\n      swap1\n      pop\n      jump\t// out\n        /* \"#utility.yul\":4759:4866   */\n    tag_37:\n        /* \"#utility.yul\":4803:4811   */\n      0x00\n        /* \"#utility.yul\":4853:4858   */\n      dup3\n        /* \"#utility.yul\":4847:4851   */\n      dup3\n        /* \"#utility.yul\":4843:4859   */\n      shl\n        /* \"#utility.yul\":4822:4859   */\n      swap1\n      pop\n        /* \"#utility.yul\":4759:4866   */\n      swap3\n      swap2\n      pop\n      pop\n      jump\t// out\n        /* \"#utility.yul\":4872:5265   */\n    tag_38:\n        /* \"#utility.yul\":4941:4947   */\n      0x00\n        /* \"#utility.yul\":4991:4992   */\n      0x08\n        /* \"#utility.yul\":4979:4989   */\n      dup4\n        /* \"#utility.yul\":4975:4993   */\n      mul\n        /* \"#utility.yul\":5014:5111   */\n      tag_111\n        /* \"#utility.yul\":5044:5110   */\n      0xffffffffffffffffffffffffffffffffffffffffffffffffffffffffffffffff\n        /* \"#utility.yul\":5033:5042   */\n      dup3\n        /* \"#utility.yul\":5014:5111   */\n      tag_37\n      jump\t// in\n    tag_111:\n        /* \"#utility.yul\":5132:5171   */\n      tag_112\n        /* \"#utility.yul\":5162:5170   */\n      dup7\n        /* \"#utility.yul\":5151:5160   */\n      dup4\n        /* \"#utility.yul\":5132:5171   */\n      tag_37\n      jump\t// in\n    tag_112:\n        /* \"#utility.yul\":5120:5171   */\n      swap6\n      pop\n        /* \"#utility.yul\":5204:5208   */\n      dup1\n        /* \"#utility.yul\":5200:5209   */\n      not\n        /* \"#utility.yul\":5193:5198   */\n      dup5\n        /* \"#utility.yul\":5189:5210   */\n      and\n        /* \"#utility.yul\":5180:5210   */\n      swap4\n      pop\n        /* \"#utility.yul\":5253:5257   */\n      dup1\n        /* \"#utility.yul\":5243:5251   */\n      dup7\n        /* \"#utility.yul\":5239:5258   */\n      and\n        /* \"#utility.yul\":5232:5237   */\n      dup5\n        /* \"#utility.yul\":5229:5259   */\n      or\n        /* \"#utility.yul\":5219:5259   */\n      swap3\n      pop\n        /* \"#utility.yul\":4948:5265   */\n      pop\n      pop\n        /* \"#utility.yul\":4872:5265   */\n      swap4\n      swap3\n      pop\n      pop\n      pop\n      jump\t// out\n        /* \"#utility.yul\":5271:5331   */\n    tag_39:\n        /* \"#utility.yul\":5299:5302   */\n      0x00\n        /* \"#utility.yul\":5320:5325   */\n      dup2\n        /* \"#utility.yul\":5313:5325   */\n      swap1\n      pop\n        /* \"#utility.yul\":5271:5331   */\n      swap2\n      swap1\n      pop\n      jump\t// out\n        /* \"#utility.yul\":5337:5479   */\n    tag_40:\n        /* \"#utility.yul\":5387:5396   */\n      0x00\n        /* \"#utility.yul\":5420:5473   */\n      tag_115\n        /* \"#utility.yul\":5438:5472   */\n      tag_116\n        /* \"#utility.yul\":5447:5471   */\n      tag_117\n        /* \"#utility.yul\":5465:5470   */\n      dup5\n        /* \"#utility.yul\":5447:5471   */\n      tag_29\n      jump\t// in\n    tag_117:\n        /* \"#utility.yul\":5438:5472   */\n      tag_39\n      jump\t// in\n    tag_116:\n        /* \"#utility.yul\":5420:5473   */\n      tag_29\n      jump\t// in\n    tag_115:\n        /* \"#utility.yul\":5407:5473   */\n      swap1\n      pop\n        /* \"#utility.yul\":5337:5479   */\n      swap2\n      swap1\n      pop\n      jump\t// out\n        /* \"#utility.yul\":5485:5560   */\n    tag_41:\n        /* \"#utility.yul\":5528:5531   */\n      0x00\n        /* \"#utility.yul\":5549:5554   */\n      dup2\n        /* \"#utility.yul\":5542:5554   */\n      swap1\n      pop\n        /* \"#utility.yul\":5485:5560   */\n      swap2\n      swap1\n      pop\n      jump\t// out\n        /* \"#utility.yul\":5566:5835   */\n    tag_42:\n        /* \"#utility.yul\":5676:5715   */\n      tag_120\n        /* \"#utility.yul\":5707:5714   */\n      dup4\n        /* \"#utility.yul\":5676:5715   */\n      tag_40\n      jump\t// in\n    tag_120:\n        /* \"#utility.yul\":5737:5828   */\n      tag_121\n        /* \"#utility.yul\":5786:5827   */\n      tag_122\n        /* \"#utility.yul\":5810:5826   */\n      dup3\n        /* \"#utility.yul\":5786:5827   */\n      tag_41\n      jump\t// in\n    tag_122:\n        /* \"#utility.yul\":5778:5784   */\n      dup5\n        /* \"#utility.yul\":5771:5775   */\n      dup5\n        /* \"#utility.yul\":5765:5776   */\n      sload\n        /* \"#utility.yul\":5737:5828   */\n      tag_38\n      jump\t// in\n    tag_121:\n        /* \"#utility.yul\":5731:5735   */\n      dup3\n        /* \"#utility.yul\":5724:5829   */\n      sstore\n        /* \"#utility.yul\":5642:5835   */\n      pop\n        /* \"#utility.yul\":5566:5835   */\n      pop\n      pop\n      pop\n      jump\t// out\n        /* \"#utility.yul\":5841:5914   */\n    tag_43:\n        /* \"#utility.yul\":5886:5889   */\n      0x00\n        /* \"#utility.yul\":5841:5914   */\n      swap1\n      jump\t// out\n        /* \"#utility.yul\":5920:6109   */\n    tag_44:\n        /* \"#utility.yul\":5997:6029   */\n      tag_125\n      tag_43\n      jump\t// in\n    tag_125:\n        /* \"#utility.yul\":6038:6103   */\n      tag_126\n        /* \"#utility.yul\":6096:6102   */\n      dup2\n        /* \"#utility.yul\":6088:6094   */\n      dup5\n        /* \"#utility.yul\":6082:6086   */\n      dup5\n        /* \"#utility.yul\":6038:6103   */\n      tag_42\n      jump\t// in\n    tag_126:\n        /* \"#utility.yul\":5973:6109   */\n      pop\n        /* \"#utility.yul\":5920:6109   */\n      pop\n      pop\n      jump\t// out\n        /* \"#utility.yul\":6115:6301   */\n    tag_45:\n        /* \"#utility.yul\":6175:6295   */\n    tag_128:\n        /* \"#utility.yul\":6192:6195   */\n      dup2\n        /* \"#utility.yul\":6185:6190   */\n      dup2\n        /* \"#utility.yul\":6182:6196   */\n      lt\n        /* \"#utility.yul\":6175:6295   */\n      iszero\n      tag_130\n      jumpi\n        /* \"#utility.yul\":6246:6285   */\n      tag_131\n        /* \"#utility.yul\":6283:6284   */\n      0x00\n        /* \"#utility.yul\":6276:6281   */\n      dup3\n        /* \"#utility.yul\":6246:6285   */\n      tag_44\n      jump\t// in\n    tag_131:\n        /* \"#utility.yul\":6219:6220   */\n      0x01\n        /* \"#utility.yul\":6212:6217   */\n      dup2\n        /* \"#utility.yul\":6208:6221   */\n      add\n        /* \"#utility.yul\":6199:6221   */\n      swap1\n      pop\n        /* \"#utility.yul\":6175:6295   */\n      jump(tag_128)\n    tag_130:\n        /* \"#utility.yul\":6115:6301   */\n      pop\n      pop\n      jump\t// out\n        /* \"#utility.yul\":6307:6850   */\n    tag_46:\n        /* \"#utility.yul\":6408:6410   */\n      0x1f\n        /* \"#utility.yul\":6403:6406   */\n      dup3\n        /* \"#utility.yul\":6400:6411   */\n      gt\n        /* \"#utility.yul\":6397:6843   */\n      iszero\n      tag_133\n      jumpi\n        /* \"#utility.yul\":6442:6480   */\n      tag_134\n        /* \"#utility.yul\":6474:6479   */\n      dup2\n        /* \"#utility.yul\":6442:6480   */\n      tag_35\n      jump\t// in\n    tag_134:\n        /* \"#utility.yul\":6526:6555   */\n      tag_135\n        /* \"#utility.yul\":6544:6554   */\n      dup5\n        /* \"#utility.yul\":6526:6555   */\n      tag_36\n      jump\t// in\n    tag_135:\n        /* \"#utility.yul\":6516:6524   */\n      dup2\n        /* \"#utility.yul\":6512:6556   */\n      add\n        /* \"#utility.yul\":6709:6711   */\n      0x20\n        /* \"#utility.yul\":6697:6707   */\n      dup6\n        /* \"#utility.yul\":6694:6712   */\n      lt\n        /* \"#utility.yul\":6691:6740   */\n      iszero\n      tag_136\n      jumpi\n        /* \"#utility.yul\":6730:6738   */\n      dup2\n        /* \"#utility.yul\":6715:6738   */\n      swap1\n      pop\n        /* \"#utility.yul\":6691:6740   */\n    tag_136:\n        /* \"#utility.yul\":6753:6833   */\n      tag_137\n        /* \"#utility.yul\":6809:6831   */\n      tag_138\n        /* \"#utility.yul\":6827:6830   */\n      dup6\n        /* \"#utility.yul\":6809:6831   */\n      tag_36\n      jump\t// in\n    tag_138:\n        /* \"#utility.yul\":6799:6807   */\n      dup4\n        /* \"#utility.yul\":6795:6832   */\n      add\n        /* \"#utility.yul\":6782:6793   */\n      dup3\n        /* \"#utility.yul\":6753:6833   */\n      tag_45\n      jump\t// in\n    tag_137:\n        /* \"#utility.yul\":6412:6843   */\n      pop\n      pop\n        /* \"#utility.yul\":6397:6843   */\n    tag_133:\n        /* \"#utility.yul\":6307:6850   */\n      pop\n      pop\n      pop\n      jump\t// out\n        /* \"#utility.yul\":6856:6973   */\n    tag_47:\n        /* \"#utility.yul\":6910:6918   */\n      0x00\n        /* \"#utility.yul\":6960:6965   */\n      dup3\n        /* \"#utility.yul\":6954:6958   */\n      dup3\n        /* \"#utility.yul\":6950:6966   */\n      shr\n        /* \"#utility.yul\":6929:6966   */\n      swap1\n      pop\n        /* \"#utility.yul\":6856:6973   */\n      swap3\n      swap2\n      pop\n      pop\n      jump\t// out\n        /* \"#utility.yul\":6979:7148   */\n    tag_48:\n        /* \"#utility.yul\":7023:7029   */\n      0x00\n        /* \"#utility.yul\":7056:7107   */\n      tag_141\n        /* \"#utility.yul\":7104:7105   */\n      0x00\n        /* \"#utility.yul\":7100:7106   */\n      not\n        /* \"#utility.yul\":7092:7097   */\n      dup5\n        /* \"#utility.yul\":7089:7090   */\n      0x08\n        /* \"#utility.yul\":7085:7098   */\n      mul\n        /* \"#utility.yul\":7056:7107   */\n      tag_47\n      jump\t// in\n    tag_141:\n        /* \"#utility.yul\":7052:7108   */\n      not\n        /* \"#utility.yul\":7137:7141   */\n      dup1\n        /* \"#utility.yul\":7131:7135   */\n      dup4\n        /* \"#utility.yul\":7127:7142   */\n      and\n        /* \"#utility.yul\":7117:7142   */\n      swap2\n      pop\n        /* \"#utility.yul\":7030:7148   */\n      pop\n        /* \"#utility.yul\":6979:7148   */\n      swap3\n      swap2\n      pop\n      pop\n      jump\t// out\n        /* \"#utility.yul\":7153:7448   */\n    tag_49:\n        /* \"#utility.yul\":7229:7233   */\n      0x00\n        /* \"#utility.yul\":7375:7404   */\n      tag_143\n        /* \"#utility.yul\":7400:7403   */\n      dup4\n        /* \"#utility.yul\":7394:7398   */\n      dup4\n        /* \"#utility.yul\":7375:7404   */\n      tag_48\n      jump\t// in\n    tag_143:\n        /* \"#utility.yul\":7367:7404   */\n      swap2\n      pop\n        /* \"#utility.yul\":7437:7440   */\n      dup3\n        /* \"#utility.yul\":7434:7435   */\n      0x02\n        /* \"#utility.yul\":7430:7441   */\n      mul\n        /* \"#utility.yul\":7424:7428   */\n      dup3\n        /* \"#utility.yul\":7421:7442   */\n      or\n        /* \"#utility.yul\":7413:7442   */\n      swap1\n      pop\n        /* \"#utility.yul\":7153:7448   */\n      swap3\n      swap2\n      pop\n      pop\n      jump\t// out\n        /* \"#utility.yul\":7453:8848   */\n    tag_10:\n        /* \"#utility.yul\":7570:7607   */\n      tag_145\n        /* \"#utility.yul\":7603:7606   */\n      dup3\n        /* \"#utility.yul\":7570:7607   */\n      tag_32\n      jump\t// in\n    tag_145:\n        /* \"#utility.yul\":7672:7690   */\n      0xffffffffffffffff\n        /* \"#utility.yul\":7664:7670   */\n      dup2\n        /* \"#utility.yul\":7661:7691   */\n      gt\n        /* \"#utility.yul\":7658:7714   */\n      iszero\n      tag_146\n      jumpi\n        /* \"#utility.yul\":7694:7712   */\n      tag_147\n      tag_22\n      jump\t// in\n    tag_147:\n        /* \"#utility.yul\":7658:7714   */\n    tag_146:\n        /* \"#utility.yul\":7738:7776   */\n      tag_148\n        /* \"#utility.yul\":7770:7774   */\n      dup3\n        /* \"#utility.yul\":7764:7775   */\n      sload\n        /* \"#utility.yul\":7738:7776   */\n      tag_34\n      jump\t// in\n    tag_148:\n        /* \"#utility.yul\":7823:7890   */\n      tag_149\n        /* \"#utility.yul\":7883:7889   */\n      dup3\n        /* \"#utility.yul\":7875:7881   */\n      dup3\n        /* \"#utility.yul\":7869:7873   */\n      dup6\n        /* \"#utility.yul\":7823:7890   */\n      tag_46\n      jump\t// in\n    tag_149:\n        /* \"#utility.yul\":7917:7918   */\n      0x00\n        /* \"#utility.yul\":7941:7945   */\n      0x20\n        /* \"#utility.yul\":7928:7945   */\n      swap1\n      pop\n        /* \"#utility.yul\":7973:7975   */\n      0x1f\n        /* \"#utility.yul\":7965:7971   */\n      dup4\n        /* \"#utility.yul\":7962:7976   */\n      gt\n        /* \"#utility.yul\":7990:7991   */\n      0x01\n        /* \"#utility.yul\":7985:8603   */\n      dup2\n      eq\n      tag_151\n      jumpi\n        /* \"#utility.yul\":8647:8648   */\n      0x00\n        /* \"#utility.yul\":8664:8670   */\n      dup5\n        /* \"#utility.yul\":8661:8738   */\n      iszero\n      tag_152\n      jumpi\n        /* \"#utility.yul\":8713:8722   */\n      dup3\n        /* \"#utility.yul\":8708:8711   */\n      dup8\n        /* \"#utility.yul\":8704:8723   */\n      add\n        /* \"#utility.yul\":8698:8724   */\n      mload\n        /* \"#utility.yul\":8689:8724   */\n      swap1\n      pop\n        /* \"#utility.yul\":8661:8738   */\n    tag_152:\n        /* \"#utility.yul\":8764:8831   */\n      tag_153\n        /* \"#utility.yul\":8824:8830   */\n      dup6\n        /* \"#utility.yul\":8817:8822   */\n      dup3\n        /* \"#utility.yul\":8764:8831   */\n      tag_49\n      jump\t// in\n    tag_153:\n        /* \"#utility.yul\":8758:8762   */\n      dup7\n        /* \"#utility.yul\":8751:8832   */\n      sstore\n        /* \"#utility.yul\":8620:8842   */\n      pop\n        /* \"#utility.yul\":7955:8842   */\n      jump(tag_150)\n        /* \"#utility.yul\":7985:8603   */\n    tag_151:\n        /* \"#utility.yul\":8037:8041   */\n      0x1f\n        /* \"#utility.yul\":8033:8042   */\n      not\n        /* \"#utility.yul\":8025:8031   */\n      dup5\n        /* \"#utility.yul\":8021:8043   */\n      and\n        /* \"#utility.yul\":8071:8108   */\n      tag_154\n        /* \"#utility.yul\":8103:8107   */\n      dup7\n        /* \"#utility.yul\":8071:8108   */\n      tag_35\n      jump\t// in\n    tag_154:\n        /* \"#utility.yul\":8130:8131   */\n      0x00\n        /* \"#utility.yul\":8144:8352   */\n    tag_155:\n        /* \"#utility.yul\":8158:8165   */\n      dup3\n        /* \"#utility.yul\":8155:8156   */\n      dup2\n        /* \"#utility.yul\":8152:8166   */\n      lt\n        /* \"#utility.yul\":8144:8352   */\n      iszero\n      tag_157\n      jumpi\n        /* \"#utility.yul\":8237:8246   */\n      dup5\n        /* \"#utility.yul\":8232:8235   */\n      dup10\n        /* \"#utility.yul\":8228:8247   */\n      add\n        /* \"#utility.yul\":8222:8248   */\n      mload\n        /* \"#utility.yul\":8214:8220   */\n      dup3\n        /* \"#utility.yul\":8207:8249   */\n      sstore\n        /* \"#utility.yul\":8288:8289   */\n      0x01\n        /* \"#utility.yul\":8280:8286   */\n      dup3\n        /* \"#utility.yul\":8276:8290   */\n      add\n        /* \"#utility.yul\":8266:8290   */\n      swap2\n      pop\n        /* \"#utility.yul\":8335:8337   */\n      0x20\n        /* \"#utility.yul\":8324:8333   */\n      dup6\n        /* \"#utility.yul\":8320:8338   */\n      add\n        /* \"#utility.yul\":8307:8338   */\n      swap5\n      pop\n        /* \"#utility.yul\":8181:8185   */\n      0x20\n        /* \"#utility.yul\":8178:8179   */\n      dup2\n        /* \"#utility.yul\":8174:8186   */\n      add\n        /* \"#utility.yul\":8169:8186   */\n      swap1\n      pop\n        /* \"#utility.yul\":8144:8352   */\n      jump(tag_155)\n    tag_157:\n        /* \"#utility.yul\":8380:8386   */\n      dup7\n        /* \"#utility.yul\":8371:8378   */\n      dup4\n        /* \"#utility.yul\":8368:8387   */\n      lt\n        /* \"#utility.yul\":8365:8544   */\n      iszero\n      tag_158\n      jumpi\n        /* \"#utility.yul\":8438:8447   */\n      dup5\n        /* \"#utility.yul\":8433:8436   */\n      dup10\n        /* \"#utility.yul\":8429:8448   */\n      add\n        /* \"#utility.yul\":8423:8449   */\n      mload\n        /* \"#utility.yul\":8481:8529   */\n      tag_159\n        /* \"#utility.yul\":8523:8527   */\n      0x1f\n        /* \"#utility.yul\":8515:8521   */\n      dup10\n        /* \"#utility.yul\":8511:8528   */\n      and\n        /* \"#utility.yul\":8500:8509   */\n      dup3\n        /* \"#utility.yul\":8481:8529   */\n      tag_48\n      jump\t// in\n    tag_159:\n        /* \"#utility.yul\":8473:8479   */\n      dup4\n        /* \"#utility.yul\":8466:8530   */\n      sstore\n        /* \"#utility.yul\":8388:8544   */\n      pop\n        /* \"#utility.yul\":8365:8544   */\n    tag_158:\n        /* \"#utility.yul\":8590:8591   */\n      0x01\n        /* \"#utility.yul\":8586:8587   */\n      0x02\n        /* \"#utility.yul\":8578:8584   */\n      dup9\n        /* \"#utility.yul\":8574:8588   */\n      mul\n        /* \"#utility.yul\":8570:8592   */\n      add\n        /* \"#utility.yul\":8564:8568   */\n      dup9\n        /* \"#utility.yul\":8557:8593   */\n      sstore\n        /* \"#utility.yul\":7992:8603   */\n      pop\n      pop\n      pop\n        /* \"#utility.yul\":7955:8842   */\n    tag_150:\n      pop\n        /* \"#utility.yul\":7545:8848   */\n      pop\n      pop\n      pop\n        /* \"#utility.yul\":7453:8848   */\n      pop\n      pop\n      jump\t// out\n        /* \"#utility.yul\":8854:9023   */\n    tag_50:\n        /* \"#utility.yul\":8938:8949   */\n      0x00\n        /* \"#utility.yul\":8972:8978   */\n      dup3\n        /* \"#utility.yul\":8967:8970   */\n      dup3\n        /* \"#utility.yul\":8960:8979   */\n      mstore\n        /* \"#utility.yul\":9012:9016   */\n      0x20\n        /* \"#utility.yul\":9007:9010   */\n      dup3\n        /* \"#utility.yul\":9003:9017   */\n      add\n        /* \"#utility.yul\":8988:9017   */\n      swap1\n      pop\n        /* \"#utility.yul\":8854:9023   */\n      swap3\n      swap2\n      pop\n      pop\n      jump\t// out\n        /* \"#utility.yul\":9029:9168   */\n    tag_51:\n        /* \"#utility.yul\":9118:9124   */\n      dup3\n        /* \"#utility.yul\":9113:9116   */\n      dup2\n        /* \"#utility.yul\":9108:9111   */\n      dup4\n        /* \"#utility.yul\":9102:9125   */\n      mcopy\n        /* \"#utility.yul\":9159:9160   */\n      0x00\n        /* \"#utility.yul\":9150:9156   */\n      dup4\n        /* \"#utility.yul\":9145:9148   */\n      dup4\n        /* \"#utility.yul\":9141:9157   */\n      add\n        /* \"#utility.yul\":9134:9161   */\n      mstore\n        /* \"#utility.yul\":9029:9168   */\n      pop\n      pop\n      pop\n      jump\t// out\n        /* \"#utility.yul\":9174:9551   */\n    tag_52:\n        /* \"#utility.yul\":9262:9265   */\n      0x00\n        /* \"#utility.yul\":9290:9329   */\n      tag_163\n        /* \"#utility.yul\":9323:9328   */\n      dup3\n        /* \"#utility.yul\":9290:9329   */\n      tag_32\n      jump\t// in\n    tag_163:\n        /* \"#utility.yul\":9345:9416   */\n      tag_164\n        /* \"#utility.yul\":9409:9415   */\n      dup2\n        /* \"#utility.yul\":9404:9407   */\n      dup6\n        /* \"#utility.yul\":9345:9416   */\n      tag_50\n      jump\t// in\n    tag_164:\n        /* \"#utility.yul\":9338:9416   */\n      swap4\n      pop\n        /* \"#utility.yul\":9425:9490   */\n      tag_165\n        /* \"#utility.yul\":9483:9489   */\n      dup2\n        /* \"#utility.yul\":9478:9481   */\n      dup6\n        /* \"#utility.yul\":9471:9475   */\n      0x20\n        /* \"#utility.yul\":9464:9469   */\n      dup7\n        /* \"#utility.yul\":9460:9476   */\n      add\n        /* \"#utility.yul\":9425:9490   */\n      tag_51\n      jump\t// in\n    tag_165:\n        /* \"#utility.yul\":9515:9544   */\n      tag_166\n        /* \"#utility.yul\":9537:9543   */\n      dup2\n        /* \"#utility.yul\":9515:9544   */\n      tag_21\n      jump\t// in\n    tag_166:\n        /* \"#utility.yul\":9510:9513   */\n      dup5\n        /* \"#utility.yul\":9506:9545   */\n      add\n        /* \"#utility.yul\":9499:9545   */\n      swap2\n      pop\n        /* \"#utility.yul\":9266:9551   */\n      pop\n        /* \"#utility.yul\":9174:9551   */\n      swap3\n      swap2\n      pop\n      pop\n      jump\t// out\n        /* \"#utility.yul\":9557:9675   */\n    tag_53:\n        /* \"#utility.yul\":9644:9668   */\n      tag_168\n        /* \"#utility.yul\":9662:9667   */\n      dup2\n        /* \"#utility.yul\":9644:9668   */\n      tag_29\n      jump\t// in\n    tag_168:\n        /* \"#utility.yul\":9639:9642   */\n      dup3\n        /* \"#utility.yul\":9632:9669   */\n      mstore\n        /* \"#utility.yul\":9557:9675   */\n      pop\n      pop\n      jump\t// out\n        /* \"#utility.yul\":9681:10214   */\n    tag_13:\n        /* \"#utility.yul\":9850:9854   */\n      0x00\n        /* \"#utility.yul\":9888:9890   */\n      0x60\n        /* \"#utility.yul\":9877:9886   */\n      dup3\n        /* \"#utility.yul\":9873:9891   */\n      add\n        /* \"#utility.yul\":9865:9891   */\n      swap1\n      pop\n        /* \"#utility.yul\":9937:9946   */\n      dup2\n        /* \"#utility.yul\":9931:9935   */\n      dup2\n        /* \"#utility.yul\":9927:9947   */\n      sub\n        /* \"#utility.yul\":9923:9924   */\n      0x00\n        /* \"#utility.yul\":9912:9921   */\n      dup4\n        /* \"#utility.yul\":9908:9925   */\n      add\n        /* \"#utility.yul\":9901:9948   */\n      mstore\n        /* \"#utility.yul\":9965:10043   */\n      tag_170\n        /* \"#utility.yul\":10038:10042   */\n      dup2\n        /* \"#utility.yul\":10029:10035   */\n      dup7\n        /* \"#utility.yul\":9965:10043   */\n      tag_52\n      jump\t// in\n    tag_170:\n        /* \"#utility.yul\":9957:10043   */\n      swap1\n      pop\n        /* \"#utility.yul\":10053:10125   */\n      tag_171\n        /* \"#utility.yul\":10121:10123   */\n      0x20\n        /* \"#utility.yul\":10110:10119   */\n      dup4\n        /* \"#utility.yul\":10106:10124   */\n      add\n        /* \"#utility.yul\":10097:10103   */\n      dup6\n        /* \"#utility.yul\":10053:10125   */\n      tag_53\n      jump\t// in\n    tag_171:\n        /* \"#utility.yul\":10135:10207   */\n      tag_172\n        /* \"#utility.yul\":10203:10205   */\n      0x40\n        /* \"#utility.yul\":10192:10201   */\n      dup4\n        /* \"#utility.yul\":10188:10206   */\n      add\n        /* \"#utility.yul\":10179:10185   */\n      dup5\n        /* \"#utility.yul\":10135:10207   */\n      tag_53\n      jump\t// in\n    tag_172:\n        /* \"#utility.yul\":9681:10214   */\n      swap5\n      swap4\n      pop\n      pop\n      pop\n      pop\n      jump\t// out\n        /* \"#utility.yul\":10220:10400   */\n    tag_54:\n        /* \"#utility.yul\":10268:10345   */\n      0x4e487b7100000000000000000000000000000000000000000000000000000000\n        /* \"#utility.yul\":10265:10266   */\n      0x00\n        /* \"#utility.yul\":10258:10346   */\n      mstore\n        /* \"#utility.yul\":10365:10369   */\n      0x11\n        /* \"#utility.yul\":10362:10363   */\n      0x04\n        /* \"#utility.yul\":10355:10370   */\n      mstore\n        /* \"#utility.yul\":10389:10393   */\n      0x24\n        /* \"#utility.yul\":10386:10387   */\n      0x00\n        /* \"#utility.yul\":10379:10394   */\n      revert\n        /* \"#utility.yul\":10406:10597   */\n    tag_15:\n        /* \"#utility.yul\":10446:10449   */\n      0x00\n        /* \"#utility.yul\":10465:10485   */\n      tag_175\n        /* \"#utility.yul\":10483:10484   */\n      dup3\n        /* \"#utility.yul\":10465:10485   */\n      tag_29\n      jump\t// in\n    tag_175:\n        /* \"#utility.yul\":10460:10485   */\n      swap2\n      pop\n        /* \"#utility.yul\":10499:10519   */\n      tag_176\n        /* \"#utility.yul\":10517:10518   */\n      dup4\n        /* \"#utility.yul\":10499:10519   */\n      tag_29\n      jump\t// in\n    tag_176:\n        /* \"#utility.yul\":10494:10519   */\n      swap3\n      pop\n        /* \"#utility.yul\":10542:10543   */\n      dup3\n        /* \"#utility.yul\":10539:10540   */\n      dup3\n        /* \"#utility.yul\":10535:10544   */\n      add\n        /* \"#utility.yul\":10528:10544   */\n      swap1\n      pop\n        /* \"#utility.yul\":10563:10566   */\n      dup1\n        /* \"#utility.yul\":10560:10561   */\n      dup3\n        /* \"#utility.yul\":10557:10567   */\n      gt\n        /* \"#utility.yul\":10554:10590   */\n      iszero\n      tag_177\n      jumpi\n        /* \"#utility.yul\":10570:10588   */\n      tag_178\n      tag_54\n      jump\t// in\n    tag_178:\n        /* \"#utility.yul\":10554:10590   */\n    tag_177:\n        /* \"#utility.yul\":10406:10597   */\n      swap3\n      swap2\n      pop\n      pop\n      jump\t// out\n\n    auxdata: 0xa26469706673582212209d7d41298fd52db0114b0022abd24001844fb4f6f5f271aea3f9494207b7d21d64736f6c63430008190033\n}\n",
				"bytecode": {
					"linkReferences": {},
					"object": "6080604052600180553480156012575f80fd5b5061074a806100205f395ff3fe608060405234801561000f575f80fd5b5060043610610029575f3560e01c80639cc8f1391461002d575b5f80fd5b610047600480360381019061004291906102b8565b610049565b005b825f8060015481526020019081526020015f205f01908161006a9190610544565b50815f8060015481526020019081526020015f20600101908161008d9190610544565b506001545f8060015481526020019081526020015f2060020181905550805f8060015481526020019081526020015f2060030181905550425f8060015481526020019081526020015f20600401819055507fb72ee84ef937eaea5b974fd7578aeb8437a4d8cd7a7062d03255206e0155b354836001544260405161011393929190610678565b60405180910390a16001805f82825461012c91906106e1565b92505081905550505050565b5f604051905090565b5f80fd5b5f80fd5b5f80fd5b5f80fd5b5f601f19601f8301169050919050565b7f4e487b71000000000000000000000000000000000000000000000000000000005f52604160045260245ffd5b61019782610151565b810181811067ffffffffffffffff821117156101b6576101b5610161565b5b80604052505050565b5f6101c8610138565b90506101d4828261018e565b919050565b5f67ffffffffffffffff8211156101f3576101f2610161565b5b6101fc82610151565b9050602081019050919050565b828183375f83830152505050565b5f610229610224846101d9565b6101bf565b9050828152602081018484840111156102455761024461014d565b5b610250848285610209565b509392505050565b5f82601f83011261026c5761026b610149565b5b813561027c848260208601610217565b91505092915050565b5f819050919050565b61029781610285565b81146102a1575f80fd5b50565b5f813590506102b28161028e565b92915050565b5f805f606084860312156102cf576102ce610141565b5b5f84013567ffffffffffffffff8111156102ec576102eb610145565b5b6102f886828701610258565b935050602084013567ffffffffffffffff81111561031957610318610145565b5b61032586828701610258565b9250506040610336868287016102a4565b9150509250925092565b5f81519050919050565b7f4e487b71000000000000000000000000000000000000000000000000000000005f52602260045260245ffd5b5f600282049050600182168061038e57607f821691505b6020821081036103a1576103a061034a565b5b50919050565b5f819050815f5260205f209050919050565b5f6020601f8301049050919050565b5f82821b905092915050565b5f600883026104037fffffffffffffffffffffffffffffffffffffffffffffffffffffffffffffffff826103c8565b61040d86836103c8565b95508019841693508086168417925050509392505050565b5f819050919050565b5f61044861044361043e84610285565b610425565b610285565b9050919050565b5f819050919050565b6104618361042e565b61047561046d8261044f565b8484546103d4565b825550505050565b5f90565b61048961047d565b610494818484610458565b505050565b5b818110156104b7576104ac5f82610481565b60018101905061049a565b5050565b601f8211156104fc576104cd816103a7565b6104d6846103b9565b810160208510156104e5578190505b6104f96104f1856103b9565b830182610499565b50505b505050565b5f82821c905092915050565b5f61051c5f1984600802610501565b1980831691505092915050565b5f610534838361050d565b9150826002028217905092915050565b61054d82610340565b67ffffffffffffffff81111561056657610565610161565b5b6105708254610377565b61057b8282856104bb565b5f60209050601f8311600181146105ac575f841561059a578287015190505b6105a48582610529565b86555061060b565b601f1984166105ba866103a7565b5f5b828110156105e1578489015182556001820191506020850194506020810190506105bc565b868310156105fe57848901516105fa601f89168261050d565b8355505b6001600288020188555050505b505050505050565b5f82825260208201905092915050565b8281835e5f83830152505050565b5f61063b82610340565b6106458185610613565b9350610655818560208601610623565b61065e81610151565b840191505092915050565b61067281610285565b82525050565b5f6060820190508181035f8301526106908186610631565b905061069f6020830185610669565b6106ac6040830184610669565b949350505050565b7f4e487b71000000000000000000000000000000000000000000000000000000005f52601160045260245ffd5b5f6106eb82610285565b91506106f683610285565b925082820190508082111561070e5761070d6106b4565b5b9291505056fea26469706673582212209d7d41298fd52db0114b0022abd24001844fb4f6f5f271aea3f9494207b7d21d64736f6c63430008190033",
					"opcodes": "PUSH1 0x80 PUSH1 0x40 MSTORE PUSH1 0x1 DUP1 SSTORE CALLVALUE DUP1 ISZERO PUSH1 0x12 JUMPI PUSH0 DUP1 REVERT JUMPDEST POP PUSH2 0x74A DUP1 PUSH2 0x20 PUSH0 CODECOPY PUSH0 RETURN INVALID PUSH1 0x80 PUSH1 0x40 MSTORE CALLVALUE DUP1 ISZERO PUSH2 0xF JUMPI PUSH0 DUP1 REVERT JUMPDEST POP PUSH1 0x4 CALLDATASIZE LT PUSH2 0x29 JUMPI PUSH0 CALLDATALOAD PUSH1 0xE0 SHR DUP1 PUSH4 0x9CC8F139 EQ PUSH2 0x2D JUMPI JUMPDEST PUSH0 DUP1 REVERT JUMPDEST PUSH2 0x47 PUSH1 0x4 DUP1 CALLDATASIZE SUB DUP2 ADD SWAP1 PUSH2 0x42 SWAP2 SWAP1 PUSH2 0x2B8 JUMP JUMPDEST PUSH2 0x49 JUMP JUMPDEST STOP JUMPDEST DUP3 PUSH0 DUP1 PUSH1 0x1 SLOAD DUP2 MSTORE PUSH1 0x20 ADD SWAP1 DUP2 MSTORE PUSH1 0x20 ADD PUSH0 KECCAK256 PUSH0 ADD SWAP1 DUP2 PUSH2 0x6A SWAP2 SWAP1 PUSH2 0x544 JUMP JUMPDEST POP DUP2 PUSH0 DUP1 PUSH1 0x1 SLOAD DUP2 MSTORE PUSH1 0x20 ADD SWAP1 DUP2 MSTORE PUSH1 0x20 ADD PUSH0 KECCAK256 PUSH1 0x1 ADD SWAP1 DUP2 PUSH2 0x8D SWAP2 SWAP1 PUSH2 0x544 JUMP JUMPDEST POP PUSH1 0x1 SLOAD PUSH0 DUP1 PUSH1 0x1 SLOAD DUP2 MSTORE PUSH1 0x20 ADD SWAP1 DUP2 MSTORE PUSH1 0x20 ADD PUSH0 KECCAK256 PUSH1 0x2 ADD DUP2 SWAP1 SSTORE POP DUP1 PUSH0 DUP1 PUSH1 0x1 SLOAD DUP2 MSTORE PUSH1 0x20 ADD SWAP1 DUP2 MSTORE PUSH1 0x20 ADD PUSH0 KECCAK256 PUSH1 0x3 ADD DUP2 SWAP1 SSTORE POP TIMESTAMP PUSH0 DUP1 PUSH1 0x1 SLOAD DUP2 MSTORE PUSH1 0x20 ADD SWAP1 DUP2 MSTORE PUSH1 0x20 ADD PUSH0 KECCAK256 PUSH1 0x4 ADD DUP2 SWAP1 SSTORE POP PUSH32 0xB72EE84EF937EAEA5B974FD7578AEB8437A4D8CD7A7062D03255206E0155B354 DUP4 PUSH1 0x1 SLOAD TIMESTAMP PUSH1 0x40 MLOAD PUSH2 0x113 SWAP4 SWAP3 SWAP2 SWAP1 PUSH2 0x678 JUMP JUMPDEST PUSH1 0x40 MLOAD DUP1 SWAP2 SUB SWAP1 LOG1 PUSH1 0x1 DUP1 PUSH0 DUP3 DUP3 SLOAD PUSH2 0x12C SWAP2 SWAP1 PUSH2 0x6E1 JUMP JUMPDEST SWAP3 POP POP DUP2 SWAP1 SSTORE POP POP POP POP JUMP JUMPDEST PUSH0 PUSH1 0x40 MLOAD SWAP1 POP SWAP1 JUMP JUMPDEST PUSH0 DUP1 REVERT JUMPDEST PUSH0 DUP1 REVERT JUMPDEST PUSH0 DUP1 REVERT JUMPDEST PUSH0 DUP1 REVERT JUMPDEST PUSH0 PUSH1 0x1F NOT PUSH1 0x1F DUP4 ADD AND SWAP1 POP SWAP2 SWAP1 POP JUMP JUMPDEST PUSH32 0x4E487B7100000000000000000000000000000000000000000000000000000000 PUSH0 MSTORE PUSH1 0x41 PUSH1 0x4 MSTORE PUSH1 0x24 PUSH0 REVERT JUMPDEST PUSH2 0x197 DUP3 PUSH2 0x151 JUMP JUMPDEST DUP2 ADD DUP2 DUP2 LT PUSH8 0xFFFFFFFFFFFFFFFF DUP3 GT OR ISZERO PUSH2 0x1B6 JUMPI PUSH2 0x1B5 PUSH2 0x161 JUMP JUMPDEST JUMPDEST DUP1 PUSH1 0x40 MSTORE POP POP POP JUMP JUMPDEST PUSH0 PUSH2 0x1C8 PUSH2 0x138 JUMP JUMPDEST SWAP1 POP PUSH2 0x1D4 DUP3 DUP3 PUSH2 0x18E JUMP JUMPDEST SWAP2 SWAP1 POP JUMP JUMPDEST PUSH0 PUSH8 0xFFFFFFFFFFFFFFFF DUP3 GT ISZERO PUSH2 0x1F3 JUMPI PUSH2 0x1F2 PUSH2 0x161 JUMP JUMPDEST JUMPDEST PUSH2 0x1FC DUP3 PUSH2 0x151 JUMP JUMPDEST SWAP1 POP PUSH1 0x20 DUP2 ADD SWAP1 POP SWAP2 SWAP1 POP JUMP JUMPDEST DUP3 DUP2 DUP4 CALLDATACOPY PUSH0 DUP4 DUP4 ADD MSTORE POP POP POP JUMP JUMPDEST PUSH0 PUSH2 0x229 PUSH2 0x224 DUP5 PUSH2 0x1D9 JUMP JUMPDEST PUSH2 0x1BF JUMP JUMPDEST SWAP1 POP DUP3 DUP2 MSTORE PUSH1 0x20 DUP2 ADD DUP5 DUP5 DUP5 ADD GT ISZERO PUSH2 0x245 JUMPI PUSH2 0x244 PUSH2 0x14D JUMP JUMPDEST JUMPDEST PUSH2 0x250 DUP5 DUP3 DUP6 PUSH2 0x209 JUMP JUMPDEST POP SWAP4 SWAP3 POP POP POP JUMP JUMPDEST PUSH0 DUP3 PUSH1 0x1F DUP4 ADD SLT PUSH2 0x26C JUMPI PUSH2 0x26B PUSH2 0x149 JUMP JUMPDEST JUMPDEST DUP2 CALLDATALOAD PUSH2 0x27C DUP5 DUP3 PUSH1 0x20 DUP7 ADD PUSH2 0x217 JUMP JUMPDEST SWAP2 POP POP SWAP3 SWAP2 POP POP JUMP JUMPDEST PUSH0 DUP2 SWAP1 POP SWAP2 SWAP1 POP JUMP JUMPDEST PUSH2 0x297 DUP2 PUSH2 0x285 JUMP JUMPDEST DUP2 EQ PUSH2 0x2A1 JUMPI PUSH0 DUP1 REVERT JUMPDEST POP JUMP JUMPDEST PUSH0 DUP2 CALLDATALOAD SWAP1 POP PUSH2 0x2B2 DUP2 PUSH2 0x28E JUMP JUMPDEST SWAP3 SWAP2 POP POP JUMP JUMPDEST PUSH0 DUP1 PUSH0 PUSH1 0x60 DUP5 DUP7 SUB SLT ISZERO PUSH2 0x2CF JUMPI PUSH2 0x2CE PUSH2 0x141 JUMP JUMPDEST JUMPDEST PUSH0 DUP5 ADD CALLDATALOAD PUSH8 0xFFFFFFFFFFFFFFFF DUP2 GT ISZERO PUSH2 0x2EC JUMPI PUSH2 0x2EB PUSH2 0x145 JUMP JUMPDEST JUMPDEST PUSH2 0x2F8 DUP7 DUP3 DUP8 ADD PUSH2 0x258 JUMP JUMPDEST SWAP4 POP POP PUSH1 0x20 DUP5 ADD CALLDATALOAD PUSH8 0xFFFFFFFFFFFFFFFF DUP2 GT ISZERO PUSH2 0x319 JUMPI PUSH2 0x318 PUSH2 0x145 JUMP JUMPDEST JUMPDEST PUSH2 0x325 DUP7 DUP3 DUP8 ADD PUSH2 0x258 JUMP JUMPDEST SWAP3 POP POP PUSH1 0x40 PUSH2 0x336 DUP7 DUP3 DUP8 ADD PUSH2 0x2A4 JUMP JUMPDEST SWAP2 POP POP SWAP3 POP SWAP3 POP SWAP3 JUMP JUMPDEST PUSH0 DUP2 MLOAD SWAP1 POP SWAP2 SWAP1 POP JUMP JUMPDEST PUSH32 0x4E487B7100000000000000000000000000000000000000000000000000000000 PUSH0 MSTORE PUSH1 0x22 PUSH1 0x4 MSTORE PUSH1 0x24 PUSH0 REVERT JUMPDEST PUSH0 PUSH1 0x2 DUP3 DIV SWAP1 POP PUSH1 0x1 DUP3 AND DUP1 PUSH2 0x38E JUMPI PUSH1 0x7F DUP3 AND SWAP2 POP JUMPDEST PUSH1 0x20 DUP3 LT DUP2 SUB PUSH2 0x3A1 JUMPI PUSH2 0x3A0 PUSH2 0x34A JUMP JUMPDEST JUMPDEST POP SWAP2 SWAP1 POP JUMP JUMPDEST PUSH0 DUP2 SWAP1 POP DUP2 PUSH0 MSTORE PUSH1 0x20 PUSH0 KECCAK256 SWAP1 POP SWAP2 SWAP1 POP JUMP JUMPDEST PUSH0 PUSH1 0x20 PUSH1 0x1F DUP4 ADD DIV SWAP1 POP SWAP2 SWAP1 POP JUMP JUMPDEST PUSH0 DUP3 DUP3 SHL SWAP1 POP SWAP3 SWAP2 POP POP JUMP JUMPDEST PUSH0 PUSH1 0x8 DUP4 MUL PUSH2 0x403 PUSH32 0xFFFFFFFFFFFFFFFFFFFFFFFFFFFFFFFFFFFFFFFFFFFFFFFFFFFFFFFFFFFFFFFF DUP3 PUSH2 0x3C8 JUMP JUMPDEST PUSH2 0x40D DUP7 DUP4 PUSH2 0x3C8 JUMP JUMPDEST SWAP6 POP DUP1 NOT DUP5 AND SWAP4 POP DUP1 DUP7 AND DUP5 OR SWAP3 POP POP POP SWAP4 SWAP3 POP POP POP JUMP JUMPDEST PUSH0 DUP2 SWAP1 POP SWAP2 SWAP1 POP JUMP JUMPDEST PUSH0 PUSH2 0x448 PUSH2 0x443 PUSH2 0x43E DUP5 PUSH2 0x285 JUMP JUMPDEST PUSH2 0x425 JUMP JUMPDEST PUSH2 0x285 JUMP JUMPDEST SWAP1 POP SWAP2 SWAP1 POP JUMP JUMPDEST PUSH0 DUP2 SWAP1 POP SWAP2 SWAP1 POP JUMP JUMPDEST PUSH2 0x461 DUP4 PUSH2 0x42E JUMP JUMPDEST PUSH2 0x475 PUSH2 0x46D DUP3 PUSH2 0x44F JUMP JUMPDEST DUP5 DUP5 SLOAD PUSH2 0x3D4 JUMP JUMPDEST DUP3 SSTORE POP POP POP POP JUMP JUMPDEST PUSH0 SWAP1 JUMP JUMPDEST PUSH2 0x489 PUSH2 0x47D JUMP JUMPDEST PUSH2 0x494 DUP2 DUP5 DUP5 PUSH2 0x458 JUMP JUMPDEST POP POP POP JUMP JUMPDEST JUMPDEST DUP2 DUP2 LT ISZERO PUSH2 0x4B7 JUMPI PUSH2 0x4AC PUSH0 DUP3 PUSH2 0x481 JUMP JUMPDEST PUSH1 0x1 DUP2 ADD SWAP1 POP PUSH2 0x49A JUMP JUMPDEST POP POP JUMP JUMPDEST PUSH1 0x1F DUP3 GT ISZERO PUSH2 0x4FC JUMPI PUSH2 0x4CD DUP2 PUSH2 0x3A7 JUMP JUMPDEST PUSH2 0x4D6 DUP5 PUSH2 0x3B9 JUMP JUMPDEST DUP2 ADD PUSH1 0x20 DUP6 LT ISZERO PUSH2 0x4E5 JUMPI DUP2 SWAP1 POP JUMPDEST PUSH2 0x4F9 PUSH2 0x4F1 DUP6 PUSH2 0x3B9 JUMP JUMPDEST DUP4 ADD DUP3 PUSH2 0x499 JUMP JUMPDEST POP POP JUMPDEST POP POP POP JUMP JUMPDEST PUSH0 DUP3 DUP3 SHR SWAP1 POP SWAP3 SWAP2 POP POP JUMP JUMPDEST PUSH0 PUSH2 0x51C PUSH0 NOT DUP5 PUSH1 0x8 MUL PUSH2 0x501 JUMP JUMPDEST NOT DUP1 DUP4 AND SWAP2 POP POP SWAP3 SWAP2 POP POP JUMP JUMPDEST PUSH0 PUSH2 0x534 DUP4 DUP4 PUSH2 0x50D JUMP JUMPDEST SWAP2 POP DUP3 PUSH1 0x2 MUL DUP3 OR SWAP1 POP SWAP3 SWAP2 POP POP JUMP JUMPDEST PUSH2 0x54D DUP3 PUSH2 0x340 JUMP JUMPDEST PUSH8 0xFFFFFFFFFFFFFFFF DUP2 GT ISZERO PUSH2 0x566 JUMPI PUSH2 0x565 PUSH2 0x161 JUMP JUMPDEST JUMPDEST PUSH2 0x570 DUP3 SLOAD PUSH2 0x377 JUMP JUMPDEST PUSH2 0x57B DUP3 DUP3 DUP6 PUSH2 0x4BB JUMP JUMPDEST PUSH0 PUSH1 0x20 SWAP1 POP PUSH1 0x1F DUP4 GT PUSH1 0x1 DUP2 EQ PUSH2 0x5AC JUMPI PUSH0 DUP5 ISZERO PUSH2 0x59A JUMPI DUP3 DUP8 ADD MLOAD SWAP1 POP JUMPDEST PUSH2 0x5A4 DUP6 DUP3 PUSH2 0x529 JUMP JUMPDEST DUP7 SSTORE POP PUSH2 0x60B JUMP JUMPDEST PUSH1 0x1F NOT DUP5 AND PUSH2 0x5BA DUP7 PUSH2 0x3A7 JUMP JUMPDEST PUSH0 JUMPDEST DUP3 DUP2 LT ISZERO PUSH2 0x5E1 JUMPI DUP5 DUP10 ADD MLOAD DUP3 SSTORE PUSH1 0x1 DUP3 ADD SWAP2 POP PUSH1 0x20 DUP6 ADD SWAP5 POP PUSH1 0x20 DUP2 ADD SWAP1 POP PUSH2 0x5BC JUMP JUMPDEST DUP7 DUP4 LT ISZERO PUSH2 0x5FE JUMPI DUP5 DUP10 ADD MLOAD PUSH2 0x5FA PUSH1 0x1F DUP10 AND DUP3 PUSH2 0x50D JUMP JUMPDEST DUP4 SSTORE POP JUMPDEST PUSH1 0x1 PUSH1 0x2 DUP9 MUL ADD DUP9 SSTORE POP POP POP JUMPDEST POP POP POP POP POP POP JUMP JUMPDEST PUSH0 DUP3 DUP3 MSTORE PUSH1 0x20 DUP3 ADD SWAP1 POP SWAP3 SWAP2 POP POP JUMP JUMPDEST DUP3 DUP2 DUP4 MCOPY PUSH0 DUP4 DUP4 ADD MSTORE POP POP POP JUMP JUMPDEST PUSH0 PUSH2 0x63B DUP3 PUSH2 0x340 JUMP JUMPDEST PUSH2 0x645 DUP2 DUP6 PUSH2 0x613 JUMP JUMPDEST SWAP4 POP PUSH2 0x655 DUP2 DUP6 PUSH1 0x20 DUP7 ADD PUSH2 0x623 JUMP JUMPDEST PUSH2 0x65E DUP2 PUSH2 0x151 JUMP JUMPDEST DUP5 ADD SWAP2 POP POP SWAP3 SWAP2 POP POP JUMP JUMPDEST PUSH2 0x672 DUP2 PUSH2 0x285 JUMP JUMPDEST DUP3 MSTORE POP POP JUMP JUMPDEST PUSH0 PUSH1 0x60 DUP3 ADD SWAP1 POP DUP2 DUP2 SUB PUSH0 DUP4 ADD MSTORE PUSH2 0x690 DUP2 DUP7 PUSH2 0x631 JUMP JUMPDEST SWAP1 POP PUSH2 0x69F PUSH1 0x20 DUP4 ADD DUP6 PUSH2 0x669 JUMP JUMPDEST PUSH2 0x6AC PUSH1 0x40 DUP4 ADD DUP5 PUSH2 0x669 JUMP JUMPDEST SWAP5 SWAP4 POP POP POP POP JUMP JUMPDEST PUSH32 0x4E487B7100000000000000000000000000000000000000000000000000000000 PUSH0 MSTORE PUSH1 0x11 PUSH1 0x4 MSTORE PUSH1 0x24 PUSH0 REVERT JUMPDEST PUSH0 PUSH2 0x6EB DUP3 PUSH2 0x285 JUMP JUMPDEST SWAP2 POP PUSH2 0x6F6 DUP4 PUSH2 0x285 JUMP JUMPDEST SWAP3 POP DUP3 DUP3 ADD SWAP1 POP DUP1 DUP3 GT ISZERO PUSH2 0x70E JUMPI PUSH2 0x70D PUSH2 0x6B4 JUMP JUMPDEST JUMPDEST SWAP3 SWAP2 POP POP JUMP INVALID LOG2 PUSH5 0x6970667358 0x22 SLT KECCAK256 SWAP14 PUSH30 0x41298FD52DB0114B0022ABD24001844FB4F6F5F271AEA3F9494207B7D21D PUSH5 0x736F6C6343 STOP ADDMOD NOT STOP CALLER "
				},
				"gasEstimates": {
					"creation": {
						"codeDepositCost": "373200",
						"executionCost": "22515",
						"totalCost": "395715"
					},
					"external": {
						"addStudent(string,string,uint256)": "infinite"
					}
				},
				"methodIdentifiers": {
					"addStudent(string,string,uint256)": "9cc8f139"
				}
			},
			"storageLayout": {
				"storage": [
					{
						"astId": 17,
						"contract": "Events.sol:Crud",
						"label": "StudentDB",
						"offset": 0,
						"slot": "0",
						"type": "t_mapping(t_uint256,t_struct(Student)12_storage)"
					},
					{
						"astId": 20,
						"contract": "Events.sol:Crud",
						"label": "rollnumber",
						"offset": 0,
						"slot": "1",
						"type": "t_uint256"
					}
				],
				"types": {
					"t_mapping(t_uint256,t_struct(Student)12_storage)": {
						"encoding": "mapping",
						"key": "t_uint256",
						"label": "mapping(uint256 => struct Crud.Student)",
						"numberOfBytes": "32",
						"value": "t_struct(Student)12_storage"
					},
					"t_string_storage": {
						"encoding": "bytes",
						"label": "string",
						"numberOfBytes": "32"
					},
					"t_struct(Student)12_storage": {
						"encoding": "inplace",
						"label": "struct Crud.Student",
						"members": [
							{
								"astId": 3,
								"contract": "Events.sol:Crud",
								"label": "name",
								"offset": 0,
								"slot": "0",
								"type": "t_string_storage"
							},
							{
								"astId": 5,
								"contract": "Events.sol:Crud",
								"label": "email",
								"offset": 0,
								"slot": "1",
								"type": "t_string_storage"
							},
							{
								"astId": 7,
								"contract": "Events.sol:Crud",
								"label": "rollnumber",
								"offset": 0,
								"slot": "2",
								"type": "t_uint256"
							},
							{
								"astId": 9,
								"contract": "Events.sol:Crud",
								"label": "contactnumber",
								"offset": 0,
								"slot": "3",
								"type": "t_uint256"
							},
							{
								"astId": 11,
								"contract": "Events.sol:Crud",
								"label": "timestamp",
								"offset": 0,
								"slot": "4",
								"type": "t_uint256"
							}
						],
						"numberOfBytes": "160"
					},
					"t_uint256": {
						"encoding": "inplace",
						"label": "uint256",
						"numberOfBytes": "32"
					}
				}
			},
			"userdoc": {
				"kind": "user",
				"methods": {},
				"version": 1
			}
		}
	}
}