{
	"SmFactory.sol": {
		"contract1": {
			"abi": [
				{
					"inputs": [
						{
							"internalType": "uint256",
							"name": "",
							"type": "uint256"
						}
					],
					"name": "arrayofContract",
					"outputs": [
						{
							"internalType": "contract contract2",
							"name": "",
							"type": "address"
						}
					],
					"stateMutability": "view",
					"type": "function"
				},
				{
					"inputs": [],
					"name": "calling",
					"outputs": [],
					"stateMutability": "nonpayable",
					"type": "function"
				}
			],
			"devdoc": {
				"kind": "dev",
				"methods": {},
				"version": 1
			},
			"evm": {
				"assembly": "    /* \"SmFactory.sol\":85:306  contract contract1 {... */\n  mstore(0x40, 0x80)\n  callvalue\n  dup1\n  iszero\n  tag_1\n  jumpi\n  0x00\n  dup1\n  revert\ntag_1:\n  pop\n  dataSize(sub_0)\n  dup1\n  dataOffset(sub_0)\n  0x00\n  codecopy\n  0x00\n  return\nstop\n\nsub_0: assembly {\n        /* \"SmFactory.sol\":85:306  contract contract1 {... */\n      mstore(0x40, 0x80)\n      callvalue\n      dup1\n      iszero\n      tag_1\n      jumpi\n      0x00\n      dup1\n      revert\n    tag_1:\n      pop\n      jumpi(tag_2, lt(calldatasize, 0x04))\n      shr(0xe0, calldataload(0x00))\n      dup1\n      0x2b823efe\n      eq\n      tag_3\n      jumpi\n      dup1\n      0x91be2bb3\n      eq\n      tag_4\n      jumpi\n    tag_2:\n      0x00\n      dup1\n      revert\n        /* \"SmFactory.sol\":156:297  function calling()... */\n    tag_3:\n      tag_5\n      tag_6\n      jump\t// in\n    tag_5:\n      stop\n        /* \"SmFactory.sol\":113:147  contract2[] public arrayofContract */\n    tag_4:\n      tag_7\n      0x04\n      dup1\n      calldatasize\n      sub\n      dup2\n      add\n      swap1\n      tag_8\n      swap2\n      swap1\n      tag_9\n      jump\t// in\n    tag_8:\n      tag_10\n      jump\t// in\n    tag_7:\n      mload(0x40)\n      tag_11\n      swap2\n      swap1\n      tag_12\n      jump\t// in\n    tag_11:\n      mload(0x40)\n      dup1\n      swap2\n      sub\n      swap1\n      return\n        /* \"SmFactory.sol\":156:297  function calling()... */\n    tag_6:\n        /* \"SmFactory.sol\":204:215  contract2 b */\n      0x00\n        /* \"SmFactory.sol\":218:233  new contract2() */\n      mload(0x40)\n      tag_14\n      swap1\n      tag_15\n      jump\t// in\n    tag_14:\n      mload(0x40)\n      dup1\n      swap2\n      sub\n      swap1\n      0x00\n      create\n      dup1\n      iszero\n      dup1\n      iszero\n      tag_16\n      jumpi\n      returndatasize\n      0x00\n      dup1\n      returndatacopy\n      revert(0x00, returndatasize)\n    tag_16:\n      pop\n        /* \"SmFactory.sol\":204:233  contract2 b = new contract2() */\n      swap1\n      pop\n        /* \"SmFactory.sol\":244:245  b */\n      dup1\n        /* \"SmFactory.sol\":244:253  b.testing */\n      0xffffffffffffffffffffffffffffffffffffffff\n      and\n      0x8d03b102\n        /* \"SmFactory.sol\":244:255  b.testing() */\n      mload(0x40)\n      dup2\n      0xffffffff\n      and\n      0xe0\n      shl\n      dup2\n      mstore\n      0x04\n      add\n      0x00\n      mload(0x40)\n      dup1\n      dup4\n      sub\n      dup2\n      dup7\n      gas\n      staticcall\n      iszero\n      dup1\n      iszero\n      tag_18\n      jumpi\n      returndatasize\n      0x00\n      dup1\n      returndatacopy\n      revert(0x00, returndatasize)\n    tag_18:\n      pop\n      pop\n      pop\n      pop\n      mload(0x40)\n      returndatasize\n      0x00\n      dup3\n      returndatacopy\n      returndatasize\n      not(0x1f)\n      0x1f\n      dup3\n      add\n      and\n      dup3\n      add\n      dup1\n      0x40\n      mstore\n      pop\n      dup2\n      add\n      swap1\n      tag_19\n      swap2\n      swap1\n      tag_20\n      jump\t// in\n    tag_19:\n      pop\n        /* \"SmFactory.sol\":266:281  arrayofContract */\n      0x00\n        /* \"SmFactory.sol\":287:288  b */\n      dup2\n        /* \"SmFactory.sol\":266:289  arrayofContract.push(b) */\n      swap1\n      dup1\n      0x01\n      dup2\n      sload\n      add\n      dup1\n      dup3\n      sstore\n      dup1\n      swap2\n      pop\n      pop\n      0x01\n      swap1\n      sub\n      swap1\n      0x00\n      mstore\n      keccak256(0x00, 0x20)\n      add\n      0x00\n      swap1\n      swap2\n      swap1\n      swap2\n      swap1\n      swap2\n      0x0100\n      exp\n      dup2\n      sload\n      dup2\n      0xffffffffffffffffffffffffffffffffffffffff\n      mul\n      not\n      and\n      swap1\n      dup4\n      0xffffffffffffffffffffffffffffffffffffffff\n      and\n      mul\n      or\n      swap1\n      sstore\n      pop\n        /* \"SmFactory.sol\":193:297  {... */\n      pop\n        /* \"SmFactory.sol\":156:297  function calling()... */\n      jump\t// out\n        /* \"SmFactory.sol\":113:147  contract2[] public arrayofContract */\n    tag_10:\n      0x00\n      dup2\n      dup2\n      sload\n      dup2\n      lt\n      tag_22\n      jumpi\n      0x00\n      dup1\n      revert\n    tag_22:\n      swap1\n      0x00\n      mstore\n      keccak256(0x00, 0x20)\n      add\n      0x00\n      swap2\n      pop\n      sload\n      swap1\n      0x0100\n      exp\n      swap1\n      div\n      0xffffffffffffffffffffffffffffffffffffffff\n      and\n      dup2\n      jump\t// out\n    tag_15:\n      dataSize(sub_0)\n      dup1\n      dataOffset(sub_0)\n      dup4\n      codecopy\n      add\n      swap1\n      jump\t// out\n        /* \"#utility.yul\":7:82   */\n    tag_24:\n        /* \"#utility.yul\":40:46   */\n      0x00\n        /* \"#utility.yul\":73:75   */\n      0x40\n        /* \"#utility.yul\":67:76   */\n      mload\n        /* \"#utility.yul\":57:76   */\n      swap1\n      pop\n        /* \"#utility.yul\":7:82   */\n      swap1\n      jump\t// out\n        /* \"#utility.yul\":88:205   */\n    tag_25:\n        /* \"#utility.yul\":197:198   */\n      0x00\n        /* \"#utility.yul\":194:195   */\n      dup1\n        /* \"#utility.yul\":187:199   */\n      revert\n        /* \"#utility.yul\":211:328   */\n    tag_26:\n        /* \"#utility.yul\":320:321   */\n      0x00\n        /* \"#utility.yul\":317:318   */\n      dup1\n        /* \"#utility.yul\":310:322   */\n      revert\n        /* \"#utility.yul\":334:411   */\n    tag_27:\n        /* \"#utility.yul\":371:378   */\n      0x00\n        /* \"#utility.yul\":400:405   */\n      dup2\n        /* \"#utility.yul\":389:405   */\n      swap1\n      pop\n        /* \"#utility.yul\":334:411   */\n      swap2\n      swap1\n      pop\n      jump\t// out\n        /* \"#utility.yul\":417:539   */\n    tag_28:\n        /* \"#utility.yul\":490:514   */\n      tag_52\n        /* \"#utility.yul\":508:513   */\n      dup2\n        /* \"#utility.yul\":490:514   */\n      tag_27\n      jump\t// in\n    tag_52:\n        /* \"#utility.yul\":483:488   */\n      dup2\n        /* \"#utility.yul\":480:515   */\n      eq\n        /* \"#utility.yul\":470:533   */\n      tag_53\n      jumpi\n        /* \"#utility.yul\":529:530   */\n      0x00\n        /* \"#utility.yul\":526:527   */\n      dup1\n        /* \"#utility.yul\":519:531   */\n      revert\n        /* \"#utility.yul\":470:533   */\n    tag_53:\n        /* \"#utility.yul\":417:539   */\n      pop\n      jump\t// out\n        /* \"#utility.yul\":545:684   */\n    tag_29:\n        /* \"#utility.yul\":591:596   */\n      0x00\n        /* \"#utility.yul\":629:635   */\n      dup2\n        /* \"#utility.yul\":616:636   */\n      calldataload\n        /* \"#utility.yul\":607:636   */\n      swap1\n      pop\n        /* \"#utility.yul\":645:678   */\n      tag_55\n        /* \"#utility.yul\":672:677   */\n      dup2\n        /* \"#utility.yul\":645:678   */\n      tag_28\n      jump\t// in\n    tag_55:\n        /* \"#utility.yul\":545:684   */\n      swap3\n      swap2\n      pop\n      pop\n      jump\t// out\n        /* \"#utility.yul\":690:1019   */\n    tag_9:\n        /* \"#utility.yul\":749:755   */\n      0x00\n        /* \"#utility.yul\":798:800   */\n      0x20\n        /* \"#utility.yul\":786:795   */\n      dup3\n        /* \"#utility.yul\":777:784   */\n      dup5\n        /* \"#utility.yul\":773:796   */\n      sub\n        /* \"#utility.yul\":769:801   */\n      slt\n        /* \"#utility.yul\":766:885   */\n      iszero\n      tag_57\n      jumpi\n        /* \"#utility.yul\":804:883   */\n      tag_58\n      tag_25\n      jump\t// in\n    tag_58:\n        /* \"#utility.yul\":766:885   */\n    tag_57:\n        /* \"#utility.yul\":924:925   */\n      0x00\n        /* \"#utility.yul\":949:1002   */\n      tag_59\n        /* \"#utility.yul\":994:1001   */\n      dup5\n        /* \"#utility.yul\":985:991   */\n      dup3\n        /* \"#utility.yul\":974:983   */\n      dup6\n        /* \"#utility.yul\":970:992   */\n      add\n        /* \"#utility.yul\":949:1002   */\n      tag_29\n      jump\t// in\n    tag_59:\n        /* \"#utility.yul\":939:1002   */\n      swap2\n      pop\n        /* \"#utility.yul\":895:1012   */\n      pop\n        /* \"#utility.yul\":690:1019   */\n      swap3\n      swap2\n      pop\n      pop\n      jump\t// out\n        /* \"#utility.yul\":1025:1151   */\n    tag_30:\n        /* \"#utility.yul\":1062:1069   */\n      0x00\n        /* \"#utility.yul\":1102:1144   */\n      0xffffffffffffffffffffffffffffffffffffffff\n        /* \"#utility.yul\":1095:1100   */\n      dup3\n        /* \"#utility.yul\":1091:1145   */\n      and\n        /* \"#utility.yul\":1080:1145   */\n      swap1\n      pop\n        /* \"#utility.yul\":1025:1151   */\n      swap2\n      swap1\n      pop\n      jump\t// out\n        /* \"#utility.yul\":1157:1217   */\n    tag_31:\n        /* \"#utility.yul\":1185:1188   */\n      0x00\n        /* \"#utility.yul\":1206:1211   */\n      dup2\n        /* \"#utility.yul\":1199:1211   */\n      swap1\n      pop\n        /* \"#utility.yul\":1157:1217   */\n      swap2\n      swap1\n      pop\n      jump\t// out\n        /* \"#utility.yul\":1223:1365   */\n    tag_32:\n        /* \"#utility.yul\":1273:1282   */\n      0x00\n        /* \"#utility.yul\":1306:1359   */\n      tag_63\n        /* \"#utility.yul\":1324:1358   */\n      tag_64\n        /* \"#utility.yul\":1333:1357   */\n      tag_65\n        /* \"#utility.yul\":1351:1356   */\n      dup5\n        /* \"#utility.yul\":1333:1357   */\n      tag_30\n      jump\t// in\n    tag_65:\n        /* \"#utility.yul\":1324:1358   */\n      tag_31\n      jump\t// in\n    tag_64:\n        /* \"#utility.yul\":1306:1359   */\n      tag_30\n      jump\t// in\n    tag_63:\n        /* \"#utility.yul\":1293:1359   */\n      swap1\n      pop\n        /* \"#utility.yul\":1223:1365   */\n      swap2\n      swap1\n      pop\n      jump\t// out\n        /* \"#utility.yul\":1371:1497   */\n    tag_33:\n        /* \"#utility.yul\":1421:1430   */\n      0x00\n        /* \"#utility.yul\":1454:1491   */\n      tag_67\n        /* \"#utility.yul\":1485:1490   */\n      dup3\n        /* \"#utility.yul\":1454:1491   */\n      tag_32\n      jump\t// in\n    tag_67:\n        /* \"#utility.yul\":1441:1491   */\n      swap1\n      pop\n        /* \"#utility.yul\":1371:1497   */\n      swap2\n      swap1\n      pop\n      jump\t// out\n        /* \"#utility.yul\":1503:1645   */\n    tag_34:\n        /* \"#utility.yul\":1569:1578   */\n      0x00\n        /* \"#utility.yul\":1602:1639   */\n      tag_69\n        /* \"#utility.yul\":1633:1638   */\n      dup3\n        /* \"#utility.yul\":1602:1639   */\n      tag_33\n      jump\t// in\n    tag_69:\n        /* \"#utility.yul\":1589:1639   */\n      swap1\n      pop\n        /* \"#utility.yul\":1503:1645   */\n      swap2\n      swap1\n      pop\n      jump\t// out\n        /* \"#utility.yul\":1651:1814   */\n    tag_35:\n        /* \"#utility.yul\":1754:1807   */\n      tag_71\n        /* \"#utility.yul\":1801:1806   */\n      dup2\n        /* \"#utility.yul\":1754:1807   */\n      tag_34\n      jump\t// in\n    tag_71:\n        /* \"#utility.yul\":1749:1752   */\n      dup3\n        /* \"#utility.yul\":1742:1808   */\n      mstore\n        /* \"#utility.yul\":1651:1814   */\n      pop\n      pop\n      jump\t// out\n        /* \"#utility.yul\":1820:2074   */\n    tag_12:\n        /* \"#utility.yul\":1929:1933   */\n      0x00\n        /* \"#utility.yul\":1967:1969   */\n      0x20\n        /* \"#utility.yul\":1956:1965   */\n      dup3\n        /* \"#utility.yul\":1952:1970   */\n      add\n        /* \"#utility.yul\":1944:1970   */\n      swap1\n      pop\n        /* \"#utility.yul\":1980:2067   */\n      tag_73\n        /* \"#utility.yul\":2064:2065   */\n      0x00\n        /* \"#utility.yul\":2053:2062   */\n      dup4\n        /* \"#utility.yul\":2049:2066   */\n      add\n        /* \"#utility.yul\":2040:2046   */\n      dup5\n        /* \"#utility.yul\":1980:2067   */\n      tag_35\n      jump\t// in\n    tag_73:\n        /* \"#utility.yul\":1820:2074   */\n      swap3\n      swap2\n      pop\n      pop\n      jump\t// out\n        /* \"#utility.yul\":2080:2197   */\n    tag_36:\n        /* \"#utility.yul\":2189:2190   */\n      0x00\n        /* \"#utility.yul\":2186:2187   */\n      dup1\n        /* \"#utility.yul\":2179:2191   */\n      revert\n        /* \"#utility.yul\":2203:2320   */\n    tag_37:\n        /* \"#utility.yul\":2312:2313   */\n      0x00\n        /* \"#utility.yul\":2309:2310   */\n      dup1\n        /* \"#utility.yul\":2302:2314   */\n      revert\n        /* \"#utility.yul\":2326:2428   */\n    tag_38:\n        /* \"#utility.yul\":2367:2373   */\n      0x00\n        /* \"#utility.yul\":2418:2420   */\n      0x1f\n        /* \"#utility.yul\":2414:2421   */\n      not\n        /* \"#utility.yul\":2409:2411   */\n      0x1f\n        /* \"#utility.yul\":2402:2407   */\n      dup4\n        /* \"#utility.yul\":2398:2412   */\n      add\n        /* \"#utility.yul\":2394:2422   */\n      and\n        /* \"#utility.yul\":2384:2422   */\n      swap1\n      pop\n        /* \"#utility.yul\":2326:2428   */\n      swap2\n      swap1\n      pop\n      jump\t// out\n        /* \"#utility.yul\":2434:2614   */\n    tag_39:\n        /* \"#utility.yul\":2482:2559   */\n      0x4e487b7100000000000000000000000000000000000000000000000000000000\n        /* \"#utility.yul\":2479:2480   */\n      0x00\n        /* \"#utility.yul\":2472:2560   */\n      mstore\n        /* \"#utility.yul\":2579:2583   */\n      0x41\n        /* \"#utility.yul\":2576:2577   */\n      0x04\n        /* \"#utility.yul\":2569:2584   */\n      mstore\n        /* \"#utility.yul\":2603:2607   */\n      0x24\n        /* \"#utility.yul\":2600:2601   */\n      0x00\n        /* \"#utility.yul\":2593:2608   */\n      revert\n        /* \"#utility.yul\":2620:2901   */\n    tag_40:\n        /* \"#utility.yul\":2703:2730   */\n      tag_79\n        /* \"#utility.yul\":2725:2729   */\n      dup3\n        /* \"#utility.yul\":2703:2730   */\n      tag_38\n      jump\t// in\n    tag_79:\n        /* \"#utility.yul\":2695:2701   */\n      dup2\n        /* \"#utility.yul\":2691:2731   */\n      add\n        /* \"#utility.yul\":2833:2839   */\n      dup2\n        /* \"#utility.yul\":2821:2831   */\n      dup2\n        /* \"#utility.yul\":2818:2840   */\n      lt\n        /* \"#utility.yul\":2797:2815   */\n      0xffffffffffffffff\n        /* \"#utility.yul\":2785:2795   */\n      dup3\n        /* \"#utility.yul\":2782:2816   */\n      gt\n        /* \"#utility.yul\":2779:2841   */\n      or\n        /* \"#utility.yul\":2776:2864   */\n      iszero\n      tag_80\n      jumpi\n        /* \"#utility.yul\":2844:2862   */\n      tag_81\n      tag_39\n      jump\t// in\n    tag_81:\n        /* \"#utility.yul\":2776:2864   */\n    tag_80:\n        /* \"#utility.yul\":2884:2894   */\n      dup1\n        /* \"#utility.yul\":2880:2882   */\n      0x40\n        /* \"#utility.yul\":2873:2895   */\n      mstore\n        /* \"#utility.yul\":2663:2901   */\n      pop\n        /* \"#utility.yul\":2620:2901   */\n      pop\n      pop\n      jump\t// out\n        /* \"#utility.yul\":2907:3036   */\n    tag_41:\n        /* \"#utility.yul\":2941:2947   */\n      0x00\n        /* \"#utility.yul\":2968:2988   */\n      tag_83\n      tag_24\n      jump\t// in\n    tag_83:\n        /* \"#utility.yul\":2958:2988   */\n      swap1\n      pop\n        /* \"#utility.yul\":2997:3030   */\n      tag_84\n        /* \"#utility.yul\":3025:3029   */\n      dup3\n        /* \"#utility.yul\":3017:3023   */\n      dup3\n        /* \"#utility.yul\":2997:3030   */\n      tag_40\n      jump\t// in\n    tag_84:\n        /* \"#utility.yul\":2907:3036   */\n      swap2\n      swap1\n      pop\n      jump\t// out\n        /* \"#utility.yul\":3042:3350   */\n    tag_42:\n        /* \"#utility.yul\":3104:3108   */\n      0x00\n        /* \"#utility.yul\":3194:3212   */\n      0xffffffffffffffff\n        /* \"#utility.yul\":3186:3192   */\n      dup3\n        /* \"#utility.yul\":3183:3213   */\n      gt\n        /* \"#utility.yul\":3180:3236   */\n      iszero\n      tag_86\n      jumpi\n        /* \"#utility.yul\":3216:3234   */\n      tag_87\n      tag_39\n      jump\t// in\n    tag_87:\n        /* \"#utility.yul\":3180:3236   */\n    tag_86:\n        /* \"#utility.yul\":3254:3283   */\n      tag_88\n        /* \"#utility.yul\":3276:3282   */\n      dup3\n        /* \"#utility.yul\":3254:3283   */\n      tag_38\n      jump\t// in\n    tag_88:\n        /* \"#utility.yul\":3246:3283   */\n      swap1\n      pop\n        /* \"#utility.yul\":3338:3342   */\n      0x20\n        /* \"#utility.yul\":3332:3336   */\n      dup2\n        /* \"#utility.yul\":3328:3343   */\n      add\n        /* \"#utility.yul\":3320:3343   */\n      swap1\n      pop\n        /* \"#utility.yul\":3042:3350   */\n      swap2\n      swap1\n      pop\n      jump\t// out\n        /* \"#utility.yul\":3356:3495   */\n    tag_43:\n        /* \"#utility.yul\":3445:3451   */\n      dup3\n        /* \"#utility.yul\":3440:3443   */\n      dup2\n        /* \"#utility.yul\":3435:3438   */\n      dup4\n        /* \"#utility.yul\":3429:3452   */\n      mcopy\n        /* \"#utility.yul\":3486:3487   */\n      0x00\n        /* \"#utility.yul\":3477:3483   */\n      dup4\n        /* \"#utility.yul\":3472:3475   */\n      dup4\n        /* \"#utility.yul\":3468:3484   */\n      add\n        /* \"#utility.yul\":3461:3488   */\n      mstore\n        /* \"#utility.yul\":3356:3495   */\n      pop\n      pop\n      pop\n      jump\t// out\n        /* \"#utility.yul\":3501:3935   */\n    tag_44:\n        /* \"#utility.yul\":3590:3595   */\n      0x00\n        /* \"#utility.yul\":3615:3681   */\n      tag_91\n        /* \"#utility.yul\":3631:3680   */\n      tag_92\n        /* \"#utility.yul\":3673:3679   */\n      dup5\n        /* \"#utility.yul\":3631:3680   */\n      tag_42\n      jump\t// in\n    tag_92:\n        /* \"#utility.yul\":3615:3681   */\n      tag_41\n      jump\t// in\n    tag_91:\n        /* \"#utility.yul\":3606:3681   */\n      swap1\n      pop\n        /* \"#utility.yul\":3704:3710   */\n      dup3\n        /* \"#utility.yul\":3697:3702   */\n      dup2\n        /* \"#utility.yul\":3690:3711   */\n      mstore\n        /* \"#utility.yul\":3742:3746   */\n      0x20\n        /* \"#utility.yul\":3735:3740   */\n      dup2\n        /* \"#utility.yul\":3731:3747   */\n      add\n        /* \"#utility.yul\":3780:3783   */\n      dup5\n        /* \"#utility.yul\":3771:3777   */\n      dup5\n        /* \"#utility.yul\":3766:3769   */\n      dup5\n        /* \"#utility.yul\":3762:3778   */\n      add\n        /* \"#utility.yul\":3759:3784   */\n      gt\n        /* \"#utility.yul\":3756:3868   */\n      iszero\n      tag_93\n      jumpi\n        /* \"#utility.yul\":3787:3866   */\n      tag_94\n      tag_37\n      jump\t// in\n    tag_94:\n        /* \"#utility.yul\":3756:3868   */\n    tag_93:\n        /* \"#utility.yul\":3877:3929   */\n      tag_95\n        /* \"#utility.yul\":3922:3928   */\n      dup5\n        /* \"#utility.yul\":3917:3920   */\n      dup3\n        /* \"#utility.yul\":3912:3915   */\n      dup6\n        /* \"#utility.yul\":3877:3929   */\n      tag_43\n      jump\t// in\n    tag_95:\n        /* \"#utility.yul\":3596:3935   */\n      pop\n        /* \"#utility.yul\":3501:3935   */\n      swap4\n      swap3\n      pop\n      pop\n      pop\n      jump\t// out\n        /* \"#utility.yul\":3955:4310   */\n    tag_45:\n        /* \"#utility.yul\":4022:4027   */\n      0x00\n        /* \"#utility.yul\":4071:4074   */\n      dup3\n        /* \"#utility.yul\":4064:4068   */\n      0x1f\n        /* \"#utility.yul\":4056:4062   */\n      dup4\n        /* \"#utility.yul\":4052:4069   */\n      add\n        /* \"#utility.yul\":4048:4075   */\n      slt\n        /* \"#utility.yul\":4038:4160   */\n      tag_97\n      jumpi\n        /* \"#utility.yul\":4079:4158   */\n      tag_98\n      tag_36\n      jump\t// in\n    tag_98:\n        /* \"#utility.yul\":4038:4160   */\n    tag_97:\n        /* \"#utility.yul\":4189:4195   */\n      dup2\n        /* \"#utility.yul\":4183:4196   */\n      mload\n        /* \"#utility.yul\":4214:4304   */\n      tag_99\n        /* \"#utility.yul\":4300:4303   */\n      dup5\n        /* \"#utility.yul\":4292:4298   */\n      dup3\n        /* \"#utility.yul\":4285:4289   */\n      0x20\n        /* \"#utility.yul\":4277:4283   */\n      dup7\n        /* \"#utility.yul\":4273:4290   */\n      add\n        /* \"#utility.yul\":4214:4304   */\n      tag_44\n      jump\t// in\n    tag_99:\n        /* \"#utility.yul\":4205:4304   */\n      swap2\n      pop\n        /* \"#utility.yul\":4028:4310   */\n      pop\n        /* \"#utility.yul\":3955:4310   */\n      swap3\n      swap2\n      pop\n      pop\n      jump\t// out\n        /* \"#utility.yul\":4316:4840   */\n    tag_20:\n        /* \"#utility.yul\":4396:4402   */\n      0x00\n        /* \"#utility.yul\":4445:4447   */\n      0x20\n        /* \"#utility.yul\":4433:4442   */\n      dup3\n        /* \"#utility.yul\":4424:4431   */\n      dup5\n        /* \"#utility.yul\":4420:4443   */\n      sub\n        /* \"#utility.yul\":4416:4448   */\n      slt\n        /* \"#utility.yul\":4413:4532   */\n      iszero\n      tag_101\n      jumpi\n        /* \"#utility.yul\":4451:4530   */\n      tag_102\n      tag_25\n      jump\t// in\n    tag_102:\n        /* \"#utility.yul\":4413:4532   */\n    tag_101:\n        /* \"#utility.yul\":4592:4593   */\n      0x00\n        /* \"#utility.yul\":4581:4590   */\n      dup3\n        /* \"#utility.yul\":4577:4594   */\n      add\n        /* \"#utility.yul\":4571:4595   */\n      mload\n        /* \"#utility.yul\":4622:4640   */\n      0xffffffffffffffff\n        /* \"#utility.yul\":4614:4620   */\n      dup2\n        /* \"#utility.yul\":4611:4641   */\n      gt\n        /* \"#utility.yul\":4608:4725   */\n      iszero\n      tag_103\n      jumpi\n        /* \"#utility.yul\":4644:4723   */\n      tag_104\n      tag_26\n      jump\t// in\n    tag_104:\n        /* \"#utility.yul\":4608:4725   */\n    tag_103:\n        /* \"#utility.yul\":4749:4823   */\n      tag_105\n        /* \"#utility.yul\":4815:4822   */\n      dup5\n        /* \"#utility.yul\":4806:4812   */\n      dup3\n        /* \"#utility.yul\":4795:4804   */\n      dup6\n        /* \"#utility.yul\":4791:4813   */\n      add\n        /* \"#utility.yul\":4749:4823   */\n      tag_45\n      jump\t// in\n    tag_105:\n        /* \"#utility.yul\":4739:4823   */\n      swap2\n      pop\n        /* \"#utility.yul\":4542:4833   */\n      pop\n        /* \"#utility.yul\":4316:4840   */\n      swap3\n      swap2\n      pop\n      pop\n      jump\t// out\n    stop\n\n    sub_0: assembly {\n            /* \"SmFactory.sol\":310:443  contract contract2 {... */\n          mstore(0x40, 0x80)\n          callvalue\n          dup1\n          iszero\n          tag_1\n          jumpi\n          0x00\n          dup1\n          revert\n        tag_1:\n          pop\n          dataSize(sub_0)\n          dup1\n          dataOffset(sub_0)\n          0x00\n          codecopy\n          0x00\n          return\n        stop\n\n        sub_0: assembly {\n                /* \"SmFactory.sol\":310:443  contract contract2 {... */\n              mstore(0x40, 0x80)\n              callvalue\n              dup1\n              iszero\n              tag_1\n              jumpi\n              0x00\n              dup1\n              revert\n            tag_1:\n              pop\n              jumpi(tag_2, lt(calldatasize, 0x04))\n              shr(0xe0, calldataload(0x00))\n              dup1\n              0x8d03b102\n              eq\n              tag_3\n              jumpi\n            tag_2:\n              0x00\n              dup1\n              revert\n                /* \"SmFactory.sol\":336:440  function testing() ... */\n            tag_3:\n              tag_4\n              tag_5\n              jump\t// in\n            tag_4:\n              mload(0x40)\n              tag_6\n              swap2\n              swap1\n              tag_7\n              jump\t// in\n            tag_6:\n              mload(0x40)\n              dup1\n              swap2\n              sub\n              swap1\n              return\n            tag_5:\n                /* \"SmFactory.sol\":393:406  string memory */\n              0x60\n                /* \"SmFactory.sol\":418:432  return \"Hello\" */\n              mload(0x40)\n              dup1\n              0x40\n              add\n              0x40\n              mstore\n              dup1\n              0x05\n              dup2\n              mstore\n              0x20\n              add\n              0x48656c6c6f000000000000000000000000000000000000000000000000000000\n              dup2\n              mstore\n              pop\n              swap1\n              pop\n                /* \"SmFactory.sol\":336:440  function testing() ... */\n              swap1\n              jump\t// out\n                /* \"#utility.yul\":7:106   */\n            tag_9:\n                /* \"#utility.yul\":59:65   */\n              0x00\n                /* \"#utility.yul\":93:98   */\n              dup2\n                /* \"#utility.yul\":87:99   */\n              mload\n                /* \"#utility.yul\":77:99   */\n              swap1\n              pop\n                /* \"#utility.yul\":7:106   */\n              swap2\n              swap1\n              pop\n              jump\t// out\n                /* \"#utility.yul\":112:281   */\n            tag_10:\n                /* \"#utility.yul\":196:207   */\n              0x00\n                /* \"#utility.yul\":230:236   */\n              dup3\n                /* \"#utility.yul\":225:228   */\n              dup3\n                /* \"#utility.yul\":218:237   */\n              mstore\n                /* \"#utility.yul\":270:274   */\n              0x20\n                /* \"#utility.yul\":265:268   */\n              dup3\n                /* \"#utility.yul\":261:275   */\n              add\n                /* \"#utility.yul\":246:275   */\n              swap1\n              pop\n                /* \"#utility.yul\":112:281   */\n              swap3\n              swap2\n              pop\n              pop\n              jump\t// out\n                /* \"#utility.yul\":287:426   */\n            tag_11:\n                /* \"#utility.yul\":376:382   */\n              dup3\n                /* \"#utility.yul\":371:374   */\n              dup2\n                /* \"#utility.yul\":366:369   */\n              dup4\n                /* \"#utility.yul\":360:383   */\n              mcopy\n                /* \"#utility.yul\":417:418   */\n              0x00\n                /* \"#utility.yul\":408:414   */\n              dup4\n                /* \"#utility.yul\":403:406   */\n              dup4\n                /* \"#utility.yul\":399:415   */\n              add\n                /* \"#utility.yul\":392:419   */\n              mstore\n                /* \"#utility.yul\":287:426   */\n              pop\n              pop\n              pop\n              jump\t// out\n                /* \"#utility.yul\":432:534   */\n            tag_12:\n                /* \"#utility.yul\":473:479   */\n              0x00\n                /* \"#utility.yul\":524:526   */\n              0x1f\n                /* \"#utility.yul\":520:527   */\n              not\n                /* \"#utility.yul\":515:517   */\n              0x1f\n                /* \"#utility.yul\":508:513   */\n              dup4\n                /* \"#utility.yul\":504:518   */\n              add\n                /* \"#utility.yul\":500:528   */\n              and\n                /* \"#utility.yul\":490:528   */\n              swap1\n              pop\n                /* \"#utility.yul\":432:534   */\n              swap2\n              swap1\n              pop\n              jump\t// out\n                /* \"#utility.yul\":540:917   */\n            tag_13:\n                /* \"#utility.yul\":628:631   */\n              0x00\n                /* \"#utility.yul\":656:695   */\n              tag_20\n                /* \"#utility.yul\":689:694   */\n              dup3\n                /* \"#utility.yul\":656:695   */\n              tag_9\n              jump\t// in\n            tag_20:\n                /* \"#utility.yul\":711:782   */\n              tag_21\n                /* \"#utility.yul\":775:781   */\n              dup2\n                /* \"#utility.yul\":770:773   */\n              dup6\n                /* \"#utility.yul\":711:782   */\n              tag_10\n              jump\t// in\n            tag_21:\n                /* \"#utility.yul\":704:782   */\n              swap4\n              pop\n                /* \"#utility.yul\":791:856   */\n              tag_22\n                /* \"#utility.yul\":849:855   */\n              dup2\n                /* \"#utility.yul\":844:847   */\n              dup6\n                /* \"#utility.yul\":837:841   */\n              0x20\n                /* \"#utility.yul\":830:835   */\n              dup7\n                /* \"#utility.yul\":826:842   */\n              add\n                /* \"#utility.yul\":791:856   */\n              tag_11\n              jump\t// in\n            tag_22:\n                /* \"#utility.yul\":881:910   */\n              tag_23\n                /* \"#utility.yul\":903:909   */\n              dup2\n                /* \"#utility.yul\":881:910   */\n              tag_12\n              jump\t// in\n            tag_23:\n                /* \"#utility.yul\":876:879   */\n              dup5\n                /* \"#utility.yul\":872:911   */\n              add\n                /* \"#utility.yul\":865:911   */\n              swap2\n              pop\n                /* \"#utility.yul\":632:917   */\n              pop\n                /* \"#utility.yul\":540:917   */\n              swap3\n              swap2\n              pop\n              pop\n              jump\t// out\n                /* \"#utility.yul\":923:1236   */\n            tag_7:\n                /* \"#utility.yul\":1036:1040   */\n              0x00\n                /* \"#utility.yul\":1074:1076   */\n              0x20\n                /* \"#utility.yul\":1063:1072   */\n              dup3\n                /* \"#utility.yul\":1059:1077   */\n              add\n                /* \"#utility.yul\":1051:1077   */\n              swap1\n              pop\n                /* \"#utility.yul\":1123:1132   */\n              dup2\n                /* \"#utility.yul\":1117:1121   */\n              dup2\n                /* \"#utility.yul\":1113:1133   */\n              sub\n                /* \"#utility.yul\":1109:1110   */\n              0x00\n                /* \"#utility.yul\":1098:1107   */\n              dup4\n                /* \"#utility.yul\":1094:1111   */\n              add\n                /* \"#utility.yul\":1087:1134   */\n              mstore\n                /* \"#utility.yul\":1151:1229   */\n              tag_25\n                /* \"#utility.yul\":1224:1228   */\n              dup2\n                /* \"#utility.yul\":1215:1221   */\n              dup5\n                /* \"#utility.yul\":1151:1229   */\n              tag_13\n              jump\t// in\n            tag_25:\n                /* \"#utility.yul\":1143:1229   */\n              swap1\n              pop\n                /* \"#utility.yul\":923:1236   */\n              swap3\n              swap2\n              pop\n              pop\n              jump\t// out\n\n            auxdata: 0xa26469706673582212207c7a7288e1c1a20df6ab4069f805264565dad7c113439f9ad0fd4b0243b38df164736f6c63430008190033\n        }\n    }\n\n    auxdata: 0xa2646970667358221220a23566da8e992f4e34474cc3540e64bf9b5290ced39463b3288a1b00c1baf27164736f6c63430008190033\n}\n",
				"bytecode": {
					"linkReferences": {},
					"object": "6080604052348015600e575f80fd5b506105da8061001c5f395ff3fe608060405234801561000f575f80fd5b5060043610610034575f3560e01c80632b823efe1461003857806391be2bb314610042575b5f80fd5b610040610072565b005b61005c600480360381019061005791906101f9565b61016e565b604051610069919061029e565b60405180910390f35b5f60405161007f906101a8565b604051809103905ff080158015610098573d5f803e3d5ffd5b5090508073ffffffffffffffffffffffffffffffffffffffff16638d03b1026040518163ffffffff1660e01b81526004015f60405180830381865afa1580156100e3573d5f803e3d5ffd5b505050506040513d5f823e3d601f19601f8201168201806040525081019061010b91906103f3565b505f81908060018154018082558091505060019003905f5260205f20015f9091909190916101000a81548173ffffffffffffffffffffffffffffffffffffffff021916908373ffffffffffffffffffffffffffffffffffffffff16021790555050565b5f818154811061017c575f80fd5b905f5260205f20015f915054906101000a900473ffffffffffffffffffffffffffffffffffffffff1681565b61016a8061043b83390190565b5f604051905090565b5f80fd5b5f80fd5b5f819050919050565b6101d8816101c6565b81146101e2575f80fd5b50565b5f813590506101f3816101cf565b92915050565b5f6020828403121561020e5761020d6101be565b5b5f61021b848285016101e5565b91505092915050565b5f73ffffffffffffffffffffffffffffffffffffffff82169050919050565b5f819050919050565b5f61026661026161025c84610224565b610243565b610224565b9050919050565b5f6102778261024c565b9050919050565b5f6102888261026d565b9050919050565b6102988161027e565b82525050565b5f6020820190506102b15f83018461028f565b92915050565b5f80fd5b5f80fd5b5f601f19601f8301169050919050565b7f4e487b71000000000000000000000000000000000000000000000000000000005f52604160045260245ffd5b610305826102bf565b810181811067ffffffffffffffff82111715610324576103236102cf565b5b80604052505050565b5f6103366101b5565b905061034282826102fc565b919050565b5f67ffffffffffffffff821115610361576103606102cf565b5b61036a826102bf565b9050602081019050919050565b8281835e5f83830152505050565b5f61039761039284610347565b61032d565b9050828152602081018484840111156103b3576103b26102bb565b5b6103be848285610377565b509392505050565b5f82601f8301126103da576103d96102b7565b5b81516103ea848260208601610385565b91505092915050565b5f60208284031215610408576104076101be565b5b5f82015167ffffffffffffffff811115610425576104246101c2565b5b610431848285016103c6565b9150509291505056fe6080604052348015600e575f80fd5b5061014e8061001c5f395ff3fe608060405234801561000f575f80fd5b5060043610610029575f3560e01c80638d03b1021461002d575b5f80fd5b61003561004b565b60405161004291906100f8565b60405180910390f35b60606040518060400160405280600581526020017f48656c6c6f000000000000000000000000000000000000000000000000000000815250905090565b5f81519050919050565b5f82825260208201905092915050565b8281835e5f83830152505050565b5f601f19601f8301169050919050565b5f6100ca82610088565b6100d48185610092565b93506100e48185602086016100a2565b6100ed816100b0565b840191505092915050565b5f6020820190508181035f83015261011081846100c0565b90509291505056fea26469706673582212207c7a7288e1c1a20df6ab4069f805264565dad7c113439f9ad0fd4b0243b38df164736f6c63430008190033a2646970667358221220a23566da8e992f4e34474cc3540e64bf9b5290ced39463b3288a1b00c1baf27164736f6c63430008190033",
					"opcodes": "PUSH1 0x80 PUSH1 0x40 MSTORE CALLVALUE DUP1 ISZERO PUSH1 0xE JUMPI PUSH0 DUP1 REVERT JUMPDEST POP PUSH2 0x5DA DUP1 PUSH2 0x1C PUSH0 CODECOPY PUSH0 RETURN INVALID PUSH1 0x80 PUSH1 0x40 MSTORE CALLVALUE DUP1 ISZERO PUSH2 0xF JUMPI PUSH0 DUP1 REVERT JUMPDEST POP PUSH1 0x4 CALLDATASIZE LT PUSH2 0x34 JUMPI PUSH0 CALLDATALOAD PUSH1 0xE0 SHR DUP1 PUSH4 0x2B823EFE EQ PUSH2 0x38 JUMPI DUP1 PUSH4 0x91BE2BB3 EQ PUSH2 0x42 JUMPI JUMPDEST PUSH0 DUP1 REVERT JUMPDEST PUSH2 0x40 PUSH2 0x72 JUMP JUMPDEST STOP JUMPDEST PUSH2 0x5C PUSH1 0x4 DUP1 CALLDATASIZE SUB DUP2 ADD SWAP1 PUSH2 0x57 SWAP2 SWAP1 PUSH2 0x1F9 JUMP JUMPDEST PUSH2 0x16E JUMP JUMPDEST PUSH1 0x40 MLOAD PUSH2 0x69 SWAP2 SWAP1 PUSH2 0x29E JUMP JUMPDEST PUSH1 0x40 MLOAD DUP1 SWAP2 SUB SWAP1 RETURN JUMPDEST PUSH0 PUSH1 0x40 MLOAD PUSH2 0x7F SWAP1 PUSH2 0x1A8 JUMP JUMPDEST PUSH1 0x40 MLOAD DUP1 SWAP2 SUB SWAP1 PUSH0 CREATE DUP1 ISZERO DUP1 ISZERO PUSH2 0x98 JUMPI RETURNDATASIZE PUSH0 DUP1 RETURNDATACOPY RETURNDATASIZE PUSH0 REVERT JUMPDEST POP SWAP1 POP DUP1 PUSH20 0xFFFFFFFFFFFFFFFFFFFFFFFFFFFFFFFFFFFFFFFF AND PUSH4 0x8D03B102 PUSH1 0x40 MLOAD DUP2 PUSH4 0xFFFFFFFF AND PUSH1 0xE0 SHL DUP2 MSTORE PUSH1 0x4 ADD PUSH0 PUSH1 0x40 MLOAD DUP1 DUP4 SUB DUP2 DUP7 GAS STATICCALL ISZERO DUP1 ISZERO PUSH2 0xE3 JUMPI RETURNDATASIZE PUSH0 DUP1 RETURNDATACOPY RETURNDATASIZE PUSH0 REVERT JUMPDEST POP POP POP POP PUSH1 0x40 MLOAD RETURNDATASIZE PUSH0 DUP3 RETURNDATACOPY RETURNDATASIZE PUSH1 0x1F NOT PUSH1 0x1F DUP3 ADD AND DUP3 ADD DUP1 PUSH1 0x40 MSTORE POP DUP2 ADD SWAP1 PUSH2 0x10B SWAP2 SWAP1 PUSH2 0x3F3 JUMP JUMPDEST POP PUSH0 DUP2 SWAP1 DUP1 PUSH1 0x1 DUP2 SLOAD ADD DUP1 DUP3 SSTORE DUP1 SWAP2 POP POP PUSH1 0x1 SWAP1 SUB SWAP1 PUSH0 MSTORE PUSH1 0x20 PUSH0 KECCAK256 ADD PUSH0 SWAP1 SWAP2 SWAP1 SWAP2 SWAP1 SWAP2 PUSH2 0x100 EXP DUP2 SLOAD DUP2 PUSH20 0xFFFFFFFFFFFFFFFFFFFFFFFFFFFFFFFFFFFFFFFF MUL NOT AND SWAP1 DUP4 PUSH20 0xFFFFFFFFFFFFFFFFFFFFFFFFFFFFFFFFFFFFFFFF AND MUL OR SWAP1 SSTORE POP POP JUMP JUMPDEST PUSH0 DUP2 DUP2 SLOAD DUP2 LT PUSH2 0x17C JUMPI PUSH0 DUP1 REVERT JUMPDEST SWAP1 PUSH0 MSTORE PUSH1 0x20 PUSH0 KECCAK256 ADD PUSH0 SWAP2 POP SLOAD SWAP1 PUSH2 0x100 EXP SWAP1 DIV PUSH20 0xFFFFFFFFFFFFFFFFFFFFFFFFFFFFFFFFFFFFFFFF AND DUP2 JUMP JUMPDEST PUSH2 0x16A DUP1 PUSH2 0x43B DUP4 CODECOPY ADD SWAP1 JUMP JUMPDEST PUSH0 PUSH1 0x40 MLOAD SWAP1 POP SWAP1 JUMP JUMPDEST PUSH0 DUP1 REVERT JUMPDEST PUSH0 DUP1 REVERT JUMPDEST PUSH0 DUP2 SWAP1 POP SWAP2 SWAP1 POP JUMP JUMPDEST PUSH2 0x1D8 DUP2 PUSH2 0x1C6 JUMP JUMPDEST DUP2 EQ PUSH2 0x1E2 JUMPI PUSH0 DUP1 REVERT JUMPDEST POP JUMP JUMPDEST PUSH0 DUP2 CALLDATALOAD SWAP1 POP PUSH2 0x1F3 DUP2 PUSH2 0x1CF JUMP JUMPDEST SWAP3 SWAP2 POP POP JUMP JUMPDEST PUSH0 PUSH1 0x20 DUP3 DUP5 SUB SLT ISZERO PUSH2 0x20E JUMPI PUSH2 0x20D PUSH2 0x1BE JUMP JUMPDEST JUMPDEST PUSH0 PUSH2 0x21B DUP5 DUP3 DUP6 ADD PUSH2 0x1E5 JUMP JUMPDEST SWAP2 POP POP SWAP3 SWAP2 POP POP JUMP JUMPDEST PUSH0 PUSH20 0xFFFFFFFFFFFFFFFFFFFFFFFFFFFFFFFFFFFFFFFF DUP3 AND SWAP1 POP SWAP2 SWAP1 POP JUMP JUMPDEST PUSH0 DUP2 SWAP1 POP SWAP2 SWAP1 POP JUMP JUMPDEST PUSH0 PUSH2 0x266 PUSH2 0x261 PUSH2 0x25C DUP5 PUSH2 0x224 JUMP JUMPDEST PUSH2 0x243 JUMP JUMPDEST PUSH2 0x224 JUMP JUMPDEST SWAP1 POP SWAP2 SWAP1 POP JUMP JUMPDEST PUSH0 PUSH2 0x277 DUP3 PUSH2 0x24C JUMP JUMPDEST SWAP1 POP SWAP2 SWAP1 POP JUMP JUMPDEST PUSH0 PUSH2 0x288 DUP3 PUSH2 0x26D JUMP JUMPDEST SWAP1 POP SWAP2 SWAP1 POP JUMP JUMPDEST PUSH2 0x298 DUP2 PUSH2 0x27E JUMP JUMPDEST DUP3 MSTORE POP POP JUMP JUMPDEST PUSH0 PUSH1 0x20 DUP3 ADD SWAP1 POP PUSH2 0x2B1 PUSH0 DUP4 ADD DUP5 PUSH2 0x28F JUMP JUMPDEST SWAP3 SWAP2 POP POP JUMP JUMPDEST PUSH0 DUP1 REVERT JUMPDEST PUSH0 DUP1 REVERT JUMPDEST PUSH0 PUSH1 0x1F NOT PUSH1 0x1F DUP4 ADD AND SWAP1 POP SWAP2 SWAP1 POP JUMP JUMPDEST PUSH32 0x4E487B7100000000000000000000000000000000000000000000000000000000 PUSH0 MSTORE PUSH1 0x41 PUSH1 0x4 MSTORE PUSH1 0x24 PUSH0 REVERT JUMPDEST PUSH2 0x305 DUP3 PUSH2 0x2BF JUMP JUMPDEST DUP2 ADD DUP2 DUP2 LT PUSH8 0xFFFFFFFFFFFFFFFF DUP3 GT OR ISZERO PUSH2 0x324 JUMPI PUSH2 0x323 PUSH2 0x2CF JUMP JUMPDEST JUMPDEST DUP1 PUSH1 0x40 MSTORE POP POP POP JUMP JUMPDEST PUSH0 PUSH2 0x336 PUSH2 0x1B5 JUMP JUMPDEST SWAP1 POP PUSH2 0x342 DUP3 DUP3 PUSH2 0x2FC JUMP JUMPDEST SWAP2 SWAP1 POP JUMP JUMPDEST PUSH0 PUSH8 0xFFFFFFFFFFFFFFFF DUP3 GT ISZERO PUSH2 0x361 JUMPI PUSH2 0x360 PUSH2 0x2CF JUMP JUMPDEST JUMPDEST PUSH2 0x36A DUP3 PUSH2 0x2BF JUMP JUMPDEST SWAP1 POP PUSH1 0x20 DUP2 ADD SWAP1 POP SWAP2 SWAP1 POP JUMP JUMPDEST DUP3 DUP2 DUP4 MCOPY PUSH0 DUP4 DUP4 ADD MSTORE POP POP POP JUMP JUMPDEST PUSH0 PUSH2 0x397 PUSH2 0x392 DUP5 PUSH2 0x347 JUMP JUMPDEST PUSH2 0x32D JUMP JUMPDEST SWAP1 POP DUP3 DUP2 MSTORE PUSH1 0x20 DUP2 ADD DUP5 DUP5 DUP5 ADD GT ISZERO PUSH2 0x3B3 JUMPI PUSH2 0x3B2 PUSH2 0x2BB JUMP JUMPDEST JUMPDEST PUSH2 0x3BE DUP5 DUP3 DUP6 PUSH2 0x377 JUMP JUMPDEST POP SWAP4 SWAP3 POP POP POP JUMP JUMPDEST PUSH0 DUP3 PUSH1 0x1F DUP4 ADD SLT PUSH2 0x3DA JUMPI PUSH2 0x3D9 PUSH2 0x2B7 JUMP JUMPDEST JUMPDEST DUP2 MLOAD PUSH2 0x3EA DUP5 DUP3 PUSH1 0x20 DUP7 ADD PUSH2 0x385 JUMP JUMPDEST SWAP2 POP POP SWAP3 SWAP2 POP POP JUMP JUMPDEST PUSH0 PUSH1 0x20 DUP3 DUP5 SUB SLT ISZERO PUSH2 0x408 JUMPI PUSH2 0x407 PUSH2 0x1BE JUMP JUMPDEST JUMPDEST PUSH0 DUP3 ADD MLOAD PUSH8 0xFFFFFFFFFFFFFFFF DUP2 GT ISZERO PUSH2 0x425 JUMPI PUSH2 0x424 PUSH2 0x1C2 JUMP JUMPDEST JUMPDEST PUSH2 0x431 DUP5 DUP3 DUP6 ADD PUSH2 0x3C6 JUMP JUMPDEST SWAP2 POP POP SWAP3 SWAP2 POP POP JUMP INVALID PUSH1 0x80 PUSH1 0x40 MSTORE CALLVALUE DUP1 ISZERO PUSH1 0xE JUMPI PUSH0 DUP1 REVERT JUMPDEST POP PUSH2 0x14E DUP1 PUSH2 0x1C PUSH0 CODECOPY PUSH0 RETURN INVALID PUSH1 0x80 PUSH1 0x40 MSTORE CALLVALUE DUP1 ISZERO PUSH2 0xF JUMPI PUSH0 DUP1 REVERT JUMPDEST POP PUSH1 0x4 CALLDATASIZE LT PUSH2 0x29 JUMPI PUSH0 CALLDATALOAD PUSH1 0xE0 SHR DUP1 PUSH4 0x8D03B102 EQ PUSH2 0x2D JUMPI JUMPDEST PUSH0 DUP1 REVERT JUMPDEST PUSH2 0x35 PUSH2 0x4B JUMP JUMPDEST PUSH1 0x40 MLOAD PUSH2 0x42 SWAP2 SWAP1 PUSH2 0xF8 JUMP JUMPDEST PUSH1 0x40 MLOAD DUP1 SWAP2 SUB SWAP1 RETURN JUMPDEST PUSH1 0x60 PUSH1 0x40 MLOAD DUP1 PUSH1 0x40 ADD PUSH1 0x40 MSTORE DUP1 PUSH1 0x5 DUP2 MSTORE PUSH1 0x20 ADD PUSH32 0x48656C6C6F000000000000000000000000000000000000000000000000000000 DUP2 MSTORE POP SWAP1 POP SWAP1 JUMP JUMPDEST PUSH0 DUP2 MLOAD SWAP1 POP SWAP2 SWAP1 POP JUMP JUMPDEST PUSH0 DUP3 DUP3 MSTORE PUSH1 0x20 DUP3 ADD SWAP1 POP SWAP3 SWAP2 POP POP JUMP JUMPDEST DUP3 DUP2 DUP4 MCOPY PUSH0 DUP4 DUP4 ADD MSTORE POP POP POP JUMP JUMPDEST PUSH0 PUSH1 0x1F NOT PUSH1 0x1F DUP4 ADD AND SWAP1 POP SWAP2 SWAP1 POP JUMP JUMPDEST PUSH0 PUSH2 0xCA DUP3 PUSH2 0x88 JUMP JUMPDEST PUSH2 0xD4 DUP2 DUP6 PUSH2 0x92 JUMP JUMPDEST SWAP4 POP PUSH2 0xE4 DUP2 DUP6 PUSH1 0x20 DUP7 ADD PUSH2 0xA2 JUMP JUMPDEST PUSH2 0xED DUP2 PUSH2 0xB0 JUMP JUMPDEST DUP5 ADD SWAP2 POP POP SWAP3 SWAP2 POP POP JUMP JUMPDEST PUSH0 PUSH1 0x20 DUP3 ADD SWAP1 POP DUP2 DUP2 SUB PUSH0 DUP4 ADD MSTORE PUSH2 0x110 DUP2 DUP5 PUSH2 0xC0 JUMP JUMPDEST SWAP1 POP SWAP3 SWAP2 POP POP JUMP INVALID LOG2 PUSH5 0x6970667358 0x22 SLT KECCAK256 PUSH29 0x7A7288E1C1A20DF6AB4069F805264565DAD7C113439F9AD0FD4B0243B3 DUP14 CALL PUSH5 0x736F6C6343 STOP ADDMOD NOT STOP CALLER LOG2 PUSH5 0x6970667358 0x22 SLT KECCAK256 LOG2 CALLDATALOAD PUSH7 0xDA8E992F4E3447 0x4C 0xC3 SLOAD 0xE PUSH5 0xBF9B5290CE 0xD3 SWAP5 PUSH4 0xB3288A1B STOP 0xC1 0xBA CALLCODE PUSH18 0x64736F6C6343000819003300000000000000 "
				},
				"gasEstimates": {
					"creation": {
						"codeDepositCost": "299600",
						"executionCost": "335",
						"totalCost": "299935"
					},
					"external": {
						"arrayofContract(uint256)": "infinite",
						"calling()": "infinite"
					}
				},
				"methodIdentifiers": {
					"arrayofContract(uint256)": "91be2bb3",
					"calling()": "2b823efe"
				}
			},
			"storageLayout": {
				"storage": [
					{
						"astId": 5,
						"contract": "SmFactory.sol:contract1",
						"label": "arrayofContract",
						"offset": 0,
						"slot": "0",
						"type": "t_array(t_contract(contract2)38)dyn_storage"
					}
				],
				"types": {
					"t_array(t_contract(contract2)38)dyn_storage": {
						"base": "t_contract(contract2)38",
						"encoding": "dynamic_array",
						"label": "contract contract2[]",
						"numberOfBytes": "32"
					},
					"t_contract(contract2)38": {
						"encoding": "inplace",
						"label": "contract contract2",
						"numberOfBytes": "20"
					}
				}
			},
			"userdoc": {
				"kind": "user",
				"methods": {},
				"version": 1
			}
		}
	}
}