{
	"Basic.sol": {
		"Basics": {
			"abi": [
				{
					"inputs": [],
					"stateMutability": "nonpayable",
					"type": "constructor"
				},
				{
					"inputs": [
						{
							"internalType": "string",
							"name": "_coins",
							"type": "string"
						}
					],
					"name": "MemoryStorage",
					"outputs": [],
					"stateMutability": "nonpayable",
					"type": "function"
				},
				{
					"inputs": [],
					"name": "add",
					"outputs": [],
					"stateMutability": "nonpayable",
					"type": "function"
				},
				{
					"inputs": [],
					"name": "assertError",
					"outputs": [],
					"stateMutability": "pure",
					"type": "function"
				},
				{
					"inputs": [
						{
							"internalType": "string",
							"name": "_coins",
							"type": "string"
						}
					],
					"name": "callDataStorage",
					"outputs": [],
					"stateMutability": "nonpayable",
					"type": "function"
				},
				{
					"inputs": [],
					"name": "coins",
					"outputs": [
						{
							"internalType": "uint256",
							"name": "",
							"type": "uint256"
						}
					],
					"stateMutability": "view",
					"type": "function"
				},
				{
					"inputs": [],
					"name": "normalStorage",
					"outputs": [
						{
							"internalType": "uint256",
							"name": "",
							"type": "uint256"
						}
					],
					"stateMutability": "view",
					"type": "function"
				},
				{
					"inputs": [],
					"name": "owner",
					"outputs": [
						{
							"internalType": "address",
							"name": "",
							"type": "address"
						}
					],
					"stateMutability": "view",
					"type": "function"
				},
				{
					"inputs": [],
					"name": "revertError",
					"outputs": [],
					"stateMutability": "pure",
					"type": "function"
				},
				{
					"inputs": [
						{
							"internalType": "uint256",
							"name": "_coins",
							"type": "uint256"
						}
					],
					"name": "set",
					"outputs": [],
					"stateMutability": "nonpayable",
					"type": "function"
				},
				{
					"inputs": [],
					"name": "stack",
					"outputs": [],
					"stateMutability": "pure",
					"type": "function"
				}
			],
			"devdoc": {
				"kind": "dev",
				"methods": {},
				"version": 1
			},
			"evm": {
				"assembly": "    /* \"Basic.sol\":85:1609  contract Basics {... */\n  mstore(0x40, 0x80)\n    /* \"Basic.sol\":262:263  0 */\n  0x00\n    /* \"Basic.sol\":239:263  uint256 public coins = 0 */\n  0x01\n  sstore\n    /* \"Basic.sol\":762:763  0 */\n  0x00\n    /* \"Basic.sol\":731:763  uint256 public normalStorage = 0 */\n  0x02\n  sstore\n    /* \"Basic.sol\":157:207  constructor(){... */\n  callvalue\n  dup1\n  iszero\n  tag_1\n  jumpi\n  0x00\n  dup1\n  revert\ntag_1:\n  pop\n    /* \"Basic.sol\":189:199  msg.sender */\n  caller\n    /* \"Basic.sol\":181:186  owner */\n  0x00\n  dup1\n    /* \"Basic.sol\":181:199  owner = msg.sender */\n  0x0100\n  exp\n  dup2\n  sload\n  dup2\n  0xffffffffffffffffffffffffffffffffffffffff\n  mul\n  not\n  and\n  swap1\n  dup4\n  0xffffffffffffffffffffffffffffffffffffffff\n  and\n  mul\n  or\n  swap1\n  sstore\n  pop\n    /* \"Basic.sol\":85:1609  contract Basics {... */\n  dataSize(sub_0)\n  dup1\n  dataOffset(sub_0)\n  0x00\n  codecopy\n  0x00\n  return\nstop\n\nsub_0: assembly {\n        /* \"Basic.sol\":85:1609  contract Basics {... */\n      mstore(0x40, 0x80)\n      callvalue\n      dup1\n      iszero\n      tag_1\n      jumpi\n      0x00\n      dup1\n      revert\n    tag_1:\n      pop\n      jumpi(tag_2, lt(calldatasize, 0x04))\n      shr(0xe0, calldataload(0x00))\n      dup1\n      0x60fe47b1\n      gt\n      tag_13\n      jumpi\n      dup1\n      0x60fe47b1\n      eq\n      tag_8\n      jumpi\n      dup1\n      0x8da5cb5b\n      eq\n      tag_9\n      jumpi\n      dup1\n      0xb0e0e29c\n      eq\n      tag_10\n      jumpi\n      dup1\n      0xcbaff5f9\n      eq\n      tag_11\n      jumpi\n      dup1\n      0xd157df11\n      eq\n      tag_12\n      jumpi\n      jump(tag_2)\n    tag_13:\n      dup1\n      0x138ef151\n      eq\n      tag_3\n      jumpi\n      dup1\n      0x22fcefbe\n      eq\n      tag_4\n      jumpi\n      dup1\n      0x3f7ae679\n      eq\n      tag_5\n      jumpi\n      dup1\n      0x4f2be91f\n      eq\n      tag_6\n      jumpi\n      dup1\n      0x509d1e17\n      eq\n      tag_7\n      jumpi\n    tag_2:\n      0x00\n      dup1\n      revert\n        /* \"Basic.sol\":966:1080  function stack() public pure  {... */\n    tag_3:\n      tag_14\n      tag_15\n      jump\t// in\n    tag_14:\n      stop\n        /* \"Basic.sol\":239:263  uint256 public coins = 0 */\n    tag_4:\n      tag_16\n      tag_17\n      jump\t// in\n    tag_16:\n      mload(0x40)\n      tag_18\n      swap2\n      swap1\n      tag_19\n      jump\t// in\n    tag_18:\n      mload(0x40)\n      dup1\n      swap2\n      sub\n      swap1\n      return\n        /* \"Basic.sol\":1110:1265  function callDataStorage(string calldata _coins) public onlyOwner {... */\n    tag_5:\n      tag_20\n      0x04\n      dup1\n      calldatasize\n      sub\n      dup2\n      add\n      swap1\n      tag_21\n      swap2\n      swap1\n      tag_22\n      jump\t// in\n    tag_21:\n      tag_23\n      jump\t// in\n    tag_20:\n      stop\n        /* \"Basic.sol\":270:365  function add() public {... */\n    tag_6:\n      tag_24\n      tag_25\n      jump\t// in\n    tag_24:\n      stop\n        /* \"Basic.sol\":731:763  uint256 public normalStorage = 0 */\n    tag_7:\n      tag_26\n      tag_27\n      jump\t// in\n    tag_26:\n      mload(0x40)\n      tag_28\n      swap2\n      swap1\n      tag_19\n      jump\t// in\n    tag_28:\n      mload(0x40)\n      dup1\n      swap2\n      sub\n      swap1\n      return\n        /* \"Basic.sol\":505:584  function set(uint256 _coins) public onlyOwner {... */\n    tag_8:\n      tag_29\n      0x04\n      dup1\n      calldatasize\n      sub\n      dup2\n      add\n      swap1\n      tag_30\n      swap2\n      swap1\n      tag_31\n      jump\t// in\n    tag_30:\n      tag_32\n      jump\t// in\n    tag_29:\n      stop\n        /* \"Basic.sol\":130:150  address public owner */\n    tag_9:\n      tag_33\n      tag_34\n      jump\t// in\n    tag_33:\n      mload(0x40)\n      tag_35\n      swap2\n      swap1\n      tag_36\n      jump\t// in\n    tag_35:\n      mload(0x40)\n      dup1\n      swap2\n      sub\n      swap1\n      return\n        /* \"Basic.sol\":790:941  function MemoryStorage(string memory _coins) public onlyOwner {... */\n    tag_10:\n      tag_37\n      0x04\n      dup1\n      calldatasize\n      sub\n      dup2\n      add\n      swap1\n      tag_38\n      swap2\n      swap1\n      tag_39\n      jump\t// in\n    tag_38:\n      tag_40\n      jump\t// in\n    tag_37:\n      stop\n        /* \"Basic.sol\":1407:1477  function assertError() public pure   {... */\n    tag_11:\n      tag_41\n      tag_42\n      jump\t// in\n    tag_41:\n      stop\n        /* \"Basic.sol\":1503:1602  function revertError() public pure   {... */\n    tag_12:\n      tag_43\n      tag_44\n      jump\t// in\n    tag_43:\n      stop\n        /* \"Basic.sol\":966:1080  function stack() public pure  {... */\n    tag_15:\n      jump\t// out\n        /* \"Basic.sol\":239:263  uint256 public coins = 0 */\n    tag_17:\n      sload(0x01)\n      dup2\n      jump\t// out\n        /* \"Basic.sol\":1110:1265  function callDataStorage(string calldata _coins) public onlyOwner {... */\n    tag_23:\n        /* \"Basic.sol\":449:454  owner */\n      0x00\n      dup1\n      sload\n      swap1\n      0x0100\n      exp\n      swap1\n      div\n      0xffffffffffffffffffffffffffffffffffffffff\n      and\n        /* \"Basic.sol\":435:454  msg.sender == owner */\n      0xffffffffffffffffffffffffffffffffffffffff\n      and\n        /* \"Basic.sol\":435:445  msg.sender */\n      caller\n        /* \"Basic.sol\":435:454  msg.sender == owner */\n      0xffffffffffffffffffffffffffffffffffffffff\n      and\n      eq\n        /* \"Basic.sol\":427:479  require(msg.sender == owner,\"You are not the owner\") */\n      tag_48\n      jumpi\n      mload(0x40)\n      0x08c379a000000000000000000000000000000000000000000000000000000000\n      dup2\n      mstore\n      0x04\n      add\n      tag_49\n      swap1\n      tag_50\n      jump\t// in\n    tag_49:\n      mload(0x40)\n      dup1\n      swap2\n      sub\n      swap1\n      revert\n    tag_48:\n        /* \"Basic.sol\":1110:1265  function callDataStorage(string calldata _coins) public onlyOwner {... */\n      pop\n      pop\n      jump\t// out\n        /* \"Basic.sol\":270:365  function add() public {... */\n    tag_25:\n        /* \"Basic.sol\":318:319  3 */\n      0x03\n        /* \"Basic.sol\":311:316  coins */\n      sload(0x01)\n        /* \"Basic.sol\":311:319  coins<=3 */\n      gt\n      iszero\n        /* \"Basic.sol\":303:339  require(coins<=3,\"Too many Coins!!\") */\n      tag_53\n      jumpi\n      mload(0x40)\n      0x08c379a000000000000000000000000000000000000000000000000000000000\n      dup2\n      mstore\n      0x04\n      add\n      tag_54\n      swap1\n      tag_55\n      jump\t// in\n    tag_54:\n      mload(0x40)\n      dup1\n      swap2\n      sub\n      swap1\n      revert\n    tag_53:\n        /* \"Basic.sol\":350:355  coins */\n      0x01\n      0x00\n        /* \"Basic.sol\":350:357  coins++ */\n      dup2\n      sload\n      dup1\n      swap3\n      swap2\n      swap1\n      tag_56\n      swap1\n      tag_57\n      jump\t// in\n    tag_56:\n      swap2\n      swap1\n      pop\n      sstore\n      pop\n        /* \"Basic.sol\":270:365  function add() public {... */\n      jump\t// out\n        /* \"Basic.sol\":731:763  uint256 public normalStorage = 0 */\n    tag_27:\n      sload(0x02)\n      dup2\n      jump\t// out\n        /* \"Basic.sol\":505:584  function set(uint256 _coins) public onlyOwner {... */\n    tag_32:\n        /* \"Basic.sol\":449:454  owner */\n      0x00\n      dup1\n      sload\n      swap1\n      0x0100\n      exp\n      swap1\n      div\n      0xffffffffffffffffffffffffffffffffffffffff\n      and\n        /* \"Basic.sol\":435:454  msg.sender == owner */\n      0xffffffffffffffffffffffffffffffffffffffff\n      and\n        /* \"Basic.sol\":435:445  msg.sender */\n      caller\n        /* \"Basic.sol\":435:454  msg.sender == owner */\n      0xffffffffffffffffffffffffffffffffffffffff\n      and\n      eq\n        /* \"Basic.sol\":427:479  require(msg.sender == owner,\"You are not the owner\") */\n      tag_59\n      jumpi\n      mload(0x40)\n      0x08c379a000000000000000000000000000000000000000000000000000000000\n      dup2\n      mstore\n      0x04\n      add\n      tag_60\n      swap1\n      tag_50\n      jump\t// in\n    tag_60:\n      mload(0x40)\n      dup1\n      swap2\n      sub\n      swap1\n      revert\n    tag_59:\n        /* \"Basic.sol\":570:576  _coins */\n      dup1\n        /* \"Basic.sol\":562:567  coins */\n      0x01\n        /* \"Basic.sol\":562:576  coins = _coins */\n      dup2\n      swap1\n      sstore\n      pop\n        /* \"Basic.sol\":505:584  function set(uint256 _coins) public onlyOwner {... */\n      pop\n      jump\t// out\n        /* \"Basic.sol\":130:150  address public owner */\n    tag_34:\n      0x00\n      dup1\n      sload\n      swap1\n      0x0100\n      exp\n      swap1\n      div\n      0xffffffffffffffffffffffffffffffffffffffff\n      and\n      dup2\n      jump\t// out\n        /* \"Basic.sol\":790:941  function MemoryStorage(string memory _coins) public onlyOwner {... */\n    tag_40:\n        /* \"Basic.sol\":449:454  owner */\n      0x00\n      dup1\n      sload\n      swap1\n      0x0100\n      exp\n      swap1\n      div\n      0xffffffffffffffffffffffffffffffffffffffff\n      and\n        /* \"Basic.sol\":435:454  msg.sender == owner */\n      0xffffffffffffffffffffffffffffffffffffffff\n      and\n        /* \"Basic.sol\":435:445  msg.sender */\n      caller\n        /* \"Basic.sol\":435:454  msg.sender == owner */\n      0xffffffffffffffffffffffffffffffffffffffff\n      and\n      eq\n        /* \"Basic.sol\":427:479  require(msg.sender == owner,\"You are not the owner\") */\n      tag_63\n      jumpi\n      mload(0x40)\n      0x08c379a000000000000000000000000000000000000000000000000000000000\n      dup2\n      mstore\n      0x04\n      add\n      tag_64\n      swap1\n      tag_50\n      jump\t// in\n    tag_64:\n      mload(0x40)\n      dup1\n      swap2\n      sub\n      swap1\n      revert\n    tag_63:\n        /* \"Basic.sol\":790:941  function MemoryStorage(string memory _coins) public onlyOwner {... */\n      pop\n      jump\t// out\n        /* \"Basic.sol\":1407:1477  function assertError() public pure   {... */\n    tag_42:\n        /* \"Basic.sol\":1466:1468  10 */\n      0x0a\n        /* \"Basic.sol\":1462:1464  10 */\n      dup1\n        /* \"Basic.sol\":1462:1468  10==10 */\n      eq\n        /* \"Basic.sol\":1455:1469  assert(10==10) */\n      tag_67\n      jumpi\n      tag_68\n      tag_69\n      jump\t// in\n    tag_68:\n    tag_67:\n        /* \"Basic.sol\":1407:1477  function assertError() public pure   {... */\n      jump\t// out\n        /* \"Basic.sol\":1503:1602  function revertError() public pure   {... */\n    tag_44:\n        /* \"Basic.sol\":1558:1559  5 */\n      0x05\n        /* \"Basic.sol\":1555:1557  10 */\n      0x0a\n        /* \"Basic.sol\":1555:1559  10<5 */\n      lt\n        /* \"Basic.sol\":1551:1595  if (10<5){... */\n      iszero\n      tag_71\n      jumpi\n        /* \"Basic.sol\":1575:1583  revert() */\n      0x00\n      dup1\n      revert\n        /* \"Basic.sol\":1551:1595  if (10<5){... */\n    tag_71:\n        /* \"Basic.sol\":1503:1602  function revertError() public pure   {... */\n      jump\t// out\n        /* \"#utility.yul\":7:84   */\n    tag_72:\n        /* \"#utility.yul\":44:51   */\n      0x00\n        /* \"#utility.yul\":73:78   */\n      dup2\n        /* \"#utility.yul\":62:78   */\n      swap1\n      pop\n        /* \"#utility.yul\":7:84   */\n      swap2\n      swap1\n      pop\n      jump\t// out\n        /* \"#utility.yul\":90:208   */\n    tag_73:\n        /* \"#utility.yul\":177:201   */\n      tag_104\n        /* \"#utility.yul\":195:200   */\n      dup2\n        /* \"#utility.yul\":177:201   */\n      tag_72\n      jump\t// in\n    tag_104:\n        /* \"#utility.yul\":172:175   */\n      dup3\n        /* \"#utility.yul\":165:202   */\n      mstore\n        /* \"#utility.yul\":90:208   */\n      pop\n      pop\n      jump\t// out\n        /* \"#utility.yul\":214:436   */\n    tag_19:\n        /* \"#utility.yul\":307:311   */\n      0x00\n        /* \"#utility.yul\":345:347   */\n      0x20\n        /* \"#utility.yul\":334:343   */\n      dup3\n        /* \"#utility.yul\":330:348   */\n      add\n        /* \"#utility.yul\":322:348   */\n      swap1\n      pop\n        /* \"#utility.yul\":358:429   */\n      tag_106\n        /* \"#utility.yul\":426:427   */\n      0x00\n        /* \"#utility.yul\":415:424   */\n      dup4\n        /* \"#utility.yul\":411:428   */\n      add\n        /* \"#utility.yul\":402:408   */\n      dup5\n        /* \"#utility.yul\":358:429   */\n      tag_73\n      jump\t// in\n    tag_106:\n        /* \"#utility.yul\":214:436   */\n      swap3\n      swap2\n      pop\n      pop\n      jump\t// out\n        /* \"#utility.yul\":442:517   */\n    tag_74:\n        /* \"#utility.yul\":475:481   */\n      0x00\n        /* \"#utility.yul\":508:510   */\n      0x40\n        /* \"#utility.yul\":502:511   */\n      mload\n        /* \"#utility.yul\":492:511   */\n      swap1\n      pop\n        /* \"#utility.yul\":442:517   */\n      swap1\n      jump\t// out\n        /* \"#utility.yul\":523:640   */\n    tag_75:\n        /* \"#utility.yul\":632:633   */\n      0x00\n        /* \"#utility.yul\":629:630   */\n      dup1\n        /* \"#utility.yul\":622:634   */\n      revert\n        /* \"#utility.yul\":646:763   */\n    tag_76:\n        /* \"#utility.yul\":755:756   */\n      0x00\n        /* \"#utility.yul\":752:753   */\n      dup1\n        /* \"#utility.yul\":745:757   */\n      revert\n        /* \"#utility.yul\":769:886   */\n    tag_77:\n        /* \"#utility.yul\":878:879   */\n      0x00\n        /* \"#utility.yul\":875:876   */\n      dup1\n        /* \"#utility.yul\":868:880   */\n      revert\n        /* \"#utility.yul\":892:1009   */\n    tag_78:\n        /* \"#utility.yul\":1001:1002   */\n      0x00\n        /* \"#utility.yul\":998:999   */\n      dup1\n        /* \"#utility.yul\":991:1003   */\n      revert\n        /* \"#utility.yul\":1015:1132   */\n    tag_79:\n        /* \"#utility.yul\":1124:1125   */\n      0x00\n        /* \"#utility.yul\":1121:1122   */\n      dup1\n        /* \"#utility.yul\":1114:1126   */\n      revert\n        /* \"#utility.yul\":1152:1705   */\n    tag_80:\n        /* \"#utility.yul\":1210:1218   */\n      0x00\n        /* \"#utility.yul\":1220:1226   */\n      dup1\n        /* \"#utility.yul\":1270:1273   */\n      dup4\n        /* \"#utility.yul\":1263:1267   */\n      0x1f\n        /* \"#utility.yul\":1255:1261   */\n      dup5\n        /* \"#utility.yul\":1251:1268   */\n      add\n        /* \"#utility.yul\":1247:1274   */\n      slt\n        /* \"#utility.yul\":1237:1359   */\n      tag_114\n      jumpi\n        /* \"#utility.yul\":1278:1357   */\n      tag_115\n      tag_77\n      jump\t// in\n    tag_115:\n        /* \"#utility.yul\":1237:1359   */\n    tag_114:\n        /* \"#utility.yul\":1391:1397   */\n      dup3\n        /* \"#utility.yul\":1378:1398   */\n      calldataload\n        /* \"#utility.yul\":1368:1398   */\n      swap1\n      pop\n        /* \"#utility.yul\":1421:1439   */\n      0xffffffffffffffff\n        /* \"#utility.yul\":1413:1419   */\n      dup2\n        /* \"#utility.yul\":1410:1440   */\n      gt\n        /* \"#utility.yul\":1407:1524   */\n      iszero\n      tag_116\n      jumpi\n        /* \"#utility.yul\":1443:1522   */\n      tag_117\n      tag_78\n      jump\t// in\n    tag_117:\n        /* \"#utility.yul\":1407:1524   */\n    tag_116:\n        /* \"#utility.yul\":1557:1561   */\n      0x20\n        /* \"#utility.yul\":1549:1555   */\n      dup4\n        /* \"#utility.yul\":1545:1562   */\n      add\n        /* \"#utility.yul\":1533:1562   */\n      swap2\n      pop\n        /* \"#utility.yul\":1611:1614   */\n      dup4\n        /* \"#utility.yul\":1603:1607   */\n      0x01\n        /* \"#utility.yul\":1595:1601   */\n      dup3\n        /* \"#utility.yul\":1591:1608   */\n      mul\n        /* \"#utility.yul\":1581:1589   */\n      dup4\n        /* \"#utility.yul\":1577:1609   */\n      add\n        /* \"#utility.yul\":1574:1615   */\n      gt\n        /* \"#utility.yul\":1571:1699   */\n      iszero\n      tag_118\n      jumpi\n        /* \"#utility.yul\":1618:1697   */\n      tag_119\n      tag_79\n      jump\t// in\n    tag_119:\n        /* \"#utility.yul\":1571:1699   */\n    tag_118:\n        /* \"#utility.yul\":1152:1705   */\n      swap3\n      pop\n      swap3\n      swap1\n      pop\n      jump\t// out\n        /* \"#utility.yul\":1711:2240   */\n    tag_22:\n        /* \"#utility.yul\":1782:1788   */\n      0x00\n        /* \"#utility.yul\":1790:1796   */\n      dup1\n        /* \"#utility.yul\":1839:1841   */\n      0x20\n        /* \"#utility.yul\":1827:1836   */\n      dup4\n        /* \"#utility.yul\":1818:1825   */\n      dup6\n        /* \"#utility.yul\":1814:1837   */\n      sub\n        /* \"#utility.yul\":1810:1842   */\n      slt\n        /* \"#utility.yul\":1807:1926   */\n      iszero\n      tag_121\n      jumpi\n        /* \"#utility.yul\":1845:1924   */\n      tag_122\n      tag_75\n      jump\t// in\n    tag_122:\n        /* \"#utility.yul\":1807:1926   */\n    tag_121:\n        /* \"#utility.yul\":1993:1994   */\n      0x00\n        /* \"#utility.yul\":1982:1991   */\n      dup4\n        /* \"#utility.yul\":1978:1995   */\n      add\n        /* \"#utility.yul\":1965:1996   */\n      calldataload\n        /* \"#utility.yul\":2023:2041   */\n      0xffffffffffffffff\n        /* \"#utility.yul\":2015:2021   */\n      dup2\n        /* \"#utility.yul\":2012:2042   */\n      gt\n        /* \"#utility.yul\":2009:2126   */\n      iszero\n      tag_123\n      jumpi\n        /* \"#utility.yul\":2045:2124   */\n      tag_124\n      tag_76\n      jump\t// in\n    tag_124:\n        /* \"#utility.yul\":2009:2126   */\n    tag_123:\n        /* \"#utility.yul\":2158:2223   */\n      tag_125\n        /* \"#utility.yul\":2215:2222   */\n      dup6\n        /* \"#utility.yul\":2206:2212   */\n      dup3\n        /* \"#utility.yul\":2195:2204   */\n      dup7\n        /* \"#utility.yul\":2191:2213   */\n      add\n        /* \"#utility.yul\":2158:2223   */\n      tag_80\n      jump\t// in\n    tag_125:\n        /* \"#utility.yul\":2140:2223   */\n      swap3\n      pop\n      swap3\n      pop\n        /* \"#utility.yul\":1936:2233   */\n      pop\n        /* \"#utility.yul\":1711:2240   */\n      swap3\n      pop\n      swap3\n      swap1\n      pop\n      jump\t// out\n        /* \"#utility.yul\":2246:2368   */\n    tag_81:\n        /* \"#utility.yul\":2319:2343   */\n      tag_127\n        /* \"#utility.yul\":2337:2342   */\n      dup2\n        /* \"#utility.yul\":2319:2343   */\n      tag_72\n      jump\t// in\n    tag_127:\n        /* \"#utility.yul\":2312:2317   */\n      dup2\n        /* \"#utility.yul\":2309:2344   */\n      eq\n        /* \"#utility.yul\":2299:2362   */\n      tag_128\n      jumpi\n        /* \"#utility.yul\":2358:2359   */\n      0x00\n        /* \"#utility.yul\":2355:2356   */\n      dup1\n        /* \"#utility.yul\":2348:2360   */\n      revert\n        /* \"#utility.yul\":2299:2362   */\n    tag_128:\n        /* \"#utility.yul\":2246:2368   */\n      pop\n      jump\t// out\n        /* \"#utility.yul\":2374:2513   */\n    tag_82:\n        /* \"#utility.yul\":2420:2425   */\n      0x00\n        /* \"#utility.yul\":2458:2464   */\n      dup2\n        /* \"#utility.yul\":2445:2465   */\n      calldataload\n        /* \"#utility.yul\":2436:2465   */\n      swap1\n      pop\n        /* \"#utility.yul\":2474:2507   */\n      tag_130\n        /* \"#utility.yul\":2501:2506   */\n      dup2\n        /* \"#utility.yul\":2474:2507   */\n      tag_81\n      jump\t// in\n    tag_130:\n        /* \"#utility.yul\":2374:2513   */\n      swap3\n      swap2\n      pop\n      pop\n      jump\t// out\n        /* \"#utility.yul\":2519:2848   */\n    tag_31:\n        /* \"#utility.yul\":2578:2584   */\n      0x00\n        /* \"#utility.yul\":2627:2629   */\n      0x20\n        /* \"#utility.yul\":2615:2624   */\n      dup3\n        /* \"#utility.yul\":2606:2613   */\n      dup5\n        /* \"#utility.yul\":2602:2625   */\n      sub\n        /* \"#utility.yul\":2598:2630   */\n      slt\n        /* \"#utility.yul\":2595:2714   */\n      iszero\n      tag_132\n      jumpi\n        /* \"#utility.yul\":2633:2712   */\n      tag_133\n      tag_75\n      jump\t// in\n    tag_133:\n        /* \"#utility.yul\":2595:2714   */\n    tag_132:\n        /* \"#utility.yul\":2753:2754   */\n      0x00\n        /* \"#utility.yul\":2778:2831   */\n      tag_134\n        /* \"#utility.yul\":2823:2830   */\n      dup5\n        /* \"#utility.yul\":2814:2820   */\n      dup3\n        /* \"#utility.yul\":2803:2812   */\n      dup6\n        /* \"#utility.yul\":2799:2821   */\n      add\n        /* \"#utility.yul\":2778:2831   */\n      tag_82\n      jump\t// in\n    tag_134:\n        /* \"#utility.yul\":2768:2831   */\n      swap2\n      pop\n        /* \"#utility.yul\":2724:2841   */\n      pop\n        /* \"#utility.yul\":2519:2848   */\n      swap3\n      swap2\n      pop\n      pop\n      jump\t// out\n        /* \"#utility.yul\":2854:2980   */\n    tag_83:\n        /* \"#utility.yul\":2891:2898   */\n      0x00\n        /* \"#utility.yul\":2931:2973   */\n      0xffffffffffffffffffffffffffffffffffffffff\n        /* \"#utility.yul\":2924:2929   */\n      dup3\n        /* \"#utility.yul\":2920:2974   */\n      and\n        /* \"#utility.yul\":2909:2974   */\n      swap1\n      pop\n        /* \"#utility.yul\":2854:2980   */\n      swap2\n      swap1\n      pop\n      jump\t// out\n        /* \"#utility.yul\":2986:3082   */\n    tag_84:\n        /* \"#utility.yul\":3023:3030   */\n      0x00\n        /* \"#utility.yul\":3052:3076   */\n      tag_137\n        /* \"#utility.yul\":3070:3075   */\n      dup3\n        /* \"#utility.yul\":3052:3076   */\n      tag_83\n      jump\t// in\n    tag_137:\n        /* \"#utility.yul\":3041:3076   */\n      swap1\n      pop\n        /* \"#utility.yul\":2986:3082   */\n      swap2\n      swap1\n      pop\n      jump\t// out\n        /* \"#utility.yul\":3088:3206   */\n    tag_85:\n        /* \"#utility.yul\":3175:3199   */\n      tag_139\n        /* \"#utility.yul\":3193:3198   */\n      dup2\n        /* \"#utility.yul\":3175:3199   */\n      tag_84\n      jump\t// in\n    tag_139:\n        /* \"#utility.yul\":3170:3173   */\n      dup3\n        /* \"#utility.yul\":3163:3200   */\n      mstore\n        /* \"#utility.yul\":3088:3206   */\n      pop\n      pop\n      jump\t// out\n        /* \"#utility.yul\":3212:3434   */\n    tag_36:\n        /* \"#utility.yul\":3305:3309   */\n      0x00\n        /* \"#utility.yul\":3343:3345   */\n      0x20\n        /* \"#utility.yul\":3332:3341   */\n      dup3\n        /* \"#utility.yul\":3328:3346   */\n      add\n        /* \"#utility.yul\":3320:3346   */\n      swap1\n      pop\n        /* \"#utility.yul\":3356:3427   */\n      tag_141\n        /* \"#utility.yul\":3424:3425   */\n      0x00\n        /* \"#utility.yul\":3413:3422   */\n      dup4\n        /* \"#utility.yul\":3409:3426   */\n      add\n        /* \"#utility.yul\":3400:3406   */\n      dup5\n        /* \"#utility.yul\":3356:3427   */\n      tag_85\n      jump\t// in\n    tag_141:\n        /* \"#utility.yul\":3212:3434   */\n      swap3\n      swap2\n      pop\n      pop\n      jump\t// out\n        /* \"#utility.yul\":3440:3557   */\n    tag_86:\n        /* \"#utility.yul\":3549:3550   */\n      0x00\n        /* \"#utility.yul\":3546:3547   */\n      dup1\n        /* \"#utility.yul\":3539:3551   */\n      revert\n        /* \"#utility.yul\":3563:3665   */\n    tag_87:\n        /* \"#utility.yul\":3604:3610   */\n      0x00\n        /* \"#utility.yul\":3655:3657   */\n      0x1f\n        /* \"#utility.yul\":3651:3658   */\n      not\n        /* \"#utility.yul\":3646:3648   */\n      0x1f\n        /* \"#utility.yul\":3639:3644   */\n      dup4\n        /* \"#utility.yul\":3635:3649   */\n      add\n        /* \"#utility.yul\":3631:3659   */\n      and\n        /* \"#utility.yul\":3621:3659   */\n      swap1\n      pop\n        /* \"#utility.yul\":3563:3665   */\n      swap2\n      swap1\n      pop\n      jump\t// out\n        /* \"#utility.yul\":3671:3851   */\n    tag_88:\n        /* \"#utility.yul\":3719:3796   */\n      0x4e487b7100000000000000000000000000000000000000000000000000000000\n        /* \"#utility.yul\":3716:3717   */\n      0x00\n        /* \"#utility.yul\":3709:3797   */\n      mstore\n        /* \"#utility.yul\":3816:3820   */\n      0x41\n        /* \"#utility.yul\":3813:3814   */\n      0x04\n        /* \"#utility.yul\":3806:3821   */\n      mstore\n        /* \"#utility.yul\":3840:3844   */\n      0x24\n        /* \"#utility.yul\":3837:3838   */\n      0x00\n        /* \"#utility.yul\":3830:3845   */\n      revert\n        /* \"#utility.yul\":3857:4138   */\n    tag_89:\n        /* \"#utility.yul\":3940:3967   */\n      tag_146\n        /* \"#utility.yul\":3962:3966   */\n      dup3\n        /* \"#utility.yul\":3940:3967   */\n      tag_87\n      jump\t// in\n    tag_146:\n        /* \"#utility.yul\":3932:3938   */\n      dup2\n        /* \"#utility.yul\":3928:3968   */\n      add\n        /* \"#utility.yul\":4070:4076   */\n      dup2\n        /* \"#utility.yul\":4058:4068   */\n      dup2\n        /* \"#utility.yul\":4055:4077   */\n      lt\n        /* \"#utility.yul\":4034:4052   */\n      0xffffffffffffffff\n        /* \"#utility.yul\":4022:4032   */\n      dup3\n        /* \"#utility.yul\":4019:4053   */\n      gt\n        /* \"#utility.yul\":4016:4078   */\n      or\n        /* \"#utility.yul\":4013:4101   */\n      iszero\n      tag_147\n      jumpi\n        /* \"#utility.yul\":4081:4099   */\n      tag_148\n      tag_88\n      jump\t// in\n    tag_148:\n        /* \"#utility.yul\":4013:4101   */\n    tag_147:\n        /* \"#utility.yul\":4121:4131   */\n      dup1\n        /* \"#utility.yul\":4117:4119   */\n      0x40\n        /* \"#utility.yul\":4110:4132   */\n      mstore\n        /* \"#utility.yul\":3900:4138   */\n      pop\n        /* \"#utility.yul\":3857:4138   */\n      pop\n      pop\n      jump\t// out\n        /* \"#utility.yul\":4144:4273   */\n    tag_90:\n        /* \"#utility.yul\":4178:4184   */\n      0x00\n        /* \"#utility.yul\":4205:4225   */\n      tag_150\n      tag_74\n      jump\t// in\n    tag_150:\n        /* \"#utility.yul\":4195:4225   */\n      swap1\n      pop\n        /* \"#utility.yul\":4234:4267   */\n      tag_151\n        /* \"#utility.yul\":4262:4266   */\n      dup3\n        /* \"#utility.yul\":4254:4260   */\n      dup3\n        /* \"#utility.yul\":4234:4267   */\n      tag_89\n      jump\t// in\n    tag_151:\n        /* \"#utility.yul\":4144:4273   */\n      swap2\n      swap1\n      pop\n      jump\t// out\n        /* \"#utility.yul\":4279:4587   */\n    tag_91:\n        /* \"#utility.yul\":4341:4345   */\n      0x00\n        /* \"#utility.yul\":4431:4449   */\n      0xffffffffffffffff\n        /* \"#utility.yul\":4423:4429   */\n      dup3\n        /* \"#utility.yul\":4420:4450   */\n      gt\n        /* \"#utility.yul\":4417:4473   */\n      iszero\n      tag_153\n      jumpi\n        /* \"#utility.yul\":4453:4471   */\n      tag_154\n      tag_88\n      jump\t// in\n    tag_154:\n        /* \"#utility.yul\":4417:4473   */\n    tag_153:\n        /* \"#utility.yul\":4491:4520   */\n      tag_155\n        /* \"#utility.yul\":4513:4519   */\n      dup3\n        /* \"#utility.yul\":4491:4520   */\n      tag_87\n      jump\t// in\n    tag_155:\n        /* \"#utility.yul\":4483:4520   */\n      swap1\n      pop\n        /* \"#utility.yul\":4575:4579   */\n      0x20\n        /* \"#utility.yul\":4569:4573   */\n      dup2\n        /* \"#utility.yul\":4565:4580   */\n      add\n        /* \"#utility.yul\":4557:4580   */\n      swap1\n      pop\n        /* \"#utility.yul\":4279:4587   */\n      swap2\n      swap1\n      pop\n      jump\t// out\n        /* \"#utility.yul\":4593:4741   */\n    tag_92:\n        /* \"#utility.yul\":4691:4697   */\n      dup3\n        /* \"#utility.yul\":4686:4689   */\n      dup2\n        /* \"#utility.yul\":4681:4684   */\n      dup4\n        /* \"#utility.yul\":4668:4698   */\n      calldatacopy\n        /* \"#utility.yul\":4732:4733   */\n      0x00\n        /* \"#utility.yul\":4723:4729   */\n      dup4\n        /* \"#utility.yul\":4718:4721   */\n      dup4\n        /* \"#utility.yul\":4714:4730   */\n      add\n        /* \"#utility.yul\":4707:4734   */\n      mstore\n        /* \"#utility.yul\":4593:4741   */\n      pop\n      pop\n      pop\n      jump\t// out\n        /* \"#utility.yul\":4747:5172   */\n    tag_93:\n        /* \"#utility.yul\":4825:4830   */\n      0x00\n        /* \"#utility.yul\":4850:4916   */\n      tag_158\n        /* \"#utility.yul\":4866:4915   */\n      tag_159\n        /* \"#utility.yul\":4908:4914   */\n      dup5\n        /* \"#utility.yul\":4866:4915   */\n      tag_91\n      jump\t// in\n    tag_159:\n        /* \"#utility.yul\":4850:4916   */\n      tag_90\n      jump\t// in\n    tag_158:\n        /* \"#utility.yul\":4841:4916   */\n      swap1\n      pop\n        /* \"#utility.yul\":4939:4945   */\n      dup3\n        /* \"#utility.yul\":4932:4937   */\n      dup2\n        /* \"#utility.yul\":4925:4946   */\n      mstore\n        /* \"#utility.yul\":4977:4981   */\n      0x20\n        /* \"#utility.yul\":4970:4975   */\n      dup2\n        /* \"#utility.yul\":4966:4982   */\n      add\n        /* \"#utility.yul\":5015:5018   */\n      dup5\n        /* \"#utility.yul\":5006:5012   */\n      dup5\n        /* \"#utility.yul\":5001:5004   */\n      dup5\n        /* \"#utility.yul\":4997:5013   */\n      add\n        /* \"#utility.yul\":4994:5019   */\n      gt\n        /* \"#utility.yul\":4991:5103   */\n      iszero\n      tag_160\n      jumpi\n        /* \"#utility.yul\":5022:5101   */\n      tag_161\n      tag_86\n      jump\t// in\n    tag_161:\n        /* \"#utility.yul\":4991:5103   */\n    tag_160:\n        /* \"#utility.yul\":5112:5166   */\n      tag_162\n        /* \"#utility.yul\":5159:5165   */\n      dup5\n        /* \"#utility.yul\":5154:5157   */\n      dup3\n        /* \"#utility.yul\":5149:5152   */\n      dup6\n        /* \"#utility.yul\":5112:5166   */\n      tag_92\n      jump\t// in\n    tag_162:\n        /* \"#utility.yul\":4831:5172   */\n      pop\n        /* \"#utility.yul\":4747:5172   */\n      swap4\n      swap3\n      pop\n      pop\n      pop\n      jump\t// out\n        /* \"#utility.yul\":5192:5532   */\n    tag_94:\n        /* \"#utility.yul\":5248:5253   */\n      0x00\n        /* \"#utility.yul\":5297:5300   */\n      dup3\n        /* \"#utility.yul\":5290:5294   */\n      0x1f\n        /* \"#utility.yul\":5282:5288   */\n      dup4\n        /* \"#utility.yul\":5278:5295   */\n      add\n        /* \"#utility.yul\":5274:5301   */\n      slt\n        /* \"#utility.yul\":5264:5386   */\n      tag_164\n      jumpi\n        /* \"#utility.yul\":5305:5384   */\n      tag_165\n      tag_77\n      jump\t// in\n    tag_165:\n        /* \"#utility.yul\":5264:5386   */\n    tag_164:\n        /* \"#utility.yul\":5422:5428   */\n      dup2\n        /* \"#utility.yul\":5409:5429   */\n      calldataload\n        /* \"#utility.yul\":5447:5526   */\n      tag_166\n        /* \"#utility.yul\":5522:5525   */\n      dup5\n        /* \"#utility.yul\":5514:5520   */\n      dup3\n        /* \"#utility.yul\":5507:5511   */\n      0x20\n        /* \"#utility.yul\":5499:5505   */\n      dup7\n        /* \"#utility.yul\":5495:5512   */\n      add\n        /* \"#utility.yul\":5447:5526   */\n      tag_93\n      jump\t// in\n    tag_166:\n        /* \"#utility.yul\":5438:5526   */\n      swap2\n      pop\n        /* \"#utility.yul\":5254:5532   */\n      pop\n        /* \"#utility.yul\":5192:5532   */\n      swap3\n      swap2\n      pop\n      pop\n      jump\t// out\n        /* \"#utility.yul\":5538:6047   */\n    tag_39:\n        /* \"#utility.yul\":5607:5613   */\n      0x00\n        /* \"#utility.yul\":5656:5658   */\n      0x20\n        /* \"#utility.yul\":5644:5653   */\n      dup3\n        /* \"#utility.yul\":5635:5642   */\n      dup5\n        /* \"#utility.yul\":5631:5654   */\n      sub\n        /* \"#utility.yul\":5627:5659   */\n      slt\n        /* \"#utility.yul\":5624:5743   */\n      iszero\n      tag_168\n      jumpi\n        /* \"#utility.yul\":5662:5741   */\n      tag_169\n      tag_75\n      jump\t// in\n    tag_169:\n        /* \"#utility.yul\":5624:5743   */\n    tag_168:\n        /* \"#utility.yul\":5810:5811   */\n      0x00\n        /* \"#utility.yul\":5799:5808   */\n      dup3\n        /* \"#utility.yul\":5795:5812   */\n      add\n        /* \"#utility.yul\":5782:5813   */\n      calldataload\n        /* \"#utility.yul\":5840:5858   */\n      0xffffffffffffffff\n        /* \"#utility.yul\":5832:5838   */\n      dup2\n        /* \"#utility.yul\":5829:5859   */\n      gt\n        /* \"#utility.yul\":5826:5943   */\n      iszero\n      tag_170\n      jumpi\n        /* \"#utility.yul\":5862:5941   */\n      tag_171\n      tag_76\n      jump\t// in\n    tag_171:\n        /* \"#utility.yul\":5826:5943   */\n    tag_170:\n        /* \"#utility.yul\":5967:6030   */\n      tag_172\n        /* \"#utility.yul\":6022:6029   */\n      dup5\n        /* \"#utility.yul\":6013:6019   */\n      dup3\n        /* \"#utility.yul\":6002:6011   */\n      dup6\n        /* \"#utility.yul\":5998:6020   */\n      add\n        /* \"#utility.yul\":5967:6030   */\n      tag_94\n      jump\t// in\n    tag_172:\n        /* \"#utility.yul\":5957:6030   */\n      swap2\n      pop\n        /* \"#utility.yul\":5753:6040   */\n      pop\n        /* \"#utility.yul\":5538:6047   */\n      swap3\n      swap2\n      pop\n      pop\n      jump\t// out\n        /* \"#utility.yul\":6053:6222   */\n    tag_95:\n        /* \"#utility.yul\":6137:6148   */\n      0x00\n        /* \"#utility.yul\":6171:6177   */\n      dup3\n        /* \"#utility.yul\":6166:6169   */\n      dup3\n        /* \"#utility.yul\":6159:6178   */\n      mstore\n        /* \"#utility.yul\":6211:6215   */\n      0x20\n        /* \"#utility.yul\":6206:6209   */\n      dup3\n        /* \"#utility.yul\":6202:6216   */\n      add\n        /* \"#utility.yul\":6187:6216   */\n      swap1\n      pop\n        /* \"#utility.yul\":6053:6222   */\n      swap3\n      swap2\n      pop\n      pop\n      jump\t// out\n        /* \"#utility.yul\":6228:6399   */\n    tag_96:\n        /* \"#utility.yul\":6368:6391   */\n      0x596f7520617265206e6f7420746865206f776e65720000000000000000000000\n        /* \"#utility.yul\":6364:6365   */\n      0x00\n        /* \"#utility.yul\":6356:6362   */\n      dup3\n        /* \"#utility.yul\":6352:6366   */\n      add\n        /* \"#utility.yul\":6345:6392   */\n      mstore\n        /* \"#utility.yul\":6228:6399   */\n      pop\n      jump\t// out\n        /* \"#utility.yul\":6405:6771   */\n    tag_97:\n        /* \"#utility.yul\":6547:6550   */\n      0x00\n        /* \"#utility.yul\":6568:6635   */\n      tag_176\n        /* \"#utility.yul\":6632:6634   */\n      0x15\n        /* \"#utility.yul\":6627:6630   */\n      dup4\n        /* \"#utility.yul\":6568:6635   */\n      tag_95\n      jump\t// in\n    tag_176:\n        /* \"#utility.yul\":6561:6635   */\n      swap2\n      pop\n        /* \"#utility.yul\":6644:6737   */\n      tag_177\n        /* \"#utility.yul\":6733:6736   */\n      dup3\n        /* \"#utility.yul\":6644:6737   */\n      tag_96\n      jump\t// in\n    tag_177:\n        /* \"#utility.yul\":6762:6764   */\n      0x20\n        /* \"#utility.yul\":6757:6760   */\n      dup3\n        /* \"#utility.yul\":6753:6765   */\n      add\n        /* \"#utility.yul\":6746:6765   */\n      swap1\n      pop\n        /* \"#utility.yul\":6405:6771   */\n      swap2\n      swap1\n      pop\n      jump\t// out\n        /* \"#utility.yul\":6777:7196   */\n    tag_50:\n        /* \"#utility.yul\":6943:6947   */\n      0x00\n        /* \"#utility.yul\":6981:6983   */\n      0x20\n        /* \"#utility.yul\":6970:6979   */\n      dup3\n        /* \"#utility.yul\":6966:6984   */\n      add\n        /* \"#utility.yul\":6958:6984   */\n      swap1\n      pop\n        /* \"#utility.yul\":7030:7039   */\n      dup2\n        /* \"#utility.yul\":7024:7028   */\n      dup2\n        /* \"#utility.yul\":7020:7040   */\n      sub\n        /* \"#utility.yul\":7016:7017   */\n      0x00\n        /* \"#utility.yul\":7005:7014   */\n      dup4\n        /* \"#utility.yul\":7001:7018   */\n      add\n        /* \"#utility.yul\":6994:7041   */\n      mstore\n        /* \"#utility.yul\":7058:7189   */\n      tag_179\n        /* \"#utility.yul\":7184:7188   */\n      dup2\n        /* \"#utility.yul\":7058:7189   */\n      tag_97\n      jump\t// in\n    tag_179:\n        /* \"#utility.yul\":7050:7189   */\n      swap1\n      pop\n        /* \"#utility.yul\":6777:7196   */\n      swap2\n      swap1\n      pop\n      jump\t// out\n        /* \"#utility.yul\":7202:7368   */\n    tag_98:\n        /* \"#utility.yul\":7342:7360   */\n      0x546f6f206d616e7920436f696e73212100000000000000000000000000000000\n        /* \"#utility.yul\":7338:7339   */\n      0x00\n        /* \"#utility.yul\":7330:7336   */\n      dup3\n        /* \"#utility.yul\":7326:7340   */\n      add\n        /* \"#utility.yul\":7319:7361   */\n      mstore\n        /* \"#utility.yul\":7202:7368   */\n      pop\n      jump\t// out\n        /* \"#utility.yul\":7374:7740   */\n    tag_99:\n        /* \"#utility.yul\":7516:7519   */\n      0x00\n        /* \"#utility.yul\":7537:7604   */\n      tag_182\n        /* \"#utility.yul\":7601:7603   */\n      0x10\n        /* \"#utility.yul\":7596:7599   */\n      dup4\n        /* \"#utility.yul\":7537:7604   */\n      tag_95\n      jump\t// in\n    tag_182:\n        /* \"#utility.yul\":7530:7604   */\n      swap2\n      pop\n        /* \"#utility.yul\":7613:7706   */\n      tag_183\n        /* \"#utility.yul\":7702:7705   */\n      dup3\n        /* \"#utility.yul\":7613:7706   */\n      tag_98\n      jump\t// in\n    tag_183:\n        /* \"#utility.yul\":7731:7733   */\n      0x20\n        /* \"#utility.yul\":7726:7729   */\n      dup3\n        /* \"#utility.yul\":7722:7734   */\n      add\n        /* \"#utility.yul\":7715:7734   */\n      swap1\n      pop\n        /* \"#utility.yul\":7374:7740   */\n      swap2\n      swap1\n      pop\n      jump\t// out\n        /* \"#utility.yul\":7746:8165   */\n    tag_55:\n        /* \"#utility.yul\":7912:7916   */\n      0x00\n        /* \"#utility.yul\":7950:7952   */\n      0x20\n        /* \"#utility.yul\":7939:7948   */\n      dup3\n        /* \"#utility.yul\":7935:7953   */\n      add\n        /* \"#utility.yul\":7927:7953   */\n      swap1\n      pop\n        /* \"#utility.yul\":7999:8008   */\n      dup2\n        /* \"#utility.yul\":7993:7997   */\n      dup2\n        /* \"#utility.yul\":7989:8009   */\n      sub\n        /* \"#utility.yul\":7985:7986   */\n      0x00\n        /* \"#utility.yul\":7974:7983   */\n      dup4\n        /* \"#utility.yul\":7970:7987   */\n      add\n        /* \"#utility.yul\":7963:8010   */\n      mstore\n        /* \"#utility.yul\":8027:8158   */\n      tag_185\n        /* \"#utility.yul\":8153:8157   */\n      dup2\n        /* \"#utility.yul\":8027:8158   */\n      tag_99\n      jump\t// in\n    tag_185:\n        /* \"#utility.yul\":8019:8158   */\n      swap1\n      pop\n        /* \"#utility.yul\":7746:8165   */\n      swap2\n      swap1\n      pop\n      jump\t// out\n        /* \"#utility.yul\":8171:8351   */\n    tag_100:\n        /* \"#utility.yul\":8219:8296   */\n      0x4e487b7100000000000000000000000000000000000000000000000000000000\n        /* \"#utility.yul\":8216:8217   */\n      0x00\n        /* \"#utility.yul\":8209:8297   */\n      mstore\n        /* \"#utility.yul\":8316:8320   */\n      0x11\n        /* \"#utility.yul\":8313:8314   */\n      0x04\n        /* \"#utility.yul\":8306:8321   */\n      mstore\n        /* \"#utility.yul\":8340:8344   */\n      0x24\n        /* \"#utility.yul\":8337:8338   */\n      0x00\n        /* \"#utility.yul\":8330:8345   */\n      revert\n        /* \"#utility.yul\":8357:8590   */\n    tag_57:\n        /* \"#utility.yul\":8396:8399   */\n      0x00\n        /* \"#utility.yul\":8419:8443   */\n      tag_188\n        /* \"#utility.yul\":8437:8442   */\n      dup3\n        /* \"#utility.yul\":8419:8443   */\n      tag_72\n      jump\t// in\n    tag_188:\n        /* \"#utility.yul\":8410:8443   */\n      swap2\n      pop\n        /* \"#utility.yul\":8465:8531   */\n      0xffffffffffffffffffffffffffffffffffffffffffffffffffffffffffffffff\n        /* \"#utility.yul\":8458:8463   */\n      dup3\n        /* \"#utility.yul\":8455:8532   */\n      sub\n        /* \"#utility.yul\":8452:8555   */\n      tag_189\n      jumpi\n        /* \"#utility.yul\":8535:8553   */\n      tag_190\n      tag_100\n      jump\t// in\n    tag_190:\n        /* \"#utility.yul\":8452:8555   */\n    tag_189:\n        /* \"#utility.yul\":8582:8583   */\n      0x01\n        /* \"#utility.yul\":8575:8580   */\n      dup3\n        /* \"#utility.yul\":8571:8584   */\n      add\n        /* \"#utility.yul\":8564:8584   */\n      swap1\n      pop\n        /* \"#utility.yul\":8357:8590   */\n      swap2\n      swap1\n      pop\n      jump\t// out\n        /* \"#utility.yul\":8596:8776   */\n    tag_69:\n        /* \"#utility.yul\":8644:8721   */\n      0x4e487b7100000000000000000000000000000000000000000000000000000000\n        /* \"#utility.yul\":8641:8642   */\n      0x00\n        /* \"#utility.yul\":8634:8722   */\n      mstore\n        /* \"#utility.yul\":8741:8745   */\n      0x01\n        /* \"#utility.yul\":8738:8739   */\n      0x04\n        /* \"#utility.yul\":8731:8746   */\n      mstore\n        /* \"#utility.yul\":8765:8769   */\n      0x24\n        /* \"#utility.yul\":8762:8763   */\n      0x00\n        /* \"#utility.yul\":8755:8770   */\n      revert\n\n    auxdata: 0xa26469706673582212202136e3faa9881f78cd5b6ba10c9df4b627a06294810e10a214be3b8279d2f67d64736f6c63430008190033\n}\n",
				"bytecode": {
					"linkReferences": {},
					"object": "60806040525f6001555f6002553480156016575f80fd5b50335f806101000a81548173ffffffffffffffffffffffffffffffffffffffff021916908373ffffffffffffffffffffffffffffffffffffffff1602179055506108b2806100635f395ff3fe608060405234801561000f575f80fd5b506004361061009c575f3560e01c806360fe47b11161006457806360fe47b11461010c5780638da5cb5b14610128578063b0e0e29c14610146578063cbaff5f914610162578063d157df111461016c5761009c565b8063138ef151146100a057806322fcefbe146100aa5780633f7ae679146100c85780634f2be91f146100e4578063509d1e17146100ee575b5f80fd5b6100a8610176565b005b6100b2610178565b6040516100bf91906103f9565b60405180910390f35b6100e260048036038101906100dd9190610484565b61017e565b005b6100ec61020f565b005b6100f661026e565b60405161010391906103f9565b60405180910390f35b610126600480360381019061012191906104f9565b610274565b005b61013061030b565b60405161013d9190610563565b60405180910390f35b610160600480360381019061015b91906106b4565b61032e565b005b61016a6103be565b005b6101746103d1565b005b565b60015481565b5f8054906101000a900473ffffffffffffffffffffffffffffffffffffffff1673ffffffffffffffffffffffffffffffffffffffff163373ffffffffffffffffffffffffffffffffffffffff161461020b576040517f08c379a000000000000000000000000000000000000000000000000000000000815260040161020290610755565b60405180910390fd5b5050565b60036001541115610255576040517f08c379a000000000000000000000000000000000000000000000000000000000815260040161024c906107bd565b60405180910390fd5b60015f81548092919061026790610808565b9190505550565b60025481565b5f8054906101000a900473ffffffffffffffffffffffffffffffffffffffff1673ffffffffffffffffffffffffffffffffffffffff163373ffffffffffffffffffffffffffffffffffffffff1614610301576040517f08c379a00000000000000000000000000000000000000000000000000000000081526004016102f890610755565b60405180910390fd5b8060018190555050565b5f8054906101000a900473ffffffffffffffffffffffffffffffffffffffff1681565b5f8054906101000a900473ffffffffffffffffffffffffffffffffffffffff1673ffffffffffffffffffffffffffffffffffffffff163373ffffffffffffffffffffffffffffffffffffffff16146103bb576040517f08c379a00000000000000000000000000000000000000000000000000000000081526004016103b290610755565b60405180910390fd5b50565b600a80146103cf576103ce61084f565b5b565b6005600a10156103df575f80fd5b565b5f819050919050565b6103f3816103e1565b82525050565b5f60208201905061040c5f8301846103ea565b92915050565b5f604051905090565b5f80fd5b5f80fd5b5f80fd5b5f80fd5b5f80fd5b5f8083601f84011261044457610443610423565b5b8235905067ffffffffffffffff81111561046157610460610427565b5b60208301915083600182028301111561047d5761047c61042b565b5b9250929050565b5f806020838503121561049a5761049961041b565b5b5f83013567ffffffffffffffff8111156104b7576104b661041f565b5b6104c38582860161042f565b92509250509250929050565b6104d8816103e1565b81146104e2575f80fd5b50565b5f813590506104f3816104cf565b92915050565b5f6020828403121561050e5761050d61041b565b5b5f61051b848285016104e5565b91505092915050565b5f73ffffffffffffffffffffffffffffffffffffffff82169050919050565b5f61054d82610524565b9050919050565b61055d81610543565b82525050565b5f6020820190506105765f830184610554565b92915050565b5f80fd5b5f601f19601f8301169050919050565b7f4e487b71000000000000000000000000000000000000000000000000000000005f52604160045260245ffd5b6105c682610580565b810181811067ffffffffffffffff821117156105e5576105e4610590565b5b80604052505050565b5f6105f7610412565b905061060382826105bd565b919050565b5f67ffffffffffffffff82111561062257610621610590565b5b61062b82610580565b9050602081019050919050565b828183375f83830152505050565b5f61065861065384610608565b6105ee565b9050828152602081018484840111156106745761067361057c565b5b61067f848285610638565b509392505050565b5f82601f83011261069b5761069a610423565b5b81356106ab848260208601610646565b91505092915050565b5f602082840312156106c9576106c861041b565b5b5f82013567ffffffffffffffff8111156106e6576106e561041f565b5b6106f284828501610687565b91505092915050565b5f82825260208201905092915050565b7f596f7520617265206e6f7420746865206f776e657200000000000000000000005f82015250565b5f61073f6015836106fb565b915061074a8261070b565b602082019050919050565b5f6020820190508181035f83015261076c81610733565b9050919050565b7f546f6f206d616e7920436f696e732121000000000000000000000000000000005f82015250565b5f6107a76010836106fb565b91506107b282610773565b602082019050919050565b5f6020820190508181035f8301526107d48161079b565b9050919050565b7f4e487b71000000000000000000000000000000000000000000000000000000005f52601160045260245ffd5b5f610812826103e1565b91507fffffffffffffffffffffffffffffffffffffffffffffffffffffffffffffffff8203610844576108436107db565b5b600182019050919050565b7f4e487b71000000000000000000000000000000000000000000000000000000005f52600160045260245ffdfea26469706673582212202136e3faa9881f78cd5b6ba10c9df4b627a06294810e10a214be3b8279d2f67d64736f6c63430008190033",
					"opcodes": "PUSH1 0x80 PUSH1 0x40 MSTORE PUSH0 PUSH1 0x1 SSTORE PUSH0 PUSH1 0x2 SSTORE CALLVALUE DUP1 ISZERO PUSH1 0x16 JUMPI PUSH0 DUP1 REVERT JUMPDEST POP CALLER PUSH0 DUP1 PUSH2 0x100 EXP DUP2 SLOAD DUP2 PUSH20 0xFFFFFFFFFFFFFFFFFFFFFFFFFFFFFFFFFFFFFFFF MUL NOT AND SWAP1 DUP4 PUSH20 0xFFFFFFFFFFFFFFFFFFFFFFFFFFFFFFFFFFFFFFFF AND MUL OR SWAP1 SSTORE POP PUSH2 0x8B2 DUP1 PUSH2 0x63 PUSH0 CODECOPY PUSH0 RETURN INVALID PUSH1 0x80 PUSH1 0x40 MSTORE CALLVALUE DUP1 ISZERO PUSH2 0xF JUMPI PUSH0 DUP1 REVERT JUMPDEST POP PUSH1 0x4 CALLDATASIZE LT PUSH2 0x9C JUMPI PUSH0 CALLDATALOAD PUSH1 0xE0 SHR DUP1 PUSH4 0x60FE47B1 GT PUSH2 0x64 JUMPI DUP1 PUSH4 0x60FE47B1 EQ PUSH2 0x10C JUMPI DUP1 PUSH4 0x8DA5CB5B EQ PUSH2 0x128 JUMPI DUP1 PUSH4 0xB0E0E29C EQ PUSH2 0x146 JUMPI DUP1 PUSH4 0xCBAFF5F9 EQ PUSH2 0x162 JUMPI DUP1 PUSH4 0xD157DF11 EQ PUSH2 0x16C JUMPI PUSH2 0x9C JUMP JUMPDEST DUP1 PUSH4 0x138EF151 EQ PUSH2 0xA0 JUMPI DUP1 PUSH4 0x22FCEFBE EQ PUSH2 0xAA JUMPI DUP1 PUSH4 0x3F7AE679 EQ PUSH2 0xC8 JUMPI DUP1 PUSH4 0x4F2BE91F EQ PUSH2 0xE4 JUMPI DUP1 PUSH4 0x509D1E17 EQ PUSH2 0xEE JUMPI JUMPDEST PUSH0 DUP1 REVERT JUMPDEST PUSH2 0xA8 PUSH2 0x176 JUMP JUMPDEST STOP JUMPDEST PUSH2 0xB2 PUSH2 0x178 JUMP JUMPDEST PUSH1 0x40 MLOAD PUSH2 0xBF SWAP2 SWAP1 PUSH2 0x3F9 JUMP JUMPDEST PUSH1 0x40 MLOAD DUP1 SWAP2 SUB SWAP1 RETURN JUMPDEST PUSH2 0xE2 PUSH1 0x4 DUP1 CALLDATASIZE SUB DUP2 ADD SWAP1 PUSH2 0xDD SWAP2 SWAP1 PUSH2 0x484 JUMP JUMPDEST PUSH2 0x17E JUMP JUMPDEST STOP JUMPDEST PUSH2 0xEC PUSH2 0x20F JUMP JUMPDEST STOP JUMPDEST PUSH2 0xF6 PUSH2 0x26E JUMP JUMPDEST PUSH1 0x40 MLOAD PUSH2 0x103 SWAP2 SWAP1 PUSH2 0x3F9 JUMP JUMPDEST PUSH1 0x40 MLOAD DUP1 SWAP2 SUB SWAP1 RETURN JUMPDEST PUSH2 0x126 PUSH1 0x4 DUP1 CALLDATASIZE SUB DUP2 ADD SWAP1 PUSH2 0x121 SWAP2 SWAP1 PUSH2 0x4F9 JUMP JUMPDEST PUSH2 0x274 JUMP JUMPDEST STOP JUMPDEST PUSH2 0x130 PUSH2 0x30B JUMP JUMPDEST PUSH1 0x40 MLOAD PUSH2 0x13D SWAP2 SWAP1 PUSH2 0x563 JUMP JUMPDEST PUSH1 0x40 MLOAD DUP1 SWAP2 SUB SWAP1 RETURN JUMPDEST PUSH2 0x160 PUSH1 0x4 DUP1 CALLDATASIZE SUB DUP2 ADD SWAP1 PUSH2 0x15B SWAP2 SWAP1 PUSH2 0x6B4 JUMP JUMPDEST PUSH2 0x32E JUMP JUMPDEST STOP JUMPDEST PUSH2 0x16A PUSH2 0x3BE JUMP JUMPDEST STOP JUMPDEST PUSH2 0x174 PUSH2 0x3D1 JUMP JUMPDEST STOP JUMPDEST JUMP JUMPDEST PUSH1 0x1 SLOAD DUP2 JUMP JUMPDEST PUSH0 DUP1 SLOAD SWAP1 PUSH2 0x100 EXP SWAP1 DIV PUSH20 0xFFFFFFFFFFFFFFFFFFFFFFFFFFFFFFFFFFFFFFFF AND PUSH20 0xFFFFFFFFFFFFFFFFFFFFFFFFFFFFFFFFFFFFFFFF AND CALLER PUSH20 0xFFFFFFFFFFFFFFFFFFFFFFFFFFFFFFFFFFFFFFFF AND EQ PUSH2 0x20B JUMPI PUSH1 0x40 MLOAD PUSH32 0x8C379A000000000000000000000000000000000000000000000000000000000 DUP2 MSTORE PUSH1 0x4 ADD PUSH2 0x202 SWAP1 PUSH2 0x755 JUMP JUMPDEST PUSH1 0x40 MLOAD DUP1 SWAP2 SUB SWAP1 REVERT JUMPDEST POP POP JUMP JUMPDEST PUSH1 0x3 PUSH1 0x1 SLOAD GT ISZERO PUSH2 0x255 JUMPI PUSH1 0x40 MLOAD PUSH32 0x8C379A000000000000000000000000000000000000000000000000000000000 DUP2 MSTORE PUSH1 0x4 ADD PUSH2 0x24C SWAP1 PUSH2 0x7BD JUMP JUMPDEST PUSH1 0x40 MLOAD DUP1 SWAP2 SUB SWAP1 REVERT JUMPDEST PUSH1 0x1 PUSH0 DUP2 SLOAD DUP1 SWAP3 SWAP2 SWAP1 PUSH2 0x267 SWAP1 PUSH2 0x808 JUMP JUMPDEST SWAP2 SWAP1 POP SSTORE POP JUMP JUMPDEST PUSH1 0x2 SLOAD DUP2 JUMP JUMPDEST PUSH0 DUP1 SLOAD SWAP1 PUSH2 0x100 EXP SWAP1 DIV PUSH20 0xFFFFFFFFFFFFFFFFFFFFFFFFFFFFFFFFFFFFFFFF AND PUSH20 0xFFFFFFFFFFFFFFFFFFFFFFFFFFFFFFFFFFFFFFFF AND CALLER PUSH20 0xFFFFFFFFFFFFFFFFFFFFFFFFFFFFFFFFFFFFFFFF AND EQ PUSH2 0x301 JUMPI PUSH1 0x40 MLOAD PUSH32 0x8C379A000000000000000000000000000000000000000000000000000000000 DUP2 MSTORE PUSH1 0x4 ADD PUSH2 0x2F8 SWAP1 PUSH2 0x755 JUMP JUMPDEST PUSH1 0x40 MLOAD DUP1 SWAP2 SUB SWAP1 REVERT JUMPDEST DUP1 PUSH1 0x1 DUP2 SWAP1 SSTORE POP POP JUMP JUMPDEST PUSH0 DUP1 SLOAD SWAP1 PUSH2 0x100 EXP SWAP1 DIV PUSH20 0xFFFFFFFFFFFFFFFFFFFFFFFFFFFFFFFFFFFFFFFF AND DUP2 JUMP JUMPDEST PUSH0 DUP1 SLOAD SWAP1 PUSH2 0x100 EXP SWAP1 DIV PUSH20 0xFFFFFFFFFFFFFFFFFFFFFFFFFFFFFFFFFFFFFFFF AND PUSH20 0xFFFFFFFFFFFFFFFFFFFFFFFFFFFFFFFFFFFFFFFF AND CALLER PUSH20 0xFFFFFFFFFFFFFFFFFFFFFFFFFFFFFFFFFFFFFFFF AND EQ PUSH2 0x3BB JUMPI PUSH1 0x40 MLOAD PUSH32 0x8C379A000000000000000000000000000000000000000000000000000000000 DUP2 MSTORE PUSH1 0x4 ADD PUSH2 0x3B2 SWAP1 PUSH2 0x755 JUMP JUMPDEST PUSH1 0x40 MLOAD DUP1 SWAP2 SUB SWAP1 REVERT JUMPDEST POP JUMP JUMPDEST PUSH1 0xA DUP1 EQ PUSH2 0x3CF JUMPI PUSH2 0x3CE PUSH2 0x84F JUMP JUMPDEST JUMPDEST JUMP JUMPDEST PUSH1 0x5 PUSH1 0xA LT ISZERO PUSH2 0x3DF JUMPI PUSH0 DUP1 REVERT JUMPDEST JUMP JUMPDEST PUSH0 DUP2 SWAP1 POP SWAP2 SWAP1 POP JUMP JUMPDEST PUSH2 0x3F3 DUP2 PUSH2 0x3E1 JUMP JUMPDEST DUP3 MSTORE POP POP JUMP JUMPDEST PUSH0 PUSH1 0x20 DUP3 ADD SWAP1 POP PUSH2 0x40C PUSH0 DUP4 ADD DUP5 PUSH2 0x3EA JUMP JUMPDEST SWAP3 SWAP2 POP POP JUMP JUMPDEST PUSH0 PUSH1 0x40 MLOAD SWAP1 POP SWAP1 JUMP JUMPDEST PUSH0 DUP1 REVERT JUMPDEST PUSH0 DUP1 REVERT JUMPDEST PUSH0 DUP1 REVERT JUMPDEST PUSH0 DUP1 REVERT JUMPDEST PUSH0 DUP1 REVERT JUMPDEST PUSH0 DUP1 DUP4 PUSH1 0x1F DUP5 ADD SLT PUSH2 0x444 JUMPI PUSH2 0x443 PUSH2 0x423 JUMP JUMPDEST JUMPDEST DUP3 CALLDATALOAD SWAP1 POP PUSH8 0xFFFFFFFFFFFFFFFF DUP2 GT ISZERO PUSH2 0x461 JUMPI PUSH2 0x460 PUSH2 0x427 JUMP JUMPDEST JUMPDEST PUSH1 0x20 DUP4 ADD SWAP2 POP DUP4 PUSH1 0x1 DUP3 MUL DUP4 ADD GT ISZERO PUSH2 0x47D JUMPI PUSH2 0x47C PUSH2 0x42B JUMP JUMPDEST JUMPDEST SWAP3 POP SWAP3 SWAP1 POP JUMP JUMPDEST PUSH0 DUP1 PUSH1 0x20 DUP4 DUP6 SUB SLT ISZERO PUSH2 0x49A JUMPI PUSH2 0x499 PUSH2 0x41B JUMP JUMPDEST JUMPDEST PUSH0 DUP4 ADD CALLDATALOAD PUSH8 0xFFFFFFFFFFFFFFFF DUP2 GT ISZERO PUSH2 0x4B7 JUMPI PUSH2 0x4B6 PUSH2 0x41F JUMP JUMPDEST JUMPDEST PUSH2 0x4C3 DUP6 DUP3 DUP7 ADD PUSH2 0x42F JUMP JUMPDEST SWAP3 POP SWAP3 POP POP SWAP3 POP SWAP3 SWAP1 POP JUMP JUMPDEST PUSH2 0x4D8 DUP2 PUSH2 0x3E1 JUMP JUMPDEST DUP2 EQ PUSH2 0x4E2 JUMPI PUSH0 DUP1 REVERT JUMPDEST POP JUMP JUMPDEST PUSH0 DUP2 CALLDATALOAD SWAP1 POP PUSH2 0x4F3 DUP2 PUSH2 0x4CF JUMP JUMPDEST SWAP3 SWAP2 POP POP JUMP JUMPDEST PUSH0 PUSH1 0x20 DUP3 DUP5 SUB SLT ISZERO PUSH2 0x50E JUMPI PUSH2 0x50D PUSH2 0x41B JUMP JUMPDEST JUMPDEST PUSH0 PUSH2 0x51B DUP5 DUP3 DUP6 ADD PUSH2 0x4E5 JUMP JUMPDEST SWAP2 POP POP SWAP3 SWAP2 POP POP JUMP JUMPDEST PUSH0 PUSH20 0xFFFFFFFFFFFFFFFFFFFFFFFFFFFFFFFFFFFFFFFF DUP3 AND SWAP1 POP SWAP2 SWAP1 POP JUMP JUMPDEST PUSH0 PUSH2 0x54D DUP3 PUSH2 0x524 JUMP JUMPDEST SWAP1 POP SWAP2 SWAP1 POP JUMP JUMPDEST PUSH2 0x55D DUP2 PUSH2 0x543 JUMP JUMPDEST DUP3 MSTORE POP POP JUMP JUMPDEST PUSH0 PUSH1 0x20 DUP3 ADD SWAP1 POP PUSH2 0x576 PUSH0 DUP4 ADD DUP5 PUSH2 0x554 JUMP JUMPDEST SWAP3 SWAP2 POP POP JUMP JUMPDEST PUSH0 DUP1 REVERT JUMPDEST PUSH0 PUSH1 0x1F NOT PUSH1 0x1F DUP4 ADD AND SWAP1 POP SWAP2 SWAP1 POP JUMP JUMPDEST PUSH32 0x4E487B7100000000000000000000000000000000000000000000000000000000 PUSH0 MSTORE PUSH1 0x41 PUSH1 0x4 MSTORE PUSH1 0x24 PUSH0 REVERT JUMPDEST PUSH2 0x5C6 DUP3 PUSH2 0x580 JUMP JUMPDEST DUP2 ADD DUP2 DUP2 LT PUSH8 0xFFFFFFFFFFFFFFFF DUP3 GT OR ISZERO PUSH2 0x5E5 JUMPI PUSH2 0x5E4 PUSH2 0x590 JUMP JUMPDEST JUMPDEST DUP1 PUSH1 0x40 MSTORE POP POP POP JUMP JUMPDEST PUSH0 PUSH2 0x5F7 PUSH2 0x412 JUMP JUMPDEST SWAP1 POP PUSH2 0x603 DUP3 DUP3 PUSH2 0x5BD JUMP JUMPDEST SWAP2 SWAP1 POP JUMP JUMPDEST PUSH0 PUSH8 0xFFFFFFFFFFFFFFFF DUP3 GT ISZERO PUSH2 0x622 JUMPI PUSH2 0x621 PUSH2 0x590 JUMP JUMPDEST JUMPDEST PUSH2 0x62B DUP3 PUSH2 0x580 JUMP JUMPDEST SWAP1 POP PUSH1 0x20 DUP2 ADD SWAP1 POP SWAP2 SWAP1 POP JUMP JUMPDEST DUP3 DUP2 DUP4 CALLDATACOPY PUSH0 DUP4 DUP4 ADD MSTORE POP POP POP JUMP JUMPDEST PUSH0 PUSH2 0x658 PUSH2 0x653 DUP5 PUSH2 0x608 JUMP JUMPDEST PUSH2 0x5EE JUMP JUMPDEST SWAP1 POP DUP3 DUP2 MSTORE PUSH1 0x20 DUP2 ADD DUP5 DUP5 DUP5 ADD GT ISZERO PUSH2 0x674 JUMPI PUSH2 0x673 PUSH2 0x57C JUMP JUMPDEST JUMPDEST PUSH2 0x67F DUP5 DUP3 DUP6 PUSH2 0x638 JUMP JUMPDEST POP SWAP4 SWAP3 POP POP POP JUMP JUMPDEST PUSH0 DUP3 PUSH1 0x1F DUP4 ADD SLT PUSH2 0x69B JUMPI PUSH2 0x69A PUSH2 0x423 JUMP JUMPDEST JUMPDEST DUP2 CALLDATALOAD PUSH2 0x6AB DUP5 DUP3 PUSH1 0x20 DUP7 ADD PUSH2 0x646 JUMP JUMPDEST SWAP2 POP POP SWAP3 SWAP2 POP POP JUMP JUMPDEST PUSH0 PUSH1 0x20 DUP3 DUP5 SUB SLT ISZERO PUSH2 0x6C9 JUMPI PUSH2 0x6C8 PUSH2 0x41B JUMP JUMPDEST JUMPDEST PUSH0 DUP3 ADD CALLDATALOAD PUSH8 0xFFFFFFFFFFFFFFFF DUP2 GT ISZERO PUSH2 0x6E6 JUMPI PUSH2 0x6E5 PUSH2 0x41F JUMP JUMPDEST JUMPDEST PUSH2 0x6F2 DUP5 DUP3 DUP6 ADD PUSH2 0x687 JUMP JUMPDEST SWAP2 POP POP SWAP3 SWAP2 POP POP JUMP JUMPDEST PUSH0 DUP3 DUP3 MSTORE PUSH1 0x20 DUP3 ADD SWAP1 POP SWAP3 SWAP2 POP POP JUMP JUMPDEST PUSH32 0x596F7520617265206E6F7420746865206F776E65720000000000000000000000 PUSH0 DUP3 ADD MSTORE POP JUMP JUMPDEST PUSH0 PUSH2 0x73F PUSH1 0x15 DUP4 PUSH2 0x6FB JUMP JUMPDEST SWAP2 POP PUSH2 0x74A DUP3 PUSH2 0x70B JUMP JUMPDEST PUSH1 0x20 DUP3 ADD SWAP1 POP SWAP2 SWAP1 POP JUMP JUMPDEST PUSH0 PUSH1 0x20 DUP3 ADD SWAP1 POP DUP2 DUP2 SUB PUSH0 DUP4 ADD MSTORE PUSH2 0x76C DUP2 PUSH2 0x733 JUMP JUMPDEST SWAP1 POP SWAP2 SWAP1 POP JUMP JUMPDEST PUSH32 0x546F6F206D616E7920436F696E73212100000000000000000000000000000000 PUSH0 DUP3 ADD MSTORE POP JUMP JUMPDEST PUSH0 PUSH2 0x7A7 PUSH1 0x10 DUP4 PUSH2 0x6FB JUMP JUMPDEST SWAP2 POP PUSH2 0x7B2 DUP3 PUSH2 0x773 JUMP JUMPDEST PUSH1 0x20 DUP3 ADD SWAP1 POP SWAP2 SWAP1 POP JUMP JUMPDEST PUSH0 PUSH1 0x20 DUP3 ADD SWAP1 POP DUP2 DUP2 SUB PUSH0 DUP4 ADD MSTORE PUSH2 0x7D4 DUP2 PUSH2 0x79B JUMP JUMPDEST SWAP1 POP SWAP2 SWAP1 POP JUMP JUMPDEST PUSH32 0x4E487B7100000000000000000000000000000000000000000000000000000000 PUSH0 MSTORE PUSH1 0x11 PUSH1 0x4 MSTORE PUSH1 0x24 PUSH0 REVERT JUMPDEST PUSH0 PUSH2 0x812 DUP3 PUSH2 0x3E1 JUMP JUMPDEST SWAP2 POP PUSH32 0xFFFFFFFFFFFFFFFFFFFFFFFFFFFFFFFFFFFFFFFFFFFFFFFFFFFFFFFFFFFFFFFF DUP3 SUB PUSH2 0x844 JUMPI PUSH2 0x843 PUSH2 0x7DB JUMP JUMPDEST JUMPDEST PUSH1 0x1 DUP3 ADD SWAP1 POP SWAP2 SWAP1 POP JUMP JUMPDEST PUSH32 0x4E487B7100000000000000000000000000000000000000000000000000000000 PUSH0 MSTORE PUSH1 0x1 PUSH1 0x4 MSTORE PUSH1 0x24 PUSH0 REVERT INVALID LOG2 PUSH5 0x6970667358 0x22 SLT KECCAK256 0x21 CALLDATASIZE 0xE3 STATICCALL 0xA9 DUP9 0x1F PUSH25 0xCD5B6BA10C9DF4B627A06294810E10A214BE3B8279D2F67D64 PUSH20 0x6F6C634300081900330000000000000000000000 "
				},
				"gasEstimates": {
					"creation": {
						"codeDepositCost": "445200",
						"executionCost": "34753",
						"totalCost": "479953"
					},
					"external": {
						"MemoryStorage(string)": "infinite",
						"add()": "26690",
						"assertError()": "232",
						"callDataStorage(string)": "2961",
						"coins()": "2448",
						"normalStorage()": "2514",
						"owner()": "2527",
						"revertError()": "257",
						"set(uint256)": "24681",
						"stack()": "144"
					}
				},
				"methodIdentifiers": {
					"MemoryStorage(string)": "b0e0e29c",
					"add()": "4f2be91f",
					"assertError()": "cbaff5f9",
					"callDataStorage(string)": "3f7ae679",
					"coins()": "22fcefbe",
					"normalStorage()": "509d1e17",
					"owner()": "8da5cb5b",
					"revertError()": "d157df11",
					"set(uint256)": "60fe47b1",
					"stack()": "138ef151"
				}
			},
			"storageLayout": {
				"storage": [
					{
						"astId": 3,
						"contract": "Basic.sol:Basics",
						"label": "owner",
						"offset": 0,
						"slot": "0",
						"type": "t_address"
					},
					{
						"astId": 15,
						"contract": "Basic.sol:Basics",
						"label": "coins",
						"offset": 0,
						"slot": "1",
						"type": "t_uint256"
					},
					{
						"astId": 56,
						"contract": "Basic.sol:Basics",
						"label": "normalStorage",
						"offset": 0,
						"slot": "2",
						"type": "t_uint256"
					}
				],
				"types": {
					"t_address": {
						"encoding": "inplace",
						"label": "address",
						"numberOfBytes": "20"
					},
					"t_uint256": {
						"encoding": "inplace",
						"label": "uint256",
						"numberOfBytes": "32"
					}
				}
			},
			"userdoc": {
				"kind": "user",
				"methods": {},
				"version": 1
			}
		}
	}
}