{
	"data": {
		"bytecode": {
			"linkReferences": {},
			"object": "6080604052348015600e575f80fd5b506108ad8061001c5f395ff3fe608060405234801561000f575f80fd5b506004361061004a575f3560e01c80633a4e4f9a1461004e578063bf0e3ed11461006a578063dd17569114610086578063eda9c93b146100a2575b5f80fd5b6100686004803603810190610063919061045e565b6100be565b005b610084600480360381019061007f91906104d8565b610112565b005b6100a0600480360381019061009b919061045e565b610180565b005b6100bc60048036038101906100b7919061045e565b6101da565b005b5f5b8181815181106100d3576100d2610503565b5b60200260200101515f808381526020019081526020015f2090816100f79190610734565b50808061010390610830565b915050815181106100c0575050565b5f5b8181101561017c576040518060400160405280600581526020017f426c6f636b0000000000000000000000000000000000000000000000000000008152505f808381526020019081526020015f20908161016e9190610734565b508080600101915050610114565b5050565b5f5b81518110156101d65781818151811061019e5761019d610503565b5b60200260200101515f808381526020019081526020015f2090816101c29190610734565b5080806101ce90610830565b915050610182565b5050565b5f815181101561022b578181815181106101f7576101f6610503565b5b60200260200101515f808381526020019081526020015f20908161021b9190610734565b50808061022790610830565b9150505b5050565b5f604051905090565b5f80fd5b5f80fd5b5f80fd5b5f601f19601f8301169050919050565b7f4e487b71000000000000000000000000000000000000000000000000000000005f52604160045260245ffd5b61028a82610244565b810181811067ffffffffffffffff821117156102a9576102a8610254565b5b80604052505050565b5f6102bb61022f565b90506102c78282610281565b919050565b5f67ffffffffffffffff8211156102e6576102e5610254565b5b602082029050602081019050919050565b5f80fd5b5f80fd5b5f67ffffffffffffffff82111561031957610318610254565b5b61032282610244565b9050602081019050919050565b828183375f83830152505050565b5f61034f61034a846102ff565b6102b2565b90508281526020810184848401111561036b5761036a6102fb565b5b61037684828561032f565b509392505050565b5f82601f83011261039257610391610240565b5b81356103a284826020860161033d565b91505092915050565b5f6103bd6103b8846102cc565b6102b2565b905080838252602082019050602084028301858111156103e0576103df6102f7565b5b835b8181101561042757803567ffffffffffffffff81111561040557610404610240565b5b808601610412898261037e565b855260208501945050506020810190506103e2565b5050509392505050565b5f82601f83011261044557610444610240565b5b81356104558482602086016103ab565b91505092915050565b5f6020828403121561047357610472610238565b5b5f82013567ffffffffffffffff8111156104905761048f61023c565b5b61049c84828501610431565b91505092915050565b5f819050919050565b6104b7816104a5565b81146104c1575f80fd5b50565b5f813590506104d2816104ae565b92915050565b5f602082840312156104ed576104ec610238565b5b5f6104fa848285016104c4565b91505092915050565b7f4e487b71000000000000000000000000000000000000000000000000000000005f52603260045260245ffd5b5f81519050919050565b7f4e487b71000000000000000000000000000000000000000000000000000000005f52602260045260245ffd5b5f600282049050600182168061057e57607f821691505b6020821081036105915761059061053a565b5b50919050565b5f819050815f5260205f209050919050565b5f6020601f8301049050919050565b5f82821b905092915050565b5f600883026105f37fffffffffffffffffffffffffffffffffffffffffffffffffffffffffffffffff826105b8565b6105fd86836105b8565b95508019841693508086168417925050509392505050565b5f819050919050565b5f61063861063361062e846104a5565b610615565b6104a5565b9050919050565b5f819050919050565b6106518361061e565b61066561065d8261063f565b8484546105c4565b825550505050565b5f90565b61067961066d565b610684818484610648565b505050565b5b818110156106a75761069c5f82610671565b60018101905061068a565b5050565b601f8211156106ec576106bd81610597565b6106c6846105a9565b810160208510156106d5578190505b6106e96106e1856105a9565b830182610689565b50505b505050565b5f82821c905092915050565b5f61070c5f19846008026106f1565b1980831691505092915050565b5f61072483836106fd565b9150826002028217905092915050565b61073d82610530565b67ffffffffffffffff81111561075657610755610254565b5b6107608254610567565b61076b8282856106ab565b5f60209050601f83116001811461079c575f841561078a578287015190505b6107948582610719565b8655506107fb565b601f1984166107aa86610597565b5f5b828110156107d1578489015182556001820191506020850194506020810190506107ac565b868310156107ee57848901516107ea601f8916826106fd565b8355505b6001600288020188555050505b505050505050565b7f4e487b71000000000000000000000000000000000000000000000000000000005f52601160045260245ffd5b5f61083a826104a5565b91507fffffffffffffffffffffffffffffffffffffffffffffffffffffffffffffffff820361086c5761086b610803565b5b60018201905091905056fea264697066735822122040a420b3539606b8212fc081a1a782c61019c0a99d4d8861b79146c4a8d457ce64736f6c63430008190033",
			"opcodes": "PUSH1 0x80 PUSH1 0x40 MSTORE CALLVALUE DUP1 ISZERO PUSH1 0xE JUMPI PUSH0 DUP1 REVERT JUMPDEST POP PUSH2 0x8AD DUP1 PUSH2 0x1C PUSH0 CODECOPY PUSH0 RETURN INVALID PUSH1 0x80 PUSH1 0x40 MSTORE CALLVALUE DUP1 ISZERO PUSH2 0xF JUMPI PUSH0 DUP1 REVERT JUMPDEST POP PUSH1 0x4 CALLDATASIZE LT PUSH2 0x4A JUMPI PUSH0 CALLDATALOAD PUSH1 0xE0 SHR DUP1 PUSH4 0x3A4E4F9A EQ PUSH2 0x4E JUMPI DUP1 PUSH4 0xBF0E3ED1 EQ PUSH2 0x6A JUMPI DUP1 PUSH4 0xDD175691 EQ PUSH2 0x86 JUMPI DUP1 PUSH4 0xEDA9C93B EQ PUSH2 0xA2 JUMPI JUMPDEST PUSH0 DUP1 REVERT JUMPDEST PUSH2 0x68 PUSH1 0x4 DUP1 CALLDATASIZE SUB DUP2 ADD SWAP1 PUSH2 0x63 SWAP2 SWAP1 PUSH2 0x45E JUMP JUMPDEST PUSH2 0xBE JUMP JUMPDEST STOP JUMPDEST PUSH2 0x84 PUSH1 0x4 DUP1 CALLDATASIZE SUB DUP2 ADD SWAP1 PUSH2 0x7F SWAP2 SWAP1 PUSH2 0x4D8 JUMP JUMPDEST PUSH2 0x112 JUMP JUMPDEST STOP JUMPDEST PUSH2 0xA0 PUSH1 0x4 DUP1 CALLDATASIZE SUB DUP2 ADD SWAP1 PUSH2 0x9B SWAP2 SWAP1 PUSH2 0x45E JUMP JUMPDEST PUSH2 0x180 JUMP JUMPDEST STOP JUMPDEST PUSH2 0xBC PUSH1 0x4 DUP1 CALLDATASIZE SUB DUP2 ADD SWAP1 PUSH2 0xB7 SWAP2 SWAP1 PUSH2 0x45E JUMP JUMPDEST PUSH2 0x1DA JUMP JUMPDEST STOP JUMPDEST PUSH0 JUMPDEST DUP2 DUP2 DUP2 MLOAD DUP2 LT PUSH2 0xD3 JUMPI PUSH2 0xD2 PUSH2 0x503 JUMP JUMPDEST JUMPDEST PUSH1 0x20 MUL PUSH1 0x20 ADD ADD MLOAD PUSH0 DUP1 DUP4 DUP2 MSTORE PUSH1 0x20 ADD SWAP1 DUP2 MSTORE PUSH1 0x20 ADD PUSH0 KECCAK256 SWAP1 DUP2 PUSH2 0xF7 SWAP2 SWAP1 PUSH2 0x734 JUMP JUMPDEST POP DUP1 DUP1 PUSH2 0x103 SWAP1 PUSH2 0x830 JUMP JUMPDEST SWAP2 POP POP DUP2 MLOAD DUP2 LT PUSH2 0xC0 JUMPI POP POP JUMP JUMPDEST PUSH0 JUMPDEST DUP2 DUP2 LT ISZERO PUSH2 0x17C JUMPI PUSH1 0x40 MLOAD DUP1 PUSH1 0x40 ADD PUSH1 0x40 MSTORE DUP1 PUSH1 0x5 DUP2 MSTORE PUSH1 0x20 ADD PUSH32 0x426C6F636B000000000000000000000000000000000000000000000000000000 DUP2 MSTORE POP PUSH0 DUP1 DUP4 DUP2 MSTORE PUSH1 0x20 ADD SWAP1 DUP2 MSTORE PUSH1 0x20 ADD PUSH0 KECCAK256 SWAP1 DUP2 PUSH2 0x16E SWAP2 SWAP1 PUSH2 0x734 JUMP JUMPDEST POP DUP1 DUP1 PUSH1 0x1 ADD SWAP2 POP POP PUSH2 0x114 JUMP JUMPDEST POP POP JUMP JUMPDEST PUSH0 JUMPDEST DUP2 MLOAD DUP2 LT ISZERO PUSH2 0x1D6 JUMPI DUP2 DUP2 DUP2 MLOAD DUP2 LT PUSH2 0x19E JUMPI PUSH2 0x19D PUSH2 0x503 JUMP JUMPDEST JUMPDEST PUSH1 0x20 MUL PUSH1 0x20 ADD ADD MLOAD PUSH0 DUP1 DUP4 DUP2 MSTORE PUSH1 0x20 ADD SWAP1 DUP2 MSTORE PUSH1 0x20 ADD PUSH0 KECCAK256 SWAP1 DUP2 PUSH2 0x1C2 SWAP2 SWAP1 PUSH2 0x734 JUMP JUMPDEST POP DUP1 DUP1 PUSH2 0x1CE SWAP1 PUSH2 0x830 JUMP JUMPDEST SWAP2 POP POP PUSH2 0x182 JUMP JUMPDEST POP POP JUMP JUMPDEST PUSH0 DUP2 MLOAD DUP2 LT ISZERO PUSH2 0x22B JUMPI DUP2 DUP2 DUP2 MLOAD DUP2 LT PUSH2 0x1F7 JUMPI PUSH2 0x1F6 PUSH2 0x503 JUMP JUMPDEST JUMPDEST PUSH1 0x20 MUL PUSH1 0x20 ADD ADD MLOAD PUSH0 DUP1 DUP4 DUP2 MSTORE PUSH1 0x20 ADD SWAP1 DUP2 MSTORE PUSH1 0x20 ADD PUSH0 KECCAK256 SWAP1 DUP2 PUSH2 0x21B SWAP2 SWAP1 PUSH2 0x734 JUMP JUMPDEST POP DUP1 DUP1 PUSH2 0x227 SWAP1 PUSH2 0x830 JUMP JUMPDEST SWAP2 POP POP JUMPDEST POP POP JUMP JUMPDEST PUSH0 PUSH1 0x40 MLOAD SWAP1 POP SWAP1 JUMP JUMPDEST PUSH0 DUP1 REVERT JUMPDEST PUSH0 DUP1 REVERT JUMPDEST PUSH0 DUP1 REVERT JUMPDEST PUSH0 PUSH1 0x1F NOT PUSH1 0x1F DUP4 ADD AND SWAP1 POP SWAP2 SWAP1 POP JUMP JUMPDEST PUSH32 0x4E487B7100000000000000000000000000000000000000000000000000000000 PUSH0 MSTORE PUSH1 0x41 PUSH1 0x4 MSTORE PUSH1 0x24 PUSH0 REVERT JUMPDEST PUSH2 0x28A DUP3 PUSH2 0x244 JUMP JUMPDEST DUP2 ADD DUP2 DUP2 LT PUSH8 0xFFFFFFFFFFFFFFFF DUP3 GT OR ISZERO PUSH2 0x2A9 JUMPI PUSH2 0x2A8 PUSH2 0x254 JUMP JUMPDEST JUMPDEST DUP1 PUSH1 0x40 MSTORE POP POP POP JUMP JUMPDEST PUSH0 PUSH2 0x2BB PUSH2 0x22F JUMP JUMPDEST SWAP1 POP PUSH2 0x2C7 DUP3 DUP3 PUSH2 0x281 JUMP JUMPDEST SWAP2 SWAP1 POP JUMP JUMPDEST PUSH0 PUSH8 0xFFFFFFFFFFFFFFFF DUP3 GT ISZERO PUSH2 0x2E6 JUMPI PUSH2 0x2E5 PUSH2 0x254 JUMP JUMPDEST JUMPDEST PUSH1 0x20 DUP3 MUL SWAP1 POP PUSH1 0x20 DUP2 ADD SWAP1 POP SWAP2 SWAP1 POP JUMP JUMPDEST PUSH0 DUP1 REVERT JUMPDEST PUSH0 DUP1 REVERT JUMPDEST PUSH0 PUSH8 0xFFFFFFFFFFFFFFFF DUP3 GT ISZERO PUSH2 0x319 JUMPI PUSH2 0x318 PUSH2 0x254 JUMP JUMPDEST JUMPDEST PUSH2 0x322 DUP3 PUSH2 0x244 JUMP JUMPDEST SWAP1 POP PUSH1 0x20 DUP2 ADD SWAP1 POP SWAP2 SWAP1 POP JUMP JUMPDEST DUP3 DUP2 DUP4 CALLDATACOPY PUSH0 DUP4 DUP4 ADD MSTORE POP POP POP JUMP JUMPDEST PUSH0 PUSH2 0x34F PUSH2 0x34A DUP5 PUSH2 0x2FF JUMP JUMPDEST PUSH2 0x2B2 JUMP JUMPDEST SWAP1 POP DUP3 DUP2 MSTORE PUSH1 0x20 DUP2 ADD DUP5 DUP5 DUP5 ADD GT ISZERO PUSH2 0x36B JUMPI PUSH2 0x36A PUSH2 0x2FB JUMP JUMPDEST JUMPDEST PUSH2 0x376 DUP5 DUP3 DUP6 PUSH2 0x32F JUMP JUMPDEST POP SWAP4 SWAP3 POP POP POP JUMP JUMPDEST PUSH0 DUP3 PUSH1 0x1F DUP4 ADD SLT PUSH2 0x392 JUMPI PUSH2 0x391 PUSH2 0x240 JUMP JUMPDEST JUMPDEST DUP2 CALLDATALOAD PUSH2 0x3A2 DUP5 DUP3 PUSH1 0x20 DUP7 ADD PUSH2 0x33D JUMP JUMPDEST SWAP2 POP POP SWAP3 SWAP2 POP POP JUMP JUMPDEST PUSH0 PUSH2 0x3BD PUSH2 0x3B8 DUP5 PUSH2 0x2CC JUMP JUMPDEST PUSH2 0x2B2 JUMP JUMPDEST SWAP1 POP DUP1 DUP4 DUP3 MSTORE PUSH1 0x20 DUP3 ADD SWAP1 POP PUSH1 0x20 DUP5 MUL DUP4 ADD DUP6 DUP2 GT ISZERO PUSH2 0x3E0 JUMPI PUSH2 0x3DF PUSH2 0x2F7 JUMP JUMPDEST JUMPDEST DUP4 JUMPDEST DUP2 DUP2 LT ISZERO PUSH2 0x427 JUMPI DUP1 CALLDATALOAD PUSH8 0xFFFFFFFFFFFFFFFF DUP2 GT ISZERO PUSH2 0x405 JUMPI PUSH2 0x404 PUSH2 0x240 JUMP JUMPDEST JUMPDEST DUP1 DUP7 ADD PUSH2 0x412 DUP10 DUP3 PUSH2 0x37E JUMP JUMPDEST DUP6 MSTORE PUSH1 0x20 DUP6 ADD SWAP5 POP POP POP PUSH1 0x20 DUP2 ADD SWAP1 POP PUSH2 0x3E2 JUMP JUMPDEST POP POP POP SWAP4 SWAP3 POP POP POP JUMP JUMPDEST PUSH0 DUP3 PUSH1 0x1F DUP4 ADD SLT PUSH2 0x445 JUMPI PUSH2 0x444 PUSH2 0x240 JUMP JUMPDEST JUMPDEST DUP2 CALLDATALOAD PUSH2 0x455 DUP5 DUP3 PUSH1 0x20 DUP7 ADD PUSH2 0x3AB JUMP JUMPDEST SWAP2 POP POP SWAP3 SWAP2 POP POP JUMP JUMPDEST PUSH0 PUSH1 0x20 DUP3 DUP5 SUB SLT ISZERO PUSH2 0x473 JUMPI PUSH2 0x472 PUSH2 0x238 JUMP JUMPDEST JUMPDEST PUSH0 DUP3 ADD CALLDATALOAD PUSH8 0xFFFFFFFFFFFFFFFF DUP2 GT ISZERO PUSH2 0x490 JUMPI PUSH2 0x48F PUSH2 0x23C JUMP JUMPDEST JUMPDEST PUSH2 0x49C DUP5 DUP3 DUP6 ADD PUSH2 0x431 JUMP JUMPDEST SWAP2 POP POP SWAP3 SWAP2 POP POP JUMP JUMPDEST PUSH0 DUP2 SWAP1 POP SWAP2 SWAP1 POP JUMP JUMPDEST PUSH2 0x4B7 DUP2 PUSH2 0x4A5 JUMP JUMPDEST DUP2 EQ PUSH2 0x4C1 JUMPI PUSH0 DUP1 REVERT JUMPDEST POP JUMP JUMPDEST PUSH0 DUP2 CALLDATALOAD SWAP1 POP PUSH2 0x4D2 DUP2 PUSH2 0x4AE JUMP JUMPDEST SWAP3 SWAP2 POP POP JUMP JUMPDEST PUSH0 PUSH1 0x20 DUP3 DUP5 SUB SLT ISZERO PUSH2 0x4ED JUMPI PUSH2 0x4EC PUSH2 0x238 JUMP JUMPDEST JUMPDEST PUSH0 PUSH2 0x4FA DUP5 DUP3 DUP6 ADD PUSH2 0x4C4 JUMP JUMPDEST SWAP2 POP POP SWAP3 SWAP2 POP POP JUMP JUMPDEST PUSH32 0x4E487B7100000000000000000000000000000000000000000000000000000000 PUSH0 MSTORE PUSH1 0x32 PUSH1 0x4 MSTORE PUSH1 0x24 PUSH0 REVERT JUMPDEST PUSH0 DUP2 MLOAD SWAP1 POP SWAP2 SWAP1 POP JUMP JUMPDEST PUSH32 0x4E487B7100000000000000000000000000000000000000000000000000000000 PUSH0 MSTORE PUSH1 0x22 PUSH1 0x4 MSTORE PUSH1 0x24 PUSH0 REVERT JUMPDEST PUSH0 PUSH1 0x2 DUP3 DIV SWAP1 POP PUSH1 0x1 DUP3 AND DUP1 PUSH2 0x57E JUMPI PUSH1 0x7F DUP3 AND SWAP2 POP JUMPDEST PUSH1 0x20 DUP3 LT DUP2 SUB PUSH2 0x591 JUMPI PUSH2 0x590 PUSH2 0x53A JUMP JUMPDEST JUMPDEST POP SWAP2 SWAP1 POP JUMP JUMPDEST PUSH0 DUP2 SWAP1 POP DUP2 PUSH0 MSTORE PUSH1 0x20 PUSH0 KECCAK256 SWAP1 POP SWAP2 SWAP1 POP JUMP JUMPDEST PUSH0 PUSH1 0x20 PUSH1 0x1F DUP4 ADD DIV SWAP1 POP SWAP2 SWAP1 POP JUMP JUMPDEST PUSH0 DUP3 DUP3 SHL SWAP1 POP SWAP3 SWAP2 POP POP JUMP JUMPDEST PUSH0 PUSH1 0x8 DUP4 MUL PUSH2 0x5F3 PUSH32 0xFFFFFFFFFFFFFFFFFFFFFFFFFFFFFFFFFFFFFFFFFFFFFFFFFFFFFFFFFFFFFFFF DUP3 PUSH2 0x5B8 JUMP JUMPDEST PUSH2 0x5FD DUP7 DUP4 PUSH2 0x5B8 JUMP JUMPDEST SWAP6 POP DUP1 NOT DUP5 AND SWAP4 POP DUP1 DUP7 AND DUP5 OR SWAP3 POP POP POP SWAP4 SWAP3 POP POP POP JUMP JUMPDEST PUSH0 DUP2 SWAP1 POP SWAP2 SWAP1 POP JUMP JUMPDEST PUSH0 PUSH2 0x638 PUSH2 0x633 PUSH2 0x62E DUP5 PUSH2 0x4A5 JUMP JUMPDEST PUSH2 0x615 JUMP JUMPDEST PUSH2 0x4A5 JUMP JUMPDEST SWAP1 POP SWAP2 SWAP1 POP JUMP JUMPDEST PUSH0 DUP2 SWAP1 POP SWAP2 SWAP1 POP JUMP JUMPDEST PUSH2 0x651 DUP4 PUSH2 0x61E JUMP JUMPDEST PUSH2 0x665 PUSH2 0x65D DUP3 PUSH2 0x63F JUMP JUMPDEST DUP5 DUP5 SLOAD PUSH2 0x5C4 JUMP JUMPDEST DUP3 SSTORE POP POP POP POP JUMP JUMPDEST PUSH0 SWAP1 JUMP JUMPDEST PUSH2 0x679 PUSH2 0x66D JUMP JUMPDEST PUSH2 0x684 DUP2 DUP5 DUP5 PUSH2 0x648 JUMP JUMPDEST POP POP POP JUMP JUMPDEST JUMPDEST DUP2 DUP2 LT ISZERO PUSH2 0x6A7 JUMPI PUSH2 0x69C PUSH0 DUP3 PUSH2 0x671 JUMP JUMPDEST PUSH1 0x1 DUP2 ADD SWAP1 POP PUSH2 0x68A JUMP JUMPDEST POP POP JUMP JUMPDEST PUSH1 0x1F DUP3 GT ISZERO PUSH2 0x6EC JUMPI PUSH2 0x6BD DUP2 PUSH2 0x597 JUMP JUMPDEST PUSH2 0x6C6 DUP5 PUSH2 0x5A9 JUMP JUMPDEST DUP2 ADD PUSH1 0x20 DUP6 LT ISZERO PUSH2 0x6D5 JUMPI DUP2 SWAP1 POP JUMPDEST PUSH2 0x6E9 PUSH2 0x6E1 DUP6 PUSH2 0x5A9 JUMP JUMPDEST DUP4 ADD DUP3 PUSH2 0x689 JUMP JUMPDEST POP POP JUMPDEST POP POP POP JUMP JUMPDEST PUSH0 DUP3 DUP3 SHR SWAP1 POP SWAP3 SWAP2 POP POP JUMP JUMPDEST PUSH0 PUSH2 0x70C PUSH0 NOT DUP5 PUSH1 0x8 MUL PUSH2 0x6F1 JUMP JUMPDEST NOT DUP1 DUP4 AND SWAP2 POP POP SWAP3 SWAP2 POP POP JUMP JUMPDEST PUSH0 PUSH2 0x724 DUP4 DUP4 PUSH2 0x6FD JUMP JUMPDEST SWAP2 POP DUP3 PUSH1 0x2 MUL DUP3 OR SWAP1 POP SWAP3 SWAP2 POP POP JUMP JUMPDEST PUSH2 0x73D DUP3 PUSH2 0x530 JUMP JUMPDEST PUSH8 0xFFFFFFFFFFFFFFFF DUP2 GT ISZERO PUSH2 0x756 JUMPI PUSH2 0x755 PUSH2 0x254 JUMP JUMPDEST JUMPDEST PUSH2 0x760 DUP3 SLOAD PUSH2 0x567 JUMP JUMPDEST PUSH2 0x76B DUP3 DUP3 DUP6 PUSH2 0x6AB JUMP JUMPDEST PUSH0 PUSH1 0x20 SWAP1 POP PUSH1 0x1F DUP4 GT PUSH1 0x1 DUP2 EQ PUSH2 0x79C JUMPI PUSH0 DUP5 ISZERO PUSH2 0x78A JUMPI DUP3 DUP8 ADD MLOAD SWAP1 POP JUMPDEST PUSH2 0x794 DUP6 DUP3 PUSH2 0x719 JUMP JUMPDEST DUP7 SSTORE POP PUSH2 0x7FB JUMP JUMPDEST PUSH1 0x1F NOT DUP5 AND PUSH2 0x7AA DUP7 PUSH2 0x597 JUMP JUMPDEST PUSH0 JUMPDEST DUP3 DUP2 LT ISZERO PUSH2 0x7D1 JUMPI DUP5 DUP10 ADD MLOAD DUP3 SSTORE PUSH1 0x1 DUP3 ADD SWAP2 POP PUSH1 0x20 DUP6 ADD SWAP5 POP PUSH1 0x20 DUP2 ADD SWAP1 POP PUSH2 0x7AC JUMP JUMPDEST DUP7 DUP4 LT ISZERO PUSH2 0x7EE JUMPI DUP5 DUP10 ADD MLOAD PUSH2 0x7EA PUSH1 0x1F DUP10 AND DUP3 PUSH2 0x6FD JUMP JUMPDEST DUP4 SSTORE POP JUMPDEST PUSH1 0x1 PUSH1 0x2 DUP9 MUL ADD DUP9 SSTORE POP POP POP JUMPDEST POP POP POP POP POP POP JUMP JUMPDEST PUSH32 0x4E487B7100000000000000000000000000000000000000000000000000000000 PUSH0 MSTORE PUSH1 0x11 PUSH1 0x4 MSTORE PUSH1 0x24 PUSH0 REVERT JUMPDEST PUSH0 PUSH2 0x83A DUP3 PUSH2 0x4A5 JUMP JUMPDEST SWAP2 POP PUSH32 0xFFFFFFFFFFFFFFFFFFFFFFFFFFFFFFFFFFFFFFFFFFFFFFFFFFFFFFFFFFFFFFFF DUP3 SUB PUSH2 0x86C JUMPI PUSH2 0x86B PUSH2 0x803 JUMP JUMPDEST JUMPDEST PUSH1 0x1 DUP3 ADD SWAP1 POP SWAP2 SWAP1 POP JUMP INVALID LOG2 PUSH5 0x6970667358 0x22 SLT KECCAK256 BLOCKHASH LOG4 KECCAK256 0xB3 MSTORE8 SWAP7 MOD 0xB8 0x21 0x2F 0xC0 DUP2 LOG1 0xA7 DUP3 0xC6 LT NOT 0xC0 0xA9 SWAP14 0x4D DUP9 PUSH2 0xB791 CHAINID 0xC4 0xA8 0xD4 JUMPI 0xCE PUSH5 0x736F6C6343 STOP ADDMOD NOT STOP CALLER "
		},
		"gasEstimates": {
			"creation": {
				"codeDepositCost": "444200",
				"executionCost": "478",
				"totalCost": "444678"
			},
			"external": {
				"add(string[])": "infinite",
				"breakapply(string[])": "infinite",
				"dowhile(string[])": "infinite",
				"okay(uint256)": "infinite"
			}
		},
		"methodIdentifiers": {
			"add(string[])": "dd175691",
			"breakapply(string[])": "eda9c93b",
			"dowhile(string[])": "3a4e4f9a",
			"okay(uint256)": "bf0e3ed1"
		}
	},
	"abi": [
		{
			"inputs": [
				{
					"internalType": "string[]",
					"name": "_names",
					"type": "string[]"
				}
			],
			"name": "add",
			"outputs": [],
			"stateMutability": "nonpayable",
			"type": "function"
		},
		{
			"inputs": [
				{
					"internalType": "string[]",
					"name": "_names",
					"type": "string[]"
				}
			],
			"name": "breakapply",
			"outputs": [],
			"stateMutability": "nonpayable",
			"type": "function"
		},
		{
			"inputs": [
				{
					"internalType": "string[]",
					"name": "_names",
					"type": "string[]"
				}
			],
			"name": "dowhile",
			"outputs": [],
			"stateMutability": "nonpayable",
			"type": "function"
		},
		{
			"inputs": [
				{
					"internalType": "uint256",
					"name": "_num",
					"type": "uint256"
				}
			],
			"name": "okay",
			"outputs": [],
			"stateMutability": "nonpayable",
			"type": "function"
		}
	]
}